:020000040800F2
:10000000908A002011020008190200081B02000853
:100010001D0200081F020008210200080000000065
:1000200000000000000000000000000023020008A3
:1000300025020008000000002702000855420008C1
:100040002B0200082B0200082B0200082B020008DC
:100050002B0200082B0200082B0200082B020008CC
:100060002B0200082B0200082B0200082B020008BC
:100070002B0200082B0200082B0200082B020008AC
:100080002B0200082B0200082B02000800000000D1
:100090000000000000000000000000002B0200082B
:1000A0002B0200082B0200082B0200082B0200087C
:1000B000694400082B0200082B0200082B020008EC
:1000C0002B0200082B0200082B0200082B0200085C
:1000D0002B0200082B0200082B0200082B0200084C
:1000E0002B0200082B0200082B0200082B0200083C
:1000F0002B0200082B020008000000000000000096
:1001000000000000000000002B0200082B02000885
:100110002B0200082B0200082B0200082B0200080B
:100120002B0200082B0200082B0200082B020008FB
:100130002B02000800F002F800F05AF80AA090E83C
:10014000000C82448344AAF10107DA4501D100F092
:100150004FF8AFF2090EBAE80F0013F0010F18BF05
:10016000FB1A43F001031847CC000100EC0001002A
:100170000A444FF0000C10F8013B13F0070408BFCD
:1001800010F8014B1D1108BF10F8015B641E05D06B
:1001900010F8016B641E01F8016BF9D113F0080F20
:1001A0001EBF10F8014BAD1C0C1B09D16D1E58BFB2
:1001B00001F801CBFAD505E014F8016B01F8016BE9
:1001C0006D1EF9D59142D6D370470000002300245C
:1001D00000250026103A28BF78C1FBD8520728BF57
:1001E00030C148BF0B6070471FB51FBD10B510BDB3
:1001F00000F0BBF91146FFF7F7FF0BF0FEF800F037
:10020000D9F903B4FFF7F2FF03BC00F0E1F90000F5
:100210000948804709480047FEE7FEE7FEE7FEE79A
:10022000FEE7FEE7FEE7FEE7FEE7FEE704480549D6
:10023000054A064B704700006D4200083501000872
:1002400090840020908A00209086002090860020D4
:1002500040EA0103024630B59B0710D14FF001344C
:1002600000E008C208C91D1B9D4315EAC41FF8D051
:1002700013F0FF0102F8011B0DD01B0AF8E711F87B
:10028000013B002B02F8013B05D011F8013B002B8C
:1002900002F8013BF3D130BD10B5431C02E010F869
:1002A000011B71B18107FAD14FF0013202C88C1ADB
:1002B0008C4314EAC211F9D0C01A0A0603D0C01E3A
:1002C00010BDC01A10BD0A0401D0801E10BD090265
:1002D000FCD0401E10BD032A40F2308010F0030C09
:1002E00000F0158011F8013BBCF1020F624498BF89
:1002F00011F801CB00F8013B38BF11F8013BA2F126
:10030000040298BF00F801CB38BF00F8013B11F0A0
:10031000030300F06780083AC0F0088051F8043BFE
:10032000083A51F804CBA0E80810F5E7121D5CBFAD
:1003300051F8043B40F8043BAFF30080D20724BFE0
:1003400011F8013B11F801CB48BF11F8012B24BF74
:1003500000F8013B00F801CB48BF00F8012B7047C3
:10036000431A28BF9A427FF6B6AF032A10441144BD
:1003700040F2268010F0030F1EBF11F8013D521EFF
:1003800000F8013D10F0030F7FF4F6AF11F0030306
:1003900000F09F80083AC0F00B8051F8043D083A05
:1003A00051F804CD40F8043D40F804CDFFF7F3BF09
:1003B000121D5CBF51F8043D40F8043DAFF30080CE
:1003C000D20724BF11F8013D11F801CD48BF11F843
:1003D000012C24BF00F8013D00F801CD48BF00F812
:1003E000012C704710B5203AC0F00B80B1E81850CE
:1003F000203AA0E81850B1E81850A0E81850BFF40F
:10040000F5AF5FEA027C24BFB1E81850A0E81850AD
:1004100044BF18C918C0BDE810405FEA827C24BF01
:1004200051F8043B40F8043B08BF7047D20728BF8F
:1004300031F8023B48BF11F8012B28BF20F8023BDE
:1004400048BF00F8012B704702F0FF0343EA032284
:1004500042EA024200F069B84FF0000200B51346CC
:1004600094469646203922BFA0E80C50A0E80C50D4
:10047000B1F12001BFF4F7AF090728BFA0E80C5085
:1004800048BF0CC05DF804EB890028BF40F8042B7E
:1004900008BF704748BF20F8022B11F0804F18BFEB
:1004A00000F8012B7047704770477047431A28BF08
:1004B0009A427FF697AF104410F0030F11441EBF0D
:1004C00011F8013D521E00F8013D10F0030F7FF4BA
:1004D000F6AF103AC0F00A8010B531E91850103A62
:1004E00020E91850BFF4F9AFBDE81040530724BF0E
:1004F00031E9081020E9081044BF51F8043D40F8E4
:10050000043D12F0030F08BF7047D20728BF31F82F
:10051000023D48BF11F8012C28BF20F8023D48BF1A
:1005200000F8012C70474FF000020429C0F012803F
:1005300010F0030C3FF492AFCCF1040CBCF1020FAD
:1005400018BF00F8012BA8BF20F8022BA1EB0C016B
:10055000FFF784BF5FEAC17C24BF00F8012B00F8DD
:10056000012B48BF00F8012B7047754600F02CF8AE
:10057000AE4605006946534620F00700854618B090
:1005800020B5FFF753FEBDE820404FF000064FF0C6
:1005900000074FF000084FF0000B21F00701AC46B8
:1005A000ACE8C009ACE8C009ACE8C009ACE8C009D7
:1005B0008D46704710B50446AFF300802046BDE875
:1005C0001040FFF71EBE0000004870472C8400203A
:1005D00001491820ABBEFEE726000200704700006C
:1005E0007CB504F001FB0546002000902B46044A30
:1005F00002210190034800F025FC044620467CBD02
:10060000FDAD000870BC000800B5024602F06CFFAA
:10061000642050430349086000BF02480068002876
:10062000FBD100BD00000020F7B50446C66886B0C7
:10063000002001F063FC02210546002E05D0307930
:10064000002802D02846084301E02846884301F0EC
:1006500055FC2069012600280BD0A1686B46E26892
:1006600046C3039663882288046808990798A047C0
:100670001FE0124F124B38681B68427C2146E0682D
:100680009847002806D1E088012801D0002001E029
:100690003868806BA288E388A16800960293039271
:1006A000049105900196638822880899079802F0C2
:1006B00039FF284601F022FC09B0F0BD1C000020E3
:1006C0001400002010B5002001F010FC0B4801F0D0
:1006D00011FC012001F050FC002001F055FC00202D
:1006E00001F05CFC002001F009FC0548006801F005
:1006F00009FC002001F01CFC10BD0000FFFFFF0002
:1007000018000020F0B54E4991B00A682221515ED0
:1007100006912421515E0991D5690026EC69F643C2
:10072000A189814206D8E389834203D32368471A0B
:100730000F9313E0A16863680F93002977D00B88AB
:10074000834274D84E88864271D3C01A0304486825
:10075000990B081800270226C75F865F781C66D0B1
:10076000287EA37C014658430A90207C2A250791C5
:100770000890555F284603F009FBC0B20D90304841
:10078000A37C01680A988A6B47430F980393381833
:100790000127029705920490C869079BC17E807E5D
:1007A00001910090089A0999069802F0BBFE701C0E
:1007B0001BD028460221084303F0E8FA0A9A204891
:1007C00056430F9A0068B318816BA27C029704937A
:1007D00003920591C069079BC17E807E01910090C4
:1007E000089A0999069802F09DFE154E3068C06976
:1007F000417E007E814217D9022D15D02846042162
:10080000484003F0C3FA3068C069017EC27E437E6F
:100810005143099A807E89189B18089A5043069A7A
:100820008218069803F012F80D9803F0AFFA044806
:10083000627C0068418C8918418411B0F0BD0000D1
:100840001C000020044800290068C069C06901D06C
:10085000027C0A60407C70471C0000200220088057
:100860007047C06982898A4202D8C2898A4211D2FD
:100870008068002810D002888A420DD843888B42B5
:100880000AD34068890040189100401A0021415E57
:10089000002901DB0120704700207047F0B5304C83
:1008A000034620682A2189B0415E0791C069194634
:1008B000C06900F080F800284FD041680088181AFD
:1008C000C0000D18AE78079803F060FA0690206813
:1008D0006A68816B01230396029304920591C169B2
:1008E0002226CB7E8A7E019300920B7E2421865F96
:1008F000415E2A78304602F015FE2068C069477EC6
:10090000067EB7421ED9C07E474346430798022859
:1009100018D000F037FD009000F01EFD01F0EAFA5B
:1009200021682A78C8690B46C07E42432220085EAF
:100930002421595E1218CB19891902F087FF0098FB
:1009400001F0D8FA069803F021FA20686978C269A4
:10095000927E5143428C8918418409B0F0BD000059
:100960001C00002030B50D4C054620680B46C069C0
:100970002946C06900F01FF800280ED041680088A1
:100980002468281AC200E469501C085CA47E6043F5
:10099000002B02D0895C6143196030BD1C0000202F
:1009A00001200880704700B5C06900F004F80028F5
:1009B00000D0012000BD06E002888A4202D84288A9
:1009C0008A4202D280680028F6D1704710B500280C
:1009D00001D005F02BF910BD38B50546FFF7F6FF3D
:1009E000040009D000F0CAF82A460021009002F065
:1009F00005FD684600F0E8F8204638BD024A106060
:100A00008808800050607047B882002010B5002828
:100A100010D004460848E200406B815C002909D0F0
:100A2000022907D2121D8158486805F0B3F8204604
:100A300008F0E6FD10BD0000F8810020002806D077
:100A4000034AD16B0160002900D04860D063704731
:100A5000F881002010B504460068FFF7D7FF00209A
:100A6000206010BDF8B5044608F004FBE41C2A48D9
:100A7000A508AD00016C2D1DA94200D90D46C46B1F
:100A800017E021468039CA6FAA4211D1002C12D03A
:100A90002168002901D062684A606168002901D09C
:100AA00022680A60C26BA24233D12168C16330E080
:100AB0002468002CE5D11848816BC0680F183846AF
:100AC00080380090C06F3E1A3068002808D000209F
:100AD00008F000FE0098C06F3E1A3068002818D158
:100AE0007068A84215DB8019441B3046241D08F0AD
:100AF000A7FD0948C168491BC160416949194161A5
:100B00007068401B02D0314605F044F8204680381A
:100B1000C5672046F8BD0000F881002010B500240C
:100B200008F0A8FA0D490F20C2005218526C002A92
:100B300003D0C0004018406C09E0401EF4D509E025
:100B40004168A14200D90C468068002802D0806824
:100B50000028F5D120460C3810BD0000F881002097
:100B60000021002806D00449C000496B001D085828
:100B700041680C3908467047F881002000B50649E5
:100B8000CA69521CCA61496BC20089180A78521C92
:100B90000A7000F031F800BDF881002010B5FFF7B1
:100BA000BDFF01218905074C884205D964210BF05E
:100BB00052F8216A484310BD226A642150430BF069
:100BC00050F810BDF881002002680A49083A1268FE
:100BD0004B6BD2009A181378022B04D3CB69002BED
:100BE00001D05B1ECB611178491E1170002101609C
:100BF00008467047F8810020002805D00349C0004E
:100C0000496B001D0858083070470000F88100202B
:100C1000F3B583B00446049800F0BAFB0090049F3B
:100C20001420294E4743F0590190284801680029B3
:100C300008D10121016025492548091D08600846A1
:100C400002F060FB0498142250431F4A0099851853
:100C500000291BD0084601F031F90290FF20000660
:100C600001F044F900F0B6F800221146206800F0C7
:100C700099FA206842880188009801F051F9F451EE
:100C800001206871029801F019F917E0F45101266A
:100C90006E712869002803D001F064F800202861F3
:100CA000002C0ED00096E868A168049B421AA86840
:100CB0006168411A206801F097F82861049809F0EA
:100CC0007DF9019805B0F0BD34830020600000205C
:100CD0003993000810B5034A1268527C00F004F8FA
:100CE00010BD00001C000020F8B507460E46144653
:100CF000104600F04DFB0346142115484C43002BD1
:100D000008D0005941688068791A321A184601F0F3
:100D100003F9F8BD2518A968B94201D0012100E006
:100D20000021EA68B24201D0012200E00022114312
:100D3000EFD02B69002B07D0005981684068721AE8
:100D4000391A184601F02CF8AF60EE60F8BD0000CB
:100D50003483002010B503480068407C00F004F89C
:100D600010BD00001C000020142102464A4310B5AB
:100D700007490123541863718958002902D009F0EA
:100D80001DF910BD01460348FFF742FF10BD0000EA
:100D90003483002010E8000810B5C2B2CBB2D21ADA
:100DA00000D5524293B202040C045B43120E240E8F
:100DB000121B00D5524292B2000C090C5243401A49
:100DC000D21800B2002801DA404200B280B240439B
:100DD000801810BD10B50021084600F0FFFA034A44
:100DE00050421346014600F003F810BDFF3F0000DB
:100DF000FEB507461C4615460E46042002F0C6FF07
:100E000000900F48C168C86C096DC719451968463C
:100E100087808E1905810C19C680448101A804F0D1
:100E200011FB07E023462A463146384602F00EFD04
:100E300004F0CAFA0028F5D1009802F0A7FFFEBD21
:100E400010000020FFB583B00D9F1C00164605461C
:100E500002D103F0C9FE044600962E683B462146A7
:100E600028460C9AB04706000BD003F0B1FE019063
:100E7000698A304603F09FFB304604F09BF90198E5
:100E80000DE0002007B0F0BD00200090EF690346A0
:100E900002461C3528460199B84700281ED004F0A8
:100EA00089F90498401E04900028EDDC1D2101986A
:100EB00004F0BEF8601C0FD003F0B2FE002806D08C
:100EC000FFF79AFE8469B44201D02000F8D1B44201
:100ED00002D0304604F018F93046D3E7304603F02C
:100EE000ADFDCEE7F8B51C4616460D460746022B6B
:100EF00001DB0020F8BD1C20FFF7B4FD0028F9D06D
:100F0000002D01D005610BE0094AA10051580029CC
:100F100001D105E011460A68002AFBD10969016187
:100F200084618682002101604160C7608160F8BDF4
:100F30003400002070B51D46FFF7D4FF04000AD02E
:100F400000F012F8E0680068002804D10349A80006
:100F5000096840188465204670BD00001C00002010
:100F600010B5FFF76BFD10BD70B5002835D0816955
:100F7000022932DA1E4B8C001959002902D118516E
:100F800033E011464A68002AFBD106E0CA68C5680A
:100F900012682D68AA4203DD09680029F6D11CE019
:100FA00000291AD0CA68C66812683668B2420DD1E4
:100FB000828A012A05D009E01146D2681268AA4245
:100FC00004DB0A68002AF7D1002906D04A68002A03
:100FD00005D010604A68426002E0012070BD1851DF
:100FE0004860884200D100210160002070BD0000EF
:100FF0003400002081698A0009498B58834201D15D
:1010000003688B504168002901D002680A600168BA
:10101000002901D042684A600021016041607047A8
:1010200034000020022801DB0020704705498000C1
:10103000085804E0C16809680029F6D00068002853
:10104000F8D170473400002070B5044601F0F6FB7B
:10105000051907E000F0FEF8052C00DD0524204608
:1010600001F0DEFB01F0EAFB2C1A002CF2DC70BD73
:10107000FFB589B01646050071D0082268460A9966
:10108000FFF729F9684604220021825E415E501A6A
:10109000401C039000F086F904463007800F24D0EE
:1010A00028460C9A039901F0A0FB0C213140042939
:1010B00004D0082902D00C2917D107E06946C98855
:1010C0006043081A6946401C48800EE06A460623C1
:1010D0000221D35E515E60435A1A101A401CC20F9F
:1010E0001018401008186A4650800A9804F056F804
:1010F000029000280BD0019900980791069006A84D
:10110000029A0A9901F0F5FF06A804F047F8671E55
:1011100028460C9A039902F03DF9089068464088E9
:10112000C1196846C180009801990591049028462C
:10113000089901F05BFFB107890F11D001292AD06E
:10114000022911D10A9904228A5E0B460021595EB8
:10115000521A101AC20F10184010081802E018E0B6
:101160000A9800886946088204AA2846089901F06E
:10117000F3FC28460C9A039902F003F945196946D5
:1011800048880019488028780028C1D1029804F0C6
:1011900005F80DB0F0BD0A998988081A6946401C07
:1011A000E1E700007CB506460F480068C36C006D9F
:1011B0005D188418318868460580681E09186846DD
:1011C000818071884480601E09186846C18004F0DF
:1011D00039F906E0224629463046FFF725FA04F0A1
:1011E000F3F80028F6D17CBD1C000020FEB50546B2
:1011F00017480468207EE66C246D77196518B618C8
:10120000401E3A1A69460A8032188A802A1AE4185F
:101210004A802018C880684604F014F915E0324668
:101220002946384602F08AFA32462146384602F00C
:1012300085FA621E691C384602F0DEFA621E691CDD
:10124000304602F0D9FA04F0BFF80028E7D1FEBD1D
:101250001C00002010B5002400E0012400F004F878
:101260000028FAD1204610BD10B50C4800240068B3
:10127000002803D08047002800D0012403F04EFC52
:10128000002800D0012406480068002803D08047C9
:10129000002800D00124204610BD0000400000209E
:1012A0003C00002018B5002807D00092848882688E
:1012B0000B46C088214600F001F818BD30B5039DEB
:1012C0002C464C4308282DD006DC01280AD00228E1
:1012D00013D0042804D11BE0102826D020282AD0BF
:1012E000002030BDD8080019105C5907490F0722AB
:1012F000511AC840C007C00F30BD98080019105CD3
:101300009907490F0622511AC8408007800F30BD47
:1013100058080019105CD90702D00007000F30BD33
:10132000000930BDE018105C30BD48106843C0189B
:101330004000105A30BD88106843C0188000105813
:1013400030BD0000810003484058C1688A6A082106
:10135000104700003400002010B502F0A9FA02F096
:1013600057FB10BD02490968C9694A680021104746
:101370001C000020024A1268D2695268104700001F
:101380001C00002010B502F09BFA02F041FB10BDDA
:101390000021022802D202498000095808467047FD
:1013A0004401002002480068C069407E7047000088
:1013B0001C00002000B501F065FE00BD0249800060
:1013C0000858006900687047340000200249800016
:1013D00008580069406870473400002070B50D4619
:1013E00007F07CFD0446284607F080FD204370BDD1
:1013F000F8B518480125856017490160006817494C
:10140000884200D0FEE701F0D3FA154E2E2030704E
:1014100001F01AFA134807F0D9FD09F0C7FD074695
:1014200002F0A2FA002803D002F0B8FA002807D18F
:1014300002F0BFFA044602F0A2FA214602F0A0FC34
:101440000021084600F07CFD03F030FC7570384642
:10145000F8BD000000300240C2A507F4CDB5E8B5E4
:1014600010000020C48200201CB5002804D10C48C4
:101470000068006E002812D0FFF780FB00904469DE
:101480006846FFF7A1FB002C09D02046FFF776FB4A
:10149000019081688968884701A8FFF795FB1CBD0A
:1014A0001C000020024910B50A4600F003F810BDE8
:1014B00001F0FFFFF7B588B0089815460C460028E4
:1014C00040D0002000F01AFD06901F480068076E0B
:1014D0000898FFF753FB00900068806900F0EEFC6D
:1014E00006461A48844204D1042400980625045F65
:1014F000455F009968460A898480601E1218684614
:1015000002814989C580681E09186846418103F037
:101510006DF96846FFF758FB01A803F093FF06E05A
:101520002A462146089800F055FB03F04DFF00289D
:10153000F6D1304600F0C2FC384600F065F9069856
:1015400000F0DCFC0BB0F0BD1C00002001F0FFFF40
:10155000FFB5184800270068174A407C83B0810017
:101560000C9E5458E1680968042903D02468002CB3
:10157000F8D101E0002C03D1FFF754FD041E17D071
:10158000E0680121C26A2046904705000FD0246917
:10159000A0688047401C02D1084C0120064303AFDD
:1015A0000096019502940FCF00F0B8F9074638462F
:1015B00007B0F0BD1C00002034000020F8F0000847
:1015C00038B5040019D00D480068006EA04201D162
:1015D00000F06CFC2046FFF7D1FA0090406900282B
:1015E00001D001F0F0F800980068FFF7B9FC6846F8
:1015F000FFF7EAFA2046FFF709FA38BD1C00002081
:10160000FFB507464E4885B00068447C4D480057FA
:101610000128204606DD02F0ADF90546204602F01D
:10162000C3F905E002F086F90546204602F08CF980
:101630000446002F24D003A902A8FFF7BBFE002018
:10164000385E002800DA002002260190BE5F002EDE
:1016500000DA0026029841190420385E491E07F07E
:10166000F8FD0546039801190620385E491E07F06B
:10167000F0FD014601988C1B2A1A521C641C03E0E1
:10168000002006462A4601900898002801D16042B1
:101690000890002A52DD002C50DD0E980090314653
:1016A000089B0198FFF754FF0090002811D000F02C
:1016B0006DF80746A04207D021480068806C0028DA
:1016C00002D0322104F0CAF9009800F09DF80025FC
:1016D00022E0069907988847012009B0F0BD611BF8
:1016E000B94202DA009800F077F8002D07D072199D
:1016F0000199009800F0ACF80098FFF7B5FE069944
:101700000798884710480168002901D000208847C1
:101710000098FFF7C7FEED19A542E0DB0098FFF740
:101720004FFF002000F070F8A74207D0044800687F
:10173000806C002802D0332104F090F90020CCE71F
:101740001C000020540000208801002038B500242F
:1017500000280CD0FFF712FA00900068006980683A
:10176000804702F0F5FC04466846FFF72DFA204654
:1017700038BD38B5002808D0FFF700FA04460090BD
:1017800068461834FFF720FA204638BD38B50024E3
:10179000002804D107480068006E002807D0FFF732
:1017A000EDF90A240090045F6846FFF70DFA204621
:1017B00038BD00001C00002070B5054600242846F6
:1017C00004F0BCFB641C002802D000F071F870BD6E
:1017D000052CF4DB70BD000038B50C46002804D1A0
:1017E00008480068006E00280AD0FFF7C7F90A21F0
:1017F0000090415EA14200DD44816846FFF7E4F9B4
:1018000038BD00001C000020F8B5104E05003068FF
:10181000046E17D0002C01D000F048FB03F0D0F884
:101820002846FFF7ABF9009031680D660068FFF7B6
:101830009BFB6846FFF7C8F902F020FB02F080FA34
:101840002046F8BD00F032FBFAE700001C00002043
:101850007CB515460C46002804D114480068006E7B
:10186000002822D0FFF78AF92DB20090C58024B25B
:10187000848002F065FA00984069002812D0FFF7D2
:101880007DF9009A01900821515E0A238180D35E80
:10189000C380002903D0002B01D00480458001A81B
:1018A000FFF792F96846FFF78FF97CBD1C00002016
:1018B000024910B50A4600F003F810BD01F0FFFF21
:1018C0007FB515460C46060025D0FFF757F912499B
:1018D00001908C4203D104240625045F455F0289F0
:1018E00069460C81611E521869468A814289681EC8
:1018F0004D811018C88101A8FFF766F902A803F00E
:10190000A1FD06E02A462146304600F04BF903F0DF
:101910005BFD0028F6D17FBD01F0FFFFFFB583B06E
:101920000021009138491C4609680C9E4B7C0D989B
:1019300000220E99FFF7D6FA050062D02869806868
:10194000804702F005FC059901904143C91DCF086D
:10195000FFF724F9F10705D1C117890F0818801086
:1019600041004018002C0CDC002F04D039461838F8
:101970000AF077F900E000206142884200DD084665
:101980000446F00706D1009003A807C8234600F0DC
:10199000A5FE0090002C03DC2846FFF7E1FA30E0BA
:1019A000204678431830F10702D0FFF70FF801E026
:1019B000FFF712F806001CD0FFF7E0F80290056070
:1019C000039981800499C180059901814481C76090
:1019D000019901610099416102A8FFF7F5F80E989D
:1019E000AE60286108480068407CA861304607B0B6
:1019F000F0BD2846FFF7B4FA0098002801D0FFF7A1
:101A000005F80020F3E700001C000020F7B590B0B7
:101A100014461098FFF7B2F808210B90415E0A2790
:101A20000891C75F00680069406809900BA8FFF73C
:101A3000CBF8594D594E2868407C80003058C16819
:101A40008A6A082190470790182801D32020079020
:101A50002868407C800030580069069003C80E90CA
:101A60004F48814201D0012000E000200D9000206D
:101A700000F0EBFE00287DD1089911982A684018E3
:101A80000C21515E401A401E002802DD08990D1AF3
:101A900000E0089D0820105E1199884204DD401A7C
:101AA00009182D1A119100E00020002D72DD0E237F
:101AB000D35EE119C91A491E002902DD791A0A917B
:101AC00000E00A970A21515EA14205DD0E1B0A992A
:101AD000A419891B0A9101E00A990026002959DD01
:101AE00080000C9011980290099910980FAA089FF5
:101AF00000920191FFF73DFE7743B90041180C9821
:101B0000019A081800990092019102462B4621463D
:101B1000029801F075F8009000283BD00D9800283D
:101B20001FD02946069B079A009800F03AFF00282C
:101B300017D1089801900698009F006984460028F4
:101B400006D03946384604236746019AB84708E06C
:101B50000E993868884701C70198401E01900028F7
:101B6000F6D100200099079A039005900292049103
:101B7000012000E00EE00090214603460190641C25
:101B80002A46119801F0CEFC0A98761C401E0A9055
:101B90000028A7D113B0F0BD1C00002034000020A5
:101BA0002F3A0008F8B515460E460746FEF7E6FF41
:101BB000009000681621C068426A002090470446E1
:101BC0006846FFF701F8002C03D02A463146384614
:101BD000A047F8BDF8B516460F46050013D0FEF72E
:101BE000CDFF009044696846FEF7EEFF2846FFF7F8
:101BF000ADFD0346082801DD002C05D032463946EC
:101C0000284608F041FCF8BD32463946284608F01F
:101C1000F7FDF8BD10B5002823D0002922D0002AF6
:101C200021D0002400230C5FD35E9C4200DA2346BF
:101C30000380022402230C5FD35E9C4200DA234619
:101C40004380042404230C5FD35E9C4200DD2346C2
:101C500083800623CB5E0621515E8B4200DC0B465F
:101C6000C38010BD11460822FEF735FB10BD0028C9
:101C70000BD003885B1803808388591881804188C2
:101C800089184180C1888918C180704770B5094C96
:101C90000020226861688A420AD060CA104608386B
:101CA00007F03CF920603146284603F00DF9012089
:101CB00070BD000034010020FEB5164D08262D68C9
:101CC000089FAE5F099C864200DD30460C26AE5F61
:101CD000964200DA324682421ADB0A26AE5F8E4214
:101CE00000DD31460E26AE5F9E4200DA33468B425F
:101CF0000EDB00E02C46E5682D68002D04D0042D95
:101D000002D02568002DF5D10097019401F0FEFE68
:101D1000FEBD00001C00002002220623825ECB5E76
:101D20009A4213DC022206238A5EC35E9A420DDCCD
:101D300000220423825ECB5E9A4207DC00228A5E88
:101D40000421415E8A4201DC012070470020704777
:101D5000014610B5024870220068FEF743FB10BD33
:101D60001C00002038B5040019D008F0C3FA204642
:101D700008F038FB2046FEF701FF00900068FEF7F0
:101D80005DFE0098C068FEF741FE0098C069FEF74E
:101D90003DFE6846FEF718FF2046FEF737FE38BDC9
:101DA00010B5002801D007F079FE10BD38B5040049
:101DB00019D0FEF7E3FE0090007C800710D4204687
:101DC00007F0EEF96846FEF7FFFE204608F010F92E
:101DD0002046FEF7D3FE0090018A022211430182C1
:101DE0006846FEF7F1FE38BDFFB5044681B00088B5
:101DF0000A9F00283DD0608800283AD0E06800287B
:101E000003D08068002835D002E0E088202830D157
:101E1000FA07D20F00211F48FFF764F8050028D009
:101E200020886188800048432030FEF7D5FD0600F9
:101E300022D03046AE60FEF7A1FE009007824461DA
:101E4000029A82800399C1802388D218521E02818F
:101E500062888918491E418105606846FEF7B4FE14
:101E6000E06800280CD02146304604F06BF90028C9
:101E700006D0002005B0F0BD2846FFF771F8F8E75E
:101E8000B80705D5304607F08BF9304608F0B0F8B2
:101E90003046EFE71CE8000810B5034970220968D6
:101EA000FEF7A0FA10BD00001C00002010B501F0E4
:101EB000FBFE01F0E3FF02F099FC10BD70B5094D87
:101EC00004462868022C467C0AD22046FFF7AAF86E
:101ED000002805D028684474FFF7E8FF0248046032
:101EE000304670BD1C000020C400002010B501F079
:101EF000FDFE10BD10B501F031FF10BD10B501F0B1
:101F000045FF10BD034900280968CA6900D0C861AF
:101F1000104670471C00002010B501F054FF10BDA2
:101F200010B501F067FF10BD10B501F091FF10BDB5
:101F3000024909688A7E8876104670471C00002096
:101F400030B4094A1080094A1180094A1268527C4B
:101F50009300084AD358DA68146A0A46A446014630
:101F600030BC1846604700005C0000205E00002086
:101F70001C00002034000020024909680A7E08760F
:101F8000104670471C00002003490A682C21515E4E
:101F900090850846704700001C00002003490A682D
:101FA0002A21515E50850846704700001C00002021
:101FB00002480068002800D00047704768010020F0
:101FC00010B504498A68002A00D18860FFF7F0FF45
:101FD00010BD00003401002010B5040007D007F048
:101FE0004BFB204608F00AFA2046FEF70FFD10BD15
:101FF00038B50C4600280CD0FEF7C0FD0090808953
:10200000204201D0012400E000246846FEF7DCFDF8
:1020100000E00124204638BD38B505460020286080
:1020200007480468002C08D02046FEF7A7FD009062
:10203000006928606846FEF7C7FD204638BD0000ED
:10204000D001002038B5044600200D460860002C61
:1020500012D02046FEF792FD00908468002C08D034
:102060006846FEF7B1FD2046FEF788FD0090006946
:1020700028606846FEF7A8FD204638BDFFB5054636
:102080000026FF4897B006601F461396022D13D016
:10209000032D7DDB07AB0AA844D000241E46A10017
:1020A00000224250725003AB5A506B46641C5A5087
:1020B000032CF4DB0024B2E078681D68401B09F0B3
:1020C00071FC0446189803C8081A09F06BFC2146F5
:1020D00009F08AFBEB4C074666602060284609F051
:1020E00061FC394609F076FC0127FF077840E6607D
:1020F000A060209806684168881B09F053FC0546DB
:10210000199803C8081A09F04DFC294609F06CFB20
:1021100005462061304609F045FC294609F05AFC85
:102120007840ABE10026B400385909F03BFC694621
:1021300008512098005909F035FC03A90851189856
:10214000005909F02FFC07A908511998005909F006
:1021500029FC0AA9761C0851AE42E4DBA1E0A600E6
:10216000B85909F01FFC1090029909F0DBFA0290AF
:102170002098805909F016FC0F90059909F0D2FAC1
:1021800005901898805909F00DFC1290099900E00B
:10219000AFE109F0C7FA09901998805909F002FCDB
:1021A00006460C9909F0BEFA0C901098014609F009
:1021B00011FC009909F0B6FA00900F99109809F0F7
:1021C00009FC019909F0AEFA019003900F980146BD
:1021D00009F000FC049909F0A5FA049012991098EE
:1021E00009F0F8FB079909F09DFA079012990F98EA
:1021F00009F0F0FB089909F095FA0890314610981B
:1022000009F0E8FB0A9909F08DFA0A9031460F9817
:1022100009F0E0FB0B9909F085FA641C0B90AC42C5
:102220009DDB0299009809F0DFFA0090059901986A
:1022300009F0DAFA01900299039809F0D5FA0390AF
:102240000599049809F0D0FA04900299079809F0CA
:10225000CBFA07900599089809F0C6FA08900299F8
:102260000A9809F0C1FA0A9005990B9809F0BCFA8E
:102270000B90284609F096FB04462146029809F087
:10228000B3FA02902146059809F0AEFA059021466E
:10229000099809F0A9FA099021460C9809F0A4FAC6
:1022A0000C900599039809F061FC0446129002997C
:1022B000019809F05BFC2146119009F08BFB054663
:1022C0000599049809F052FC044610900299009870
:1022D00009F04CFC21460F9009F07CFB294609F0DF
:1022E00045FC05464000000E7ED0129C09990898D6
:1022F00009F03CFC2146159009F06CFB0746109C48
:102300000999079809F032FC0646214609F062FB5C
:10231000394609F02BFC294609F066FA594C206031
:102320003046119909F056FB06460F99159809F0A9
:1023300051FB314609F01AFC294609F055FA606054
:102340000899009809F046FB06460799019809F09C
:1023500041FB314609F00AFC059909F03BFB0746B1
:102360000799029809F036FB06460999009809F08A
:1023700031FB314609F0FAFB049909F02BFB0646C4
:102380000999019809F026FB0E900899029809F026
:1023900021FB0E9909F0EAFB039909F01BFB31467A
:1023A00009F0C0F9394609F0BDF9294609F01CFACF
:1023B000A060129E0C990B9809F0D8FB0746314695
:1023C00009F008FB064610980E900C990A9809F03F
:1023D000CDFB13900E9909F0FDFA314609F0C6FBCA
:1023E000294609F001FA00E052E0E06011991398E3
:1023F00009F0F0FA064638460F9909F0EBFA314633
:1024000009F0B4FB294609F0EFF920610B99009817
:1024100009F0E0FA06460A99019809F0DBFA31461C
:1024200009F0A4FB059909F0D5FA07460A99029824
:1024300009F0D0FA06460C99009809F0CBFA31461B
:1024400009F094FB049909F0C5FA06460C99019825
:1024500009F0C0FA0F900B99029809F0BBFA0F9996
:1024600009F084FB039909F0B5FA314609F05AF9ED
:10247000394609F057F9294609F0B6F9606103E0D9
:102480004C010020CC8300201B490120086002E0A1
:10249000139800282DD0184C2198606022980021B4
:1024A000A060084606F088FE0021E060084606F0BD
:1024B000A9FE206121982299401E491E06F07CFE4B
:1024C000606121982299401E491E06F09BFEA06182
:1024D0006269E168914201DDE260616121698142E6
:1024E00001DDA16120612068002802D000201BB01E
:1024F000F0BD0120FBE700004C010020FEB5944632
:102500002A4A0646556900206F07089CBF0F002E17
:1025100010D0012E01D00120FEBD244A20321160CE
:10252000614651600521A9433DD0012F3BD01146A2
:1025300010310CE01D4A183211606146516011469D
:102540001031032F05D005221540012D01D018C1EF
:1025500001E00C604B60154A01211378B14019422B
:1025600001D00023137013781943C9B211700329E5
:10257000D2D10F4C2068407C01F0FCF90546206860
:10258000407C01F011FA01460848029130300346C0
:10259000024601460090083B103A01951839022086
:1025A000FFF76CFDFEBD01493031D2E76C00002021
:1025B0001C00002001494861704700006C000020A9
:1025C000F8B5084E04460568306801682846884713
:1025D00007463068416828468847401920603846D9
:1025E000F8BD000020000020F8B50C460646002586
:1025F000054F05E0386841683046884736182D1881
:10260000641EF7D22846F8BD20000020FFB581B037
:102610000A9D14460646B06822464768641C304648
:10262000049B0299B8476D1EF5D105B0F0BD70B599
:102630000024045F091B0424045F8C422ADD022568
:102640000446455F0069521B424314341219C810F6
:102650008418CA18521ED3101D1A4B07FF215B0F96
:102660000846D8405207520F07239A1A9140CEB21B
:102670002178002D0FD001432170641C6D1E002DA8
:1026800005DDFF2229462046FDF7DEFE641920788D
:102690003043207070BD30400143217070BD10B5D3
:1026A0000023C35E0224C91A0346045F0069121B9B
:1026B00014334243D018CA1010184B0702785B0F2E
:1026C0008021D9400A43027010BD10B50621415E39
:1026D000026914305143FDF7BFFE10BDFFB510462F
:1026E0000F30001147001846784381B01C4615464C
:1026F0001430FEF771F9060013D0FEF73FFA009090
:1027000001990180029941808580C48006498160D9
:102710000121818107616846FEF756FA304605B00F
:10272000F0BD0020FBE70000F0F9000870B50626B8
:1027300004240546865F045F14350B6896421BDD52
:10274000006950434219D8108218A34214DA641E5B
:10275000E410251A10785C07640FA040C4B2521C24
:1027600007E0002D08D008331478DB08DB00521C8A
:102770006D1E002CF5D004E0002070BD6006040E34
:102780005B1C2006FAD5FF2C07D0184602E0640631
:10279000240E401C6606FAD400E0D81DC44364072A
:1027A00005D006E01478521CFF2C09D108306D1EAC
:1027B000F8D5C01A401C0B6070BD6206140E401C98
:1027C0002206FAD4F5E738B50546FEF7D7F90090AA
:1027D0008189491E0CB284816846FEF7F5F9002C08
:1027E00002D12846FEF712F938BDF8B516460F4655
:1027F0000546002432463946284600F0C2FD2D1811
:10280000002801D0641CF5E72046F8BD10B54FF450
:1028100000410248FEF7F2F810BD0000F801002068
:10282000044A1268111800BF024A12688A1A002A64
:10283000FADC70470400002070470000014800687F
:10284000704700000400002070470EB5002801D03A
:1028500002AA00E00022002301A9684600F06CFBF8
:102860000EBD000010B5074900280C7803D00120E8
:102870000870801E02E000200870034800F03CFE53
:10288000204610BD56000020FFFFFF0010B5082AAB
:102890000FDC0346012A19D0022A51D0042A6FD036
:1028A00002781A70001D491E5B1C0029F8D1012016
:1028B00010BD102A08DC024603881380001D491E43
:1028C000921C0029F8D1F2E7002010BD0278001D0B
:1028D000D207120E491E2ED00478001DE407640EA4
:1028E0002243491E27D00478001DE407A40E22438A
:1028F000491E20D00478001DE407E40E2243491E3F
:1029000019D00478001DE407240F2243491E12D079
:102910000478001DE407640F2243491E0BD004789D
:10292000001DE407A40F2243491E04D00478E407E5
:10293000E40F2243001D1A705B1C0029C6D1B6E7C4
:102940000278001D9207120E491E13D00478001D54
:10295000A407A40E2243491E0CD00478001DA4072E
:10296000240F2243491E05D00478001DA407A40F9C
:102970002243491E1A705B1C0029E1D197E7FFE74B
:102980000278001D1207120E491E05D00478001DA2
:102990002407240F2243491E1A705B1C0029EFD123
:1029A00085E738B50024009400F01AF838BD00001F
:1029B00010B50948816900290CD101218161FFF717
:1029C00025FF01F06DFA044904481C3108600846EF
:1029D00000F098FC10BD00001000002011930008CA
:1029E000F8B5069E0D460446002E00D106461F6827
:1029F000082A08DC012A18D0022A5FD0042A7DD0D8
:102A0000082A11D194E0102A05DC186984460028B0
:102A100003D0022391E00020F8BD01CCB8473080FC
:102A20006D1EB61C002DF8D194E001CCB847C0074C
:102A3000000E00906D1E3CD001CCB847009980017B
:102A40000843C0B200906D1E33D001CCB847009946
:102A500040010843C0B200906D1E2AD001CCB84797
:102A6000009900010843C0B200906D1E21D001CC36
:102A7000B8470099C0000843C0B200906D1E18D03E
:102A800001CCB847009980000843C0B200906D1E89
:102A90000FD001CCB847009940000843C0B2009065
:102AA0006D1E06D001CCB84700990843C0B26D1E18
:102AB00000903070761C002DB7D14BE001CCB847A8
:102AC0008007000E00906D1E1AD001CCB847009907
:102AD00000010843C0B200906D1E11D001CCB84770
:102AE000009980000843C0B200906D1E08D001CC50
:102AF000B84700990843C0B26D1E00E005E00090A1
:102B00003070761C002DD9D124E001CCB8470007E5
:102B1000000E00906D1E06D001CCB8470099084306
:102B2000C0B26D1E00903070761C002DEDD111E00A
:102B300018698446002806D001230A4620463146FB
:102B40006446A04706E001CCB84730706D1E761C85
:102B5000002DF8D10120F8BD7CB506462648134665
:102B600000680D4600280DD0002002F06BFC06E046
:102B70006A462946304603F0A7FA02F025FC0028F1
:102B8000F6D17CBD082219466846FDF7A4FB1B4C14
:102B9000684621680088CA6C8218684602804088AE
:102BA0000A6D8218684642808088CA6C821868461E
:102BB0008280C088096D41186846C18002F042FCDD
:102BC0000DE0694620680988418469464988818406
:102BD0006A462946304603F077FA02F0F5FB0028F2
:102BE000EFD12068418CC26C891A4184818C026DBE
:102BF000891A81847CBD0000580000201C00002040
:102C0000FFB5002095B00646014611901F981C465E
:102C1000016015460EAB002202A903A800F08CF952
:102C2000002802D0002019B0F0BD0E98844200DDCB
:102C30000446654F0F9438686449407C8200895887
:102C40000D9109690991FEF77DFB07903868407C7A
:102C5000FEF7BCFB5E490A90884204D05D49884279
:102C600001D0012000E00020109001CD1E9988477E
:102C70000690000E12907AD01198002846D115982F
:102C800081195148059101680820085E059988421C
:102C900002DD471A059000E000270D99B00008906A
:102CA000039A01918218B8000C90101800901599A1
:102CB0000F98169B0A180B921946521E0598FEF79C
:102CC000FBFF01201190079818280ADA0399089849
:102CD000099B41180C98079A0818E11B00F07EF830
:102CE00014E01098002811D00399089841180C9806
:102CF0000F1805990B98401A01900A99386888476F
:102D000001C70198401E01900028F6D13248C069E1
:102D100000282DD0B0000399029F4118C2192E4EF1
:102D2000029203912D1FF66923462846B047286872
:102D3000010EFF2905D003990968090EFF2902D069
:102D400003E003980068029908600398641E001D60
:102D5000039002982D1D001D0290002CE7D11F98B2
:102D600002970068012108431F99086029E019E0D3
:102D70001298FF2810D0FF210A1A0398B700C159F2
:102D8000069800F057FA0299C8511F98012100686F
:102D900008431F9908600FE00399B000029A095890
:102DA000115009E0029AB100069850501F9801682E
:102DB000012001431F980160641E761C002C00D086
:102DC00053E702982FE700001C0000203400002089
:102DD0002F3A00082D3A0008A8010020FEB50C1E6D
:102DE00016DDA60037185D680146082A11DC611E51
:102DF000012A21D0022A48D0042A71D0082A07D1FA
:102E00000619761E3078A8473F1F3860641EF8D137
:102E1000FEBD102AFCDC5E69002E03D00223224690
:102E2000B047FEBD61000E18B61E3088A8473F1F90
:102E30003860641EF8D1FEBDCA104E071018017824
:102E4000760F401E02908020F04001913F1F0090BD
:102E50000099019808400721891BC840A84738609D
:102E60003F1F002E07D000984006000E761E0090EF
:102E7000641EEDD1FEBD02980726007801900298ED
:102E8000401E029001200090F2E78A108E07101871
:102E90000178401EB60F019102907100C020C84019
:102EA0003F1F009000990198720008400621891A7E
:102EB000C840A84738603F1F002E07D00098800602
:102EC000000E761E0090641EECD1FEBD02980078C4
:102ED00001900298401E032600960290F3E7FFE758
:102EE000491008180178401E0126A643019102905E
:102EF000B100F020C8403F1F009000990198B20037
:102F000008400421891AC840A84738603F1F002E96
:102F100007D000980007000E761E0090641EECD1CA
:102F2000FEBD02980126007801900298401E029092
:102F30000F200090F2E70000FFB5294C0646A0697B
:102F4000002581B01F46002808D10120A06121463C
:102F5000244820310860084600F0D4F96069002850
:102F600007D1214800686061002802D100F0E7FC29
:102F70006061002F00D03860002E0BD0A0680028C0
:102F800007D160698000FDF76DFDA060002800D1C9
:102F900001253060029800280DD0E068002807D194
:102FA00060698000FDF75EFDE060002800D101252A
:102FB000014602980160039800280DD0206900287E
:102FC00007D160698000FDF74DFD2061002800D128
:102FD0000125014603980160284605B0F0BD0000B8
:102FE000A8010020999300084C00002073B5134AF3
:102FF00001A91268009890470024009000281BD077
:103000000F4900250968C969496900290CD00A6877
:10301000002A09D0019990477CBD6846FFF7D0FA95
:103020000546FEF79FF904190198401E0190F4D55A
:10303000284600F035F8041920467CBDF401002034
:103040001C00002073B5009800240D46002815D000
:103050000B490968C969496900290DD04A68002AE5
:103060000AD0294690477CBD6846FFF7A9FA002898
:1030700004D00A2802D0641CAC42F5DB20467CBD9B
:103080001C000020044B00229A5E0260034A0020CC
:10309000105E0860704700005C0000205E000020A9
:1030A00038B5002469460094FEF764F9009981421E
:1030B00000DD0C1A204638BD00230022C35E8A5E64
:1030C000934200DA028002230222C35E8A5E9342A8
:1030D00000DA428004230422C35E8A5E934200DD4C
:1030E000828006230622C35E8A5E934200DDC28090
:1030F000704770B5002400230C5FD35E9C4200DD56
:1031000023460380022502244D5F145FA54200DDA3
:103110002C464480042504264D5F965FB54200DAB4
:103120002E46868006254D5F0621515E8D4200DBCE
:103130000D46C5809E4201DBA54201DA002070BD2C
:10314000012070BD014610B502480068407C00F0C7
:1031500003F810BD1C000020F3B5012681B007461E
:10316000022863DA324D6A68002A01D0029990473A
:103170002F4802991030BC00002933D0012902D019
:10318000022953D118E005460059002811D13846CC
:10319000FDF748FF0090002848D0C0680D21426A22
:1031A00068469047020041D00299009890472859FC
:1031B0000026401C285139E03846FDF733FF0090C7
:1031C000002833D0C0680D21426A68469047040049
:1031D0002CD02868002800D0804702990098A0478A
:1031E000002623E0124810300059012814D1384637
:1031F000FDF718FF009000280ED0C0680D21426A2C
:1032000068469047070007D02868002800D080470C
:1032100002990098B8470026054810300159002946
:1032200001D0012200E00022891A01513046FEBD82
:103230001C010020F0B50B0E9C46FF2B29D0FF256A
:103240002D022E02044634400346C7B2060E2B4020
:10325000FF205743534354435643801ACAB2424354
:10326000D7190A462A404243D2182B02194041433B
:103270006346091943433804120A090A9B19000ED0
:10328000090C2A4009041B041B0E10431B060843AB
:103290001843F0BDFEB5064615460C4600200190C9
:1032A0000B9988421FD20A98009080CE01CC0290E0
:1032B000390EFF20401A0C994843FF2108F0D1FC39
:1032C000C2B238460299FFF7B5FF0002000A01C5F5
:1032D0000098401E00900028E7D10898800004194B
:1032E0000198401CDBE7FEBD0B889B1803808B8890
:1032F0009B1A83804B889B184380C988891AC18098
:103300007047000002494A69426048617047000006
:1033100010000020F3B5076881B006460025384646
:10332000029900F0C5F8002829D0029800F0D1F8E1
:10333000441C3846FDF714FC84420DD1002C1ED0ED
:103340003846FDF71BFC224600900299FCF7C3FFAC
:103350006846FDF739FC11E02046FDF737FB040015
:103360000DD0FDF70BFC00900299FCF771FF684649
:10337000FDF72AFC3046FDF76DFB34600125284639
:10338000FEBD10B5044600F00AF801462046FFF7DE
:103390002BF910BD10B5002307F058F810BD77B514
:1033A00081B015460E466B46019807F04FF804466B
:1033B00001460198FFF718F901994018019001A8FA
:1033C000FFF7FEF80A2802D0012D02D012E0641C9B
:1033D00010E020280ED1FDF7C5FF054607E0401993
:1033E000009001A8641CFFF7EBF8202802D1009898
:1033F0008642F4DA204604B070BD000010B502E049
:103400000170401C521E002A01D08307F8D1930896
:1034100015D092070B4C920F4C4305E004604460BA
:103420008460C46010301B1F042BF7DA01E010C069
:103430005B1E002BFBD102E00170401C521E002AD3
:10344000FAD110BD0101010110B5830702D5018039
:10345000801C521E530810D00C040C19042B08DBDE
:10346000046044608460C46010301B1F042BF7DAD2
:1034700001E010C05B1E002BFBD1D20700D0018001
:1034800010BD0000002800D108A0002905D107A127
:1034900003E0002A07D0401C491C02780B789A42AE
:1034A000F7D00120704700207047000000000000A6
:1034B00038B501240D46002809D0FDF75FFB2946E9
:1034C0000090FFF7DFFF04466846FDF77DFB2046CE
:1034D00038BD0021C943002804D00278401C491C93
:1034E000002AFAD1084670474AF6AA200149086026
:1034F00070470000003000400249024608680A6038
:1035000070470000E40100200449054A0968497C2D
:103510008900515809690968084700001C0000200B
:1035200034000020F0B505468DB00020039080489F
:10353000169C00681E4617468446002810D0149A30
:10354000159B17980393049402920590139A12986E
:10355000019200906046046833463A46284680E06F
:10356000E819401E8646139A12988B1910435B1E69
:10357000012807D014980822101A05900020029103
:103580000990D1E06B480A220068825E8446501A96
:10359000002806DD361A002E64DD1146159A5043C8
:1035A000041962460E20105E181A002802DD361A31
:1035B000002E57DD10460C22825E7046801A0028CD
:1035C00000DD3F1A634608229A5E0020AA4233DDDE
:1035D000501B149A3F1A082A26D006DC012A0BD069
:1035E000022A11D0042A27D116E0102A1ED0182A48
:1035F0001ED0202A20D11BE0C2101419C208D2000C
:1036000055194007400F17E08210141982089200E4
:1036100055198007800F0FE042101419420852001C
:103620005519C007C00F07E0241803E0420000E06E
:10363000820014192D180020002F13DD179A05920F
:103640000490159B14980190039402930096604691
:10365000407C3B46820038488058C26854680A461D
:103660002946A0470DB0F0BD139902980A234018CF
:103670000C90401E2F4901900A68D35E83424BDCB8
:103680000E21515E0298814246DB00200095079092
:103690000A9408903EE00798002807D10A9800781D
:1036A00003900A98401C0A900820079005990398F7
:1036B000149AC84003999140C9B203910799891A95
:1036C0000791002804D11B490968097C890719D48E
:1036D00018490968C96B0A680B92179A002A02D028
:1036E000820017988058086000991298019B0A1868
:1036F000521E0299009800F0A9F80E480B99006834
:10370000C06B01600898401C0890129900984018FE
:1037100000900898B842BEDB0998401C09900C98AC
:103720000290159824180998B0429DDB9AE7000092
:10373000580000201C0000203400002030B4124B40
:103740000A241B681C5F8C421CDC0E241C5F8C420C
:1037500018DB08241C5F844200DD20460C241C5F1B
:10376000944200DA224682420CDB5B7C9C00074BD1
:103770001C59E3689D6813460A4601462046AC463C
:1037800030BC604730BC70471C0000203400002073
:103790000A4630B416490A230968CB5E934225DCF9
:1037A0000E23CB5E934221DB0823CB5E83421DDCDC
:1037B0000C23CB5E834219DB0B7C0E4CDB0709D05C
:1037C000497C89006358D968CC690146A44630BC5D
:1037D00018466047CB6B497C1B6889006458E168D8
:1037E0008D6901462046AC4630BC604730BC70470E
:1037F0001C0000203400002030B405461148082386
:103800000068C35EAB421BDC0C23C35EAB4217DB1C
:103810000A23C35E8B4200DD19460E23C35E93422A
:1038200000DA1A468A420BDB407C83000648C05807
:10383000C368DC6813460A462946A44630BC604784
:1038400030BC70471C0000203400002038B505460D
:10385000124808240068045FAC4200DD25460C24B1
:10386000045F944200DA2246AA4216DB0A24045F6F
:103870008C4200DD21460E24045F9C4200DA234680
:103880008B420ADB0093407C83000548C058C36824
:103890001C6913460A462946A04738BD1C00002073
:1038A0003400002010B5082105F07EF910BD00009D
:1038B00002480068806B0068704700001C00002010
:1038C00002480068C06B0068704700001C000020C0
:1038D00010B5034809210068407C05F065F910BD6A
:1038E0001C00002010B5092105F05EF910BD70B56F
:1038F00000252C462046FDF795FB002800D06D1CC6
:10390000641C022CF6DB284670BD000010B503488D
:103910000068407C00F004F810BD00001C0000208E
:1039200010B5FDF77FFB002803D0C168CA6A0221E9
:10393000904710BD10B5032105F036F910BD10B544
:10394000032005F0C5F910BD10B5042105F02CF9D0
:1039500010BD000010B5034801210068407C05F04F
:1039600023F910BD1C0000200148006870470000CA
:10397000AC00002010B5012105F016F910BD10B5FE
:10398000012005F0A5F910BD10B50348022100681B
:10399000407C05F009F910BD1C000020014840687A
:1039A00070470000AC00002010B5022105F0FCF8C3
:1039B00010BD10B5022005F08BF910BD10B500F058
:1039C00001F810BDF8B500280CD08668002E08D08C
:1039D0000E494A68002A04D00468FF20013084425E
:1039E00001DD0020F8BD0868844200DD04460025A2
:1039F00007E0AF00F059FFF787FD04496D1C4968E7
:103A0000C851A542F5DB01484068F8BD78010020A7
:103A10000449054A0968497C89005158096949687F
:103A2000084700001C000020340000207047704749
:103A300010B5C20643050749074C9B0E0004D20E81
:103A4000E35CC00E8A5C085C190208181104401877
:103A500010BD00009CE50008BCE5000810B50B4C4B
:103A6000606800280DD120688000FCF7FBFF6060D3
:103A7000002808D021460648083108600846FFF7AC
:103A800041FC002010BD012010BD00007801002085
:103A900085930008F8B5FFF72AFF074600242BE0BE
:103AA0002046FDF7BFFA002825D015480068417C64
:103AB000009144742046FFF7F5FE082817DC1149F1
:103AC000A000085810490069884210D02046FFF72E
:103AD00009FF0646002508E0E8B2FFF799FF024615
:103AE000E9B2204600F058F96D1CB542F4DB0449F8
:103AF000009809684874641CBC42D1DBF8BD000022
:103B00001C00002034000020E0F00008FFB583B066
:103B10000D981646C0680C9C426A4769002A0ED070
:103B200001210DA89047050009D006980090334662
:103B30000194049A03990D98A84707B0F0BD58481E
:103B40000068407CFDF7FEFB0190082801DC0120A5
:103B500004E0102801DC022000E004200025009091
:103B600098E00098012804D002286FD0042824D1BE
:103B70007DE00198030007F00DF9098A06213E3E19
:103B8000575757578A00039814E00146049A0D9836
:103B9000B8470721491B8840424A2178EA40114032
:103BA00001436D1C2170E8100419E808C0000541AC
:103BB0000298401C0290B042E7DD68E0039816E0EE
:103BC0000146049A0D98B8476A000621891A884070
:103BD000344B2178403BD340194001436D1C217088
:103BE000A8100419A808800005410298401C029002
:103BF000B042E5DD4BE0039812E00146049A0D98CF
:103C0000B847AA000421891A884021780F239340DD
:103C10001940014321706419012045400298401C5D
:103C20000290B042E9DD32E0039802900AE00146DA
:103C3000049A0D98B84720700298401C0290009892
:103C400024180298B042F2DD21E0FFE703980290C9
:103C50000AE00146049A0D98B84720800298401C5B
:103C60000290009824180298B042F2DD0FE0039809
:103C700002900AE00146049A0D98B8472060029825
:103C8000401C0290009824180298B042F2DD04987B
:103C9000401C049004990698814200DC61E74CE7DF
:103CA0001C0000207FFF000010B50E4C0E4920685C
:103CB000407C8000085800280BD0C168002902D041
:103CC0000968042901D00068F5E7002801D0FDF754
:103CD00091F920680021016601460831416100F038
:103CE0002FF810BD1C000020340000200149096895
:103CF0004968084774010020044909680A7C520792
:103D000001D5C96B00E0896B086070471C0000207A
:103D10007CB5094C05462068407C81000748405826
:103D2000C1680A6B6946904720686A462946083090
:103D3000FFF7DFF97CBD00001C00002034000020EC
:103D400004480168487C8200034808318058C268F2
:103D5000126B10471C000020340000200149096844
:103D60000968084774010020044909680A7C520761
:103D700001D5896B00E0C96B086070471C0000200A
:103D8000014A03C270470000AC00002001490968E5
:103D90008968084774010020F8B515460E460124CD
:103DA000FDF740F9009000280BD0C0681021426A4E
:103DB00068469047030004D02A4631460098984749
:103DC00000242046F8BDF8B515460E460124FDF73F
:103DD00029F9009000280BD0C0680321426A684688
:103DE0009047030004D02A463146009898470024A3
:103DF0002046F8BDF8B515460E460124FDF712F928
:103E0000009000280BD0C0680B21426A684690479A
:103E1000030004D02A4631460098984700242046E3
:103E2000F8BDF8B515460E460124FDF7FBF80090E5
:103E300000280BD0C0680A21426A684690470300F8
:103E400004D02A4631460098984700242046F8BD01
:103E500038B50D460124FDF7E5F8009000280AD09A
:103E6000C0680621426A68469047020003D029468E
:103E7000009890470024204638BD000010B5074C3C
:103E80002068006BFFF740FBFFF76EFF2068406B78
:103E9000FFF73AFBFFF730FF10BD00001C000020C9
:103EA00008B500231A4613491348FDF743F84FF4A9
:103EB000A072F0210020FFF79DFF4FF4A072F021C7
:103EC0000020FFF7AEFF0020FEF774FB40F21F302A
:103ED00000230246194600901846FEF70FFB40F2F9
:103EE000DF1000230246194600900120FEF706FB72
:103EF00008BD000010E50008A8BC00082DE9F0414D
:103F000006460C4617460025012C04D0052C07D088
:103F1000062C07D105E005F093F80020BDE8F081FC
:103F200003E002E04FF0FF3500BF00BF2846F5E791
:103F3000FFB517466C4A8BB012680024189E1A9879
:103F40001D46002A11D0169B199802930590159BC7
:103F500014980193179C00900496039414682B46C0
:103F60003A460B98A0470FB0F0BD4A19521E96462C
:103F70000B9A159BD219521E0092149A1A43012AC9
:103F800007D016980822101A00910590002007907B
:103F9000A7E0564A0A231268D35E94465A1A002AAA
:103FA00006DDAD1A002DDEDD1946179B5A43961922
:103FB00062460E23D35E7246D21A002A02DDAD1A83
:103FC000002DD0DD62460C23D35E009AD21A002A5F
:103FD00000DDBF1A0B9A6346141A08229A5EA242A9
:103FE0000ADD131B1A18FF1A101AD310C0089E19E5
:103FF000C00004195007400F002FB4DD179B029337
:104000000490199A169805920190039600956046BF
:10401000407C3B46820036488058C26855680A4654
:104020002146A8479FE7159900980A234018099050
:10403000401E2E4904900A68D35E834249DC0E215B
:10404000515E0098814244DB002002900B98019061
:104050000020039606903AE00298002805D10398C4
:104060000478401C03900820029005992046C8401F
:104070001699169A8C400299E4B2891A0291002886
:1040800004D11A490968097C890718D417490968B5
:10409000C96B0A680892199A002A02D082001998FE
:1040A0008058086014990198049B4218521E009988
:1040B000FFF7CCFB0D4908980968C96B08600698A2
:1040C0001499401C06900198401801900698B84237
:1040D000C2DB0798401C0790099800901798361883
:1040E0000798A8429FDB3EE7580000201C000020F4
:1040F00034000020002818D0410817D0810817D0BC
:10410000C10817D0010917D0410917D0010A17D0EB
:10411000410A17D0010B15D0C10B13D0010C11D0DF
:10412000810C11D0000E11D0202070470120704763
:104130000220704703207047042070470520704715
:1041400008207047102070471220704718207047D1
:1041500000B50022FFF7CEFF012804D0811E0629FA
:1041600003D808220BE0012209E00146093907299A
:1041700001D8102203E011380F2800D82022104661
:1041800000BD000002480068401C014908607047FB
:104190000400002010B500F001F810BD0CB500209F
:1041A000019000902A48006840F480302849086057
:1041B00000BF2748006800F4003000900198401CC0
:1041C0000190009818B90198B0F5A06FF1D120487E
:1041D000006800F4003010B10120009001E00020E0
:1041E00000900098012831D119484068184948606A
:1041F000084640684860084640684860084640688D
:1042000020F47C1048600846406840F498104860EC
:104210000846006840F08070086000BF0C480068E5
:1042200000F000700028F9D00948406820F0030031
:10423000074948600846406840F00200486000BFF7
:104240000348406800F00C000828F9D10CBD0000BC
:10425000001002400448006820B103480068401E76
:1042600001490860704700000000002010B51448A4
:10427000006840F001001249086008464068114992
:1042800008400F494860084600680F4908400C493B
:1042900008600846006820F48020086008464068EE
:1042A00020F4FE0048604FF41F0088600020C862C0
:1042B000FFF770FF4FF000600449086010BD000078
:1042C000001002400000FFF8FFFFF6FE08ED00E0DE
:1042D00038B5446805460146204600F0D7F8002866
:1042E0001AD028680B2818D00F2812D0092189016C
:1042F00088421CD1E868002806D0007A002801D046
:10430000012102E0022100E00321204600F0D4FD5B
:104310000DE0204605F054F838BD2046FCF72EFC91
:1043200000904430FCF796FB6846FCF74DFC2846AD
:1043300000F052FB38BDF0B51446082587B0455F44
:10434000428A87694668059702AF64C702220192D4
:1043500000910C21415E1025C9180A230E22C35E6C
:10436000455F825E18192B4600F002F807B0F0BDD9
:10437000F0B585B08C460AAF52CF86460F9801271C
:104380003C4320301A4F009103900E9D02970194F8
:104390006146704600F072FA070026D00024002D16
:1043A00010D02846FBF778FF401CFCF715FB0400F3
:1043B00008D0FCF7E3FB29460190FBF749FF01A871
:1043C000FCF702FC3846FCF7D9FB002200900D995F
:1043D00000F022F90098482144640E52054C343014
:1043E0001ECC1EC06846FCF7EFFB384605B0F0BD9A
:1043F000D14200089001002038B50C4605000CD0D1
:10440000FCF7BCFB0090416BA14203D044632846FB
:1044100000F0EAFC6846FCF7D7FB38BD7CB5012408
:104420000E46054600281DD0FCF7A8FB0090406C06
:1044300001906846FCF7C8FB314601A8FEF76AFF09
:1044400000280FD000242846FCF798FB0090426C0F
:1044500001998A4200D041646846FCF7B5FB2846C2
:1044600000F0C2FC20467CBD10B54FF08040008AB1
:1044700000F0010048B1FFF785FE4FF08040008A50
:1044800020F001004FF08041088210BDFEB50125EB
:104490000C46064600285CD0FCF770FB01902168B2
:1044A000162958D008DC0D293FD011292FD0142906
:1044B0007DD0152947D126E000271E294ED01F297F
:1044C00070D031291DD00322120291423BD1C16A22
:1044D000E2680968C26210680C1A01A8FCF774FB54
:1044E0003046FCF74BFB6242234611460094029093
:1044F00001F0CEFA02A8FCF767FB304600F074FC2E
:1045000020E0E7601EE03021415EE1601AE0408E6D
:10451000C00618D5E068007A002814D001A8FCF77E
:1045200053FB304600F0A0FD0DE0E068C0680028B5
:1045300009D0007A002806D001A8FCF745FB3046D8
:1045400000F098F900250198002802D001A8FCF796
:104550003BFB2846FEBDA1890186F3E7E1680129FE
:1045600007D0408E41084900304600F038F8092550
:1045700009E0418E0125C80600280EDA294330469D
:1045800000F02DF8082501A8FCF71EFB294630464F
:1045900000F092FCB5E70AE004E001A8FCF714FB88
:1045A000E560CFE7408EC006C00FE060CAE7E16873
:1045B00000F026F8C6E738B50C4605000ED0FCF72B
:1045C000DDFA0090418E22468A4304D02143418681
:1045D000284600F009FC6846FCF7F6FA38BD38B505
:1045E0000C460546FCF7CAFA0090418EA14203D062
:1045F0004486284600F0F8FB6846FCF7E5FA38BD2B
:1046000070B50C46054600F0A8FEE86A214602682F
:104610000846FEF769FE70BD024B1B68C362428606
:1046200001867047A0010020FEB545680446284673
:10463000FCF7A4FA0090816B0191076C466B684609
:10464000FCF7C2FA20681F2833D006DC0E2857D0AA
:104650000F2862D01E2868D112E020282ED02228F0
:1046600068D02A2861D12846FCF788FA0090E168D2
:10467000002901D0C16301E0C06BE060684634E00E
:10468000E068012810D1019800F00EFC00280CD041
:10469000019800F0E9FC019800F0F8FA002803D036
:1046A00001210198FFF787FFFEBD284600F02CFD91
:1046B000FEBD21462846FFF7E9FEFEBD2846FCF771
:1046C0005DFA0190E468002C0ED02946606801F084
:1046D00020F800280CD02946606801F008F800286E
:1046E00002D060680199886301A8FCF76DFAFEBDED
:1046F0002946206800F0FBFF0028F5D02068F1E78C
:10470000E0684168002910DD00680928CDD00A283A
:104710000BD1284600F001FDFEBD0948874204D0B8
:104720003846FFF7E3FAFCF755FB002E204603D08E
:10473000B047FEBDE760FEBD00F04EF9FEBD0000D3
:10474000FFFFFF0FF0B587B0144608250C9E455FAC
:1047500000228769029203AAE0C2428A0192009174
:104760000C21415E1025C9180A230E22C35E455F45
:10477000825E18192B4600F003F807B0F0BD000068
:10478000F0B585B00F9C104F0A9E0B9D1834029710
:1047900000960195039400F071F8040011D0FCF725
:1047A000EDF9102204900D99FFF736FF04980E9949
:1047B00041630021816305490968016404A8FCF78D
:1047C00003FA204605B0F0BD29460008B4000020D9
:1047D00038B50C460546FCF7D1F9009004646846EC
:1047E000FCF7F2F9284600F0FFFA38BD0248012133
:1047F00000684030017570471C000020F0B589B09A
:10480000040035D0FCF7BAF9019006C8059204916E
:10481000076A856901A8FCF7D7F9204600F0F4FD86
:10482000060025D0204600F01EFA0290B80704D5F5
:104830002A4604A8029900F055FF2046FCF79EF98D
:1048400001900298FCF79AF906903046FCF796F929
:10485000039005620698019AC1691162C46101A8BA
:10486000FCF7B2F906A8FCF7AFF903A8FCF7ACF91E
:1048700009B0F0BD10B501F035FA10BDFFB507461F
:104880004C4887B0119C8069109D04430E46002D52
:104890000AD14848408800282AD047480068407C10
:1048A0008100444844304558681C0FD0002D1FD06B
:1048B0002846FCF763F9029000210222415E825EE5
:1048C000099BCF199619002B02D006E000250FE0B6
:1048D0000423C35E591A491C09910A99002904D17D
:1048E0000621415E881A401C0A9002A8FCF76CF968
:1048F00013982C30FCF770F80490002856D02D48FF
:104900002C494088401C48800498FCF737F90090F7
:10491000078046800999294A7918491E81800A9999
:1049200022407118491EC18012990161816A1143A8
:1049300081626846FCF748F91E48049E0069002819
:104940000AD0FCF759F907463046FCF755F90146FD
:10495000786948617E6101E016480661294604983D
:1049600000F0EEFDA00602D5049800F03DFBE00744
:1049700003D01048416A491C4162600602D5049880
:10498000FFF73CFFA0070DD50498FCF7F7F800905F
:10499000816A0222114381626846FCF715F9049886
:1049A00000F022FA0121049801F06BF804980BB092
:1049B000F0BD0000B80000201C0000209F3F3F0019
:1049C00010B504480021006840300175FFF7B8F9C0
:1049D00010BD00001C00002010B50446226840688D
:1049E000E168172A0DD004DC0E2A0CD0142A07D156
:1049F00004E0222A0BD0282A02D10AE000F09DFC14
:104A00000020E06010BD214600F016FB10BD0248FA
:104A1000F7E700F0E9F910BDFFFFFF0F38B504001C
:104A20000BD0FCF7ABF800900068FDF7D5FA6846AC
:104A3000FCF7CAF82046FBF7E9FF38BDF8B50500DA
:104A400069D000F081FE002865D0284600F0EEFC19
:104A500007460B21284601F014F8284600F01BFCFD
:104A60002846FCF78BF80090406A002801D0FCF73C
:104A7000A7FD294C00216163E068224680005C327A
:104A80001358AB4200D11150234A54321358AB4251
:104A900000D11150606904E04368AB4200D141602D
:104AA00000680028F8D10721284600F005FA009890
:104AB00001F0F0FA284600F015FC20690CE0FCF744
:104AC0009BF8064640692946A84205D10846FCF7EE
:104AD00093F84069706101E00028F0D10098806A85
:104AE000C10702D0616A491E6162800602D5A088B2
:104AF000401EA0806846FCF767F86088401E608012
:104B00002846FBF783FF002F05DB0349B80044313B
:104B1000085800F069FAF8BDB8000020F8B51E4C3E
:104B20000025206B002802D0804700E0012503F01B
:104B300063FA0028FAD1194E30684030007D002811
:104B400009D0A088002806D0206A0127002804D0B8
:104B50000068804704E0002702E00120FEF7F2FA37
:104B600030684030007D002809D0A088002806D099
:104B700002F0E6FFA088002801D00125F0E7002F11
:104B800008D0206A002802D04068804702E0002058
:104B9000FEF7D8FA2846F8BDB80000201C00002017
:104BA00010B500F0B4FB10BD014610B50448006814
:104BB000002802D103480068806C00F005F810BDA1
:104BC000E00000201C00002010B500F0B6FB10BD76
:104BD0001FB50021039117210091694600F022FAC8
:104BE000039804B010BD0000034804490068407CED
:104BF00080000858704700001C000020FC000020C6
:104C0000024610B50020002A02D0104604F010F829
:104C100010BD10B5002802D0FBF7EEFFC06910BD33
:104C2000024803490068800008587047C40000200B
:104C300014010020014610B50020002905D00846C7
:104C4000FBF7DAFF008DC007C00F10BD1FB50021B4
:104C500001910291039115210091694600F0E2F95A
:104C6000039804B010BD10B5002802D0FBF7C4FFB4
:104C7000806910BD014610B50020002905D0084606
:104C8000FBF7BAFF01460020085E10BD0549064A41
:104C9000096889005158814201D1012070470020E4
:104CA00070470000C400002014010020F0B5274D1B
:104CB00085B06878002846D100272F6124486F63AB
:104CC00000682E464764AF806F803C4644362046DD
:104CD000FCF7A8F9002814D00221CA1E1D48009232
:104CE00001910290920C0021039713460846FFF7AA
:104CF000C5FD164BA1007050174A4C335A5000F0B6
:104D000073F8641C022CE2DB00241448E700381816
:104D100000F088FA1248381800F084FA1148381860
:104D200000F080FA641C022CEFDB306800F05CF9C4
:104D3000FFF75CFD0120054968700B483C310860B5
:104D40000846FEF7DFFA05B0F0BD0000B80000200D
:104D50001C000020B1AD0008FFFFFF0FFC83002006
:104D60000C8400201C8400205593000870B586B088
:104D70000E4605002DD0FBF701FF0090846AA107C5
:104D800024D503C801900291E00302D5284600F023
:104D90002FFC002E0CD00822314603A8FBF79BFA0B
:104DA00003A9009800F046FA03A901A8FEF784F9C8
:104DB000294601A800F048FA002807D00948044015
:104DC000012C08D001A9284600F00CFC6846FBF72E
:104DD000FBFE06B070BD0098026A816901A800F070
:104DE00081FCF3E70108000010B50021FFF7BEFFCA
:104DF00010BD10B504000FD0FFF7F6FF2046FFF7F7
:104E000008FF044606E02046FFF7F3FF2046FBF7C5
:104E1000F3FE046A002CF6D110BDFEB515460E4611
:104E200004001CD0FBF7AAFE02460090008D80070C
:104E300012D5314601A8FEF75CF900280CD068466F
:104E4000FBF7C2FE2A4601A9204604F067F9204676
:104E5000FFF7DFFE04460CE06846FBF7B5FEFEBD3B
:104E60002A4601A92046FFF7D8FF2046FBF7C4FEDB
:104E7000046A002CF4D1FEBD7FB50024054600284D
:104E80000FD0FBF7B9FE806A81070AD5C00608D4A7
:104E9000002003901F2000906946284600F0C2F8C9
:104EA000039C04B0204670BD10B500F04DFC10BD51
:104EB00010B500F05BFC10BD1FB5262203910092D7
:104EC000694600F0B9F81FBD10B50B4B02461B68D0
:104ED00000209C00094B86B01B59002B0AD005917D
:104EE0000E20009004A8039004926946184600F032
:104EF00097FD012006B010BDC40000201401002061
:104F000070B50546164608468AB00C46304369D04F
:104F1000002D67D02846FBF731FE059006C80838FB
:104F20000391049202920191002C0DD0816A0A062D
:104F300006D5890504D46A469188091B918003E04F
:104F40006A46118909191181002E0DD0816ACA059E
:104F500006D5490504D46A46D188891BD18003E06F
:104F60006A46518989195181806AC00302D5284651
:104F700000F03EFB01990598029A06C0008C80075C
:104F80000AD501AA03A908A8FCF744FE0598026AFD
:104F9000816908A800F0A6FB68460A211222415E3A
:104FA000825E0C24881A0090684608211022415E17
:104FB000825E045F8B1A06210E22415E825E8A1A8F
:104FC0000421415E0598091B00F062FD0599084621
:104FD0000830FEF771F80521284600F052FD05A8BB
:104FE000FBF7F2FD0AB070BD70B50C4D04002868E7
:104FF000866C01D10A490C698464204600F007FDE3
:10500000FEF79EFE2046FBF7F7FD00222968825E30
:10501000CA640222825E30460A6570BD1C00002010
:10502000B800002010B5002801D000F0F9FC10BD38
:1050300010B500F013FD10BD70B50C00054607D08B
:10504000FFF711FE002803D02146A56000F0E8FC20
:1050500070BD000010B5FBF735FB02490020096860
:10506000486410BD1C000020F0B50446002087B045
:105070000290039004900590002C3DD0204D214ECD
:10508000286880003058A04236D01E210194029139
:105090000090002802D002A900F0C2FC0120059077
:1050A00002A9204600F0BCFC0598002802D128681F
:1050B00080003450059F20266D46002F05D01CE04F
:1050C00002A90296059500F0ABFC2046FFF7CBFD48
:1050D0000400F5D1009C2046FFF7E6FE002805D12C
:1050E0000BE002A90296059500F09AFC2046FFF716
:1050F000BAFD0400F5D100E00127384607B0F0BD45
:10510000C400002014010020014610B50020002931
:1051100002D0084604F0ACFB10BD70B5014600207B
:10512000002919D0084600F02DF903F04EFE05467F
:105130002C4605E0204603F048FE0446A84205D070
:10514000FFF79AFE002801D1002CF3D12046FFF78B
:105150008BFF002801D0002070BD204670BDF8B53F
:1051600016460C46050018D0FBF708FD00900421F8
:105170000022415E825E891A641A06210222415E83
:10518000825E641E881A361A6846761EFBF71CFD7E
:10519000324621462846FFF7B3FEF8BD10B5044954
:1051A00009684C6C486400F019F8204610BD0000F6
:1051B0001C00002038B504000ED0FBF7DFFC009087
:1051C000816A8A0705D40222114381622046FFF7D3
:1051D00010FE6846FBF7F8FC38BD00000EB50E481F
:1051E00054210068095C002901D00C4811E0806C52
:1051F000FBF7C4FC009003C8019002916846FBF7DE
:10520000E3FC0748816A002902D001A800F01CF8DD
:1052100001A804F0E1FA0EBD1C0000206483002008
:10522000B800002002490A68026008607047000068
:10523000CC00002010B50B4602220021825E415EA8
:105240001846FCF714FD10BD38B50C46054620463F
:10525000FBF794FC01460090008D800703D468465C
:10526000FBF7B2FC13E02846FDF726FF00988069A3
:10527000002804D004466846FBF7A6FCE7E768462A
:10528000FBF7A2FC204600F00FFF002801DA002007
:1052900038BD012038BDF8B505466846FCF7BCFEB0
:1052A0001CE001212046FCF7A3FE0099002911D043
:1052B00000280FD00846FBF79FFC4068A84209D1A0
:1052C00069462046009EFCF7BDFE04463046FFF7C7
:1052D000A5FB04E069462046FCF7B4FE0446002C1A
:1052E000DFD1F8BD38B50446FBF748FC0090816972
:1052F000002908D0026A00F0F5F9204600F068FBAA
:105300000099002088616846FBF75EFC38BD70B5E7
:1053100016460D46FBF770FCC4690BE0314620468B
:10532000A847324629462046FFF7F1FF2046FBF703
:1053300063FC046A002CF1D170BD38B50C4600281E
:105340000AD0002C08D0FBF719FC2146009000F091
:1053500004F86846FBF738FC38BD00224A800A8012
:1053600082880388D21A8A80C2884088101AC8802E
:10537000704710B5FFF777FC002802D0FBF73CFC24
:10538000C06910BD70B5084D01462868074E800001
:105390000024305800F0C5F9002802D028688000A9
:1053A0003458204670BD0000C400002014010020C5
:1053B00010B5040006D0FBF71FFC006A002801D0DE
:1053C0000446F8E7204610BD10B50D48006840308F
:1053D000007D002806D00B4C6069012803DD401ECB
:1053E0006061002010BD2069401C206102F0FEFFBA
:1053F000002803D0FFF7F2FE012010BD6069EEE740
:105400001C0000205C83002070B50546FFF7B1FF4B
:1054100008E0AC4201D1002406E0FBF7EDFB006A96
:10542000A84201D00400F4D1204670BD10B5044656
:10543000FBF7E2FB80690028F9D1204600F034FE3A
:1054400010BD0000F0B53B4E074630685421095CA2
:1054500087B0002908D0384C6169491C6161012975
:1054600005DD012007B0F0BDFFF7B8FEF9E7806C5D
:10547000FBF784FB0021C9430090304D216129785E
:10548000002906D0014602A808220831FAF723FFB6
:1054900005E0018D89073ED503C803910290002FD6
:1054A00003D0394602A8FDF707FE3068406C00289B
:1054B00038D00098049030680822416C05A8FAF7AB
:1054C0000AFFA86A002806D004A8FBF77DFBA86A9B
:1054D000FBF754FB049005A90498FFF7ABFE05A960
:1054E00002A8FDF7E9FD04A8FBF76EFBA96A0029F5
:1054F00004D002A8FFF7A8FE002815D03068816C00
:1055000002A8FFF7A1FE00280ED00298039903C459
:10551000FFF75AFFA6E76069401E60616846FBF727
:1055200053FB04E06846DFE76069401E60610020CD
:1055300098E700001C0000205C830020B8000020D9
:10554000FEB50D00044647D0FBF718FB0090002184
:10555000856101622846FBF711FB02900099C5693D
:105560008E6A08210E40002D06D02846FBF706FB68
:105570000190002E06D014E0C4616846FBF724FBBE
:1055800002A827E0008D00070BD50098056202985D
:10559000C4616846FBF718FB02A8FBF715FB01A8DE
:1055A00018E002A8FBF710FB01A8FBF70DFB28464B
:1055B000FBF722FB11E004620BE02846FBF71CFB23
:1055C000002E0AD1018D090707D5019804620098C1
:1055D00005626846FBF7F8FAFEBD0190056A002DEA
:1055E000EBD1E8E710B5202203F098FD10BD0000D4
:1055F00038B5040022D0FBF7C1FA0090018D89076D
:1056000019D5406A002808D00D49C96AA14204D0C2
:10561000FBF7D6FF0099002048622046FFF7F9FA11
:10562000044606E02046FFF7E3FF2046FBF7E4FAD6
:10563000046A002CF6D16846FBF7C6FA38BD0000B4
:10564000B800002070B5064615460C460846FBF724
:10565000D3FA806AC00302D501239B0300E0202314
:105660002A462146304600F001F870BDFFB585B0EE
:1056700016460D00074631D00846FBF77FFA00902A
:10568000846A0246A00726D5394602A8FDF731FDF7
:10569000002820D012480440012C07D002A9284637
:1056A000089A03F03BFD0098C46912E00098089B3B
:1056B000026A816902A8FFF7D9FFF4E7B4420AD071
:1056C00002A92046089AFFF7A8FB2046FBF794FAA8
:1056D000046A002CF2D16846FBF776FA09B0F0BDF7
:1056E0000108000010B52023FFF7C0FF10BD70B502
:1056F00000250C4600280AD0002C08D0FBF77CFAC5
:105700008069A04201D1012501E00028F6D1284698
:1057100070BD10B5884201D1012010BDFFF7E7FF31
:1057200010BD38B500240D4600280BD0FBF726FA33
:105730000090002803D08069A84200D10124684667
:10574000FBF742FA204638BD10B50446064800690A
:1057500006E0A04201D1012010BDFBF74DFA4069DF
:105760000028F6D110BD0000B8000020F0B50646B4
:1057700000208BB015460C460290039004900590D3
:10578000002E3ED0084628433BD03046FBF7F6F9C2
:10579000009006C8089207912A4621460838FCF76F
:1057A00066FA00982A4621460830FCF760FA00980D
:1057B000C7696846FBF708FA2A462146384603F0CF
:1057C0004CFD3046FBF7DAF90090018D89070BD5C7
:1057D0008169002908D0026AFFF734FF0098026A45
:1057E000816907A8FFF72EFF6846FBF7EDF9032054
:1057F000029009A80A95059002A90994304600F084
:105800000FF90BB0F0BD0000F1B588B00024089886
:10581000FBF7B4F90190C2688168049203910769AB
:105820008669856A01A8FBF7CFF91D48054234D087
:10583000002F1DD003A80899FFF706FD002817D0F8
:105840000898FFF7D1FB68070ED5002E0AD0E807AD
:10585000C017401C0090002308AA124903A8FBF7B8
:10586000CFFE05E00120F5E7089800F065F8012477
:105870000898FBF783F90190094A816AD2431140E5
:1058800081628A0402D504221143816201A8FBF7D8
:105890009BF905498888401E8880204609B0F0BDE4
:1058A0002040000051AE0008B8000020F0B589B0DB
:1058B0000546FBF763F90290866A083013C800902A
:1058C000019102A8FBF780F9002C30D0B0072ED54B
:1058D0002E212846FFF7ACFB164C6F462078401C63
:1058E0002070F0040F26002809DA07970496059522
:1058F000FFF7B0FB04A9284600F092F810E0384604
:10590000FFF7A0FD0AE0079704960595FFF7A2FBB5
:1059100004A9284600F084F8FFF756FD0028F2D1CC
:1059200020782F21401E20702846FFF781FB09B008
:10593000F0BD0000B800002038B50446FBF71EF9A2
:105940000090806A18490840012805D06846FBF796
:105950003BF9204603F06CFD1448406A002822D031
:10596000204603F0BBFD2046FBF746F98569046A33
:1059700017E02046FBF740F9008DC043800702D1B5
:10598000204603F067FD204603F0A8FD2046FBF704
:1059900033F9046A002CECD12846FBF72DF9856910
:1059A000046A002DF6D138BD01080000B8000020BF
:1059B00000210422415E825E914205DC0221062222
:1059C000415E825E914201DD0020704701207047F8
:1059D00070B50646FBF710F905468069002809D026
:1059E000FBF70AF90446C069B0420DD1FBF704F990
:1059F000006AE06170BDFBF7FFF80146006AB04243
:105A000002D1286A086270BD0028F4D170BD10B5BB
:105A1000FFF70CFD002801DBFCF750FA10BD000079
:105A200070B50D4C064620680D4614280EDA304637
:105A3000FBF7E2F801696E60002908D02068401C7D
:105A40002060284688472068401E206070BD284698
:105A5000FEF7C2FF70BD0000A40100207FB505461F
:105A6000002000900190029003900C462846FBF71E
:105A7000C3F80269002A03D0684601950094904754
:105A80007FBD1FB5009101906946FFF7C9FF1FBD9B
:105A9000FFB58DB0C46978E02046FBF76FF80A9037
:105AA00006C80C920B9108920791016A0520C0016B
:105AB0000A460240802A2BD082420BD16846828B54
:105AC0000E98121868468283028C10981218684645
:105AD00002840AE06A46928B0E9810186A469083F8
