:020000040800F2
:10000000E0090020D1010008D9010008DB01000847
:10001000DD010008DF010008E10100080000000028
:10002000000000000000000000000000E3010008E4
:10003000E501000800000000E7010008C103000816
:10004000EB010008EB010008EB010008EB010008E0
:10005000EB010008EB010008EB010008EB010008D0
:10006000EB010008EB010008EB010008EB010008C0
:10007000EB010008EB010008EB010008EB010008B0
:10008000EB010008EB010008EB0100080000000094
:10009000000000000000000000000000EB0100086C
:1000A000EB010008EB010008EB010008EB01000880
:1000B0003D040008EB010008EB010008EB0100081B
:1000C000EB010008EB010008EB010008EB01000860
:1000D000EB010008EB010008EB010008EB01000850
:1000E000EB010008EB010008EB010008EB01000840
:1000F000EB010008EB010008000000000000000018
:100100000000000000000000EB010008EB01000807
:10011000EB010008EB010008EB010008EB0100080F
:10012000EB010008EB010008EB010008EB010008FF
:10013000EB01000800F002F800F03AF80AA090E89D
:10014000000C82448344AAF10107DA4501D100F092
:100150002FF8AFF2090EBAE80F0013F0010F18BF25
:10016000FB1A43F0010318478C160000AC16000080
:10017000103A24BF78C878C1FAD8520724BF30C8D3
:1001800030C144BF04680C607047000000230024A5
:1001900000250026103A28BF78C1FBD8520728BF97
:1001A00030C148BF0B6070471FB51FBD10B510BDF3
:1001B00000F031F81146FFF7F7FF00F08DFB00F07B
:1001C0004FF803B4FFF7F2FF03BC00F057F800004C
:1001D0000948804709480047FEE7FEE7FEE7FEE7DB
:1001E000FEE7FEE7FEE7FEE7FEE7FEE70448054917
:1001F000054A064B70470000D90300083501000886
:10020000E0030020E0090020E0050020E0050020D8
:10021000704770477047754600F02CF8AE460500F1
:100220006946534620F00700854618B020B5FFF711
:10023000DDFFBDE820404FF000064FF000074FF013
:1002400000084FF0000B21F00701AC46ACE8C009F4
:10025000ACE8C009ACE8C009ACE8C0098D467047FD
:1002600010B50446AFF300802046BDE81040FFF70C
:10027000A8BF0000004870477C03002001491820F7
:10028000ABBEFEE7260002007047000000B5024644
:1002900000F02EF8642050430349086000BF024874
:1002A00000680028FBD100BD0000002000B5202020
:1002B00000F0DAFA002000F085FC212000F0D4FAEA
:1002C000002000F07FFC462000F0CEFA4FF46F4093
:1002D00000F078FC472000F0C7FA40F23F1000F031
:1002E00071FC482000F0C0FA002000F06BFC00BD5B
:1002F0004AF6AA200149086070470000003000401B
:1003000010B500F001F810BD0CB500200190009070
:100310002A48006840F480302849086000BF274818
:10032000006800F4003000900198401C0190009893
:1003300018B90198B0F5A06FF1D12048006800F419
:10034000003010B10120009001E0002000900098E2
:10035000012831D11948406818494860084640686A
:1003600048600846406848600846406820F47C10B1
:1003700048600846406840F49810486008460068A5
:1003800040F08070086000BF0C48006800F000700A
:100390000028F9D00948406820F003000749486068
:1003A0000846406840F00200486000BF03484068CB
:1003B00000F00C000828F9D10CBD0000001002402C
:1003C0000448006820B103480068401E01490860E5
:1003D000704700000000002010B51448006840F08D
:1003E00001001249086008464068114908400F4959
:1003F0004860084600680F4908400C4908600846F4
:10040000006820F4802008600846406820F4FE0060
:1004100048604FF41F0088600020C862FFF770FF3B
:100420004FF000600449086010BD00000010024059
:100430000000FFF8FFFFF6FE08ED00E04FF08040FF
:10044000008A00F0010038B14FF08040008A20F0AF
:1004500001004FF080410882704730B50546FFF734
:1004600025FF222000F000FA002308E0002403E02A
:10047000284600F0A7FB641CF02CF9D35B1CB3F5F5
:10048000A07FF3D330BD000070B506460D460023B3
:100490001FE0202000F0E8F9304600F093FB212017
:1004A00000F0E2F9E81800F08DFB222000F0DCF902
:1004B00000240BE0C4EBC40101EB4101064A02EB4E
:1004C000410131F8130000F07DFB641C142CF1D3C2
:1004D0005B1C142BDDD370BD080000202DE9F0411A
:1004E00080460E461346002429E0202000F0BCF987
:1004F000404600F067FB212000F0B6F9301900F00B
:1005000061FB222000F0B0F9002515E0C5EBC50025
:1005100000EB40000C4901EB400030F8147033F858
:10052000021BB1F5007F03DC384600F04BFB02E014
:10053000188800F047FB6D1C142DE7D3641C142CA5
:10054000D3D3BDE8F0810000080000202DE9F0477A
:1005500007460E4690469946002420E0202000F0F1
:1005600083F9384600F02EFB212000F07DF9301988
:1005700000F028FB222000F077F900250CE0222073
:1005800000F080FAC5EBC50101EB4101064A02EB20
:10059000410121F814006D1C142DF0DB641C142C97
:1005A000DCDBBDE8F08700000800002030B5F0215A
:1005B000481EB0F1807F00D31BE0481E4FF0E022C0
:1005C000506150170F22002804DB13071C0E094B43
:1005D0001C5406E013071D0E074B00F00F04241FE8
:1005E0001D5500BF00204FF0E022906107201061F0
:1005F00000BF30BD00E400E018ED00E000B5994810
:10060000006840F40030974908600846006840F0F0
:10061000020008600846006840F4003008600846A0
:10062000006840F002000860112000F01DF942F25D
:10063000040000F0C7FA132000F016F94FF44C4004
:1006400000F0C0FA152000F00FF94FF4185000F038
:10065000B9FA142000F008F942F22A5000F0B2FA78
:10066000122000F001F9332000F0ACFA132000F062
:10067000FBF84CF6444000F0A5FA132000F0F4F823
:100680004CF6064000F09EFA132000F0EDF84CF610
:100690004F4000F097FA132000F0E6F846F24F7052
:1006A00000F090FA112000F0DFF842F2030000F0B1
:1006B00089FA302000F0D8F842F2096000F082FA9E
:1006C000312000F0D1F842F22C4000F07BFA3220C9
:1006D00000F0CAF841F6237000F074FA332000F0FD
:1006E000C3F842F2254000F06DFA342000F0BCF867
:1006F00042F2262000F066FA352000F0B5F842F20A
:10070000235000F05FFA362000F0AEF841F61A40B0
:1007100000F058FA372000F0A7F841F21D3000F041
:1007200051FA382000F0A0F840F6113000F04AFAF3
:10073000392000F099F841F2102000F043FA3A20F5
:1007400000F092F841F2153000F03CFA3B2000F046
:100750008BF843F2196000F035FA3C2000F084F881
:100760004FF4506000F02EFA3D2000F07DF80D208F
:1007700000F028FA162000F077F8072000F022FA9F
:10078000022000F071F8132000F01CFA032000F0A2
:100790006BF8012000F016FA012000F065F840F235
:1007A000271000F00FFA082000F05EF840F2033046
:1007B00000F008FA0A2000F057F80B2000F002FAC7
:1007C0000B2000F051F8032000F0FCF90C2000F0A1
:1007D0004BF8002000F0F6F94C2000F045F800201E
:1007E00000F0F0F9502000F03FF8002000F0EAF9A6
:1007F000602000F039F8052000F0E4F9702000F0E6
:1008000033F80B2000F0DEF9712000F02DF8002005
:1008100000F0D8F9782000F027F8002000F0D2F995
:100820007A2000F021F8002000F0CCF9792000F0C7
:100830001BF8072000F0C6F9072000F015F851203A
:1008400000F0C0F9072000F00FF8532000F0BAF9CB
:10085000792000F009F8002000F0B4F9222000F01F
:1008600003F800BD100801400021194A1160194920
:10087000096841F48011174A11601146096841F472
:10088000001111601146096841F400211160114600
:10089000096841F0080111604FF4FF4101EAC011FD
:1008A0000B4A11600B49096841F40021094A1160A3
:1008B0001146096841F0080111601146096841F0CC
:1008C000100111601146096841F020011160704764
:1008D0000C0C0140100801401CB500F03BF862B65A
:1008E000FFF764FEFFF78AFE4FF66400FFF7B5FDE1
:1008F000032016A14FF6FF730022CDE9001032212C
:10090000084600F03DF9322432251E261E271CE041
:100910003B46324629462046FFF718FE0C4A294638
:100920002046FFF7DBFD4FF47A70FFF7AFFC3B4644
:1009300032462946204600F0F5F84FF47A70FFF76A
:10094000A5FCC8210846FFF79FFDE1E746464600A3
:10095000D40C00082748806940F01D0025498861B3
:100960000846406940F0400048612348006800F0B4
:10097000BB30214908600846006840F03330086009
:100980001E4800681E4908401C4908600846006867
:100990001C49084319490860081F006820F080407E
:1009A000091F08600846006840F04050086016487B
:1009B000406840F44010144948600F481030006807
:1009C00040F020000C49103108600846006840F0F3
:1009D000100008600846006840F0080008600846FB
:1009E000006840F4003008600846006840F00400E9
:1009F000086070470010024000080140040C0140EC
:100A0000BBBBBBFB33333303001001400B48006812
:100A10000B4908430949086008460068094908402D
:100A200006490860081F006840F08040091F086000
:100A30000846006820F0405008607047040C0140F0
:100A400044444404CCCCCCFC0B4800680B4908401F
:100A500009490860084600680949084306490860D2
:100A6000081F006820F08040091F086008460068E1
:100A700040F0405008607047040C0140BBBBBBFB1A
:100A80003333330310B504462046FFF7EDFEFFF77E
:100A9000BDFF2148006840F010001F49086008466B
:100AA000006840F4001008600846006840F48020A8
:100AB00008601A480068C0091949086016480068AB
:100AC00040F0040014490860154800680002144909
:100AD00008601148006840F480200F4908600F4802
:100AE00000680F49096841EAD0100D4908600A48BA
:100AF000006840F00400084908600846006840F0BB
:100B0000100008600846006840F020000860FFF709
:100B10009BFF0348006810BD10080140080C01400D
:100B2000040000202DE9F04106460D461746984680
:100B300000231FE02020FFF797FE304600F042F828
:100B40002120FFF791FEE81800F03CF82220FFF783
:100B50008BFE00240BE0C4EBC40101EB4101074A0A
:100B600002EB410131F8130000F02CF8641C142C46
:100B7000F1DB5B1C142BDDDBBDE8F08108000020FD
:100B80002DE9FC4305460F4690469946DDE9096488
:100B900012E005EBC400F02802D9012507EBC407D9
:100BA0003078434622463946CDE90090284600F089
:100BB00045F805EBC405761C30780028E9D1BDE87E
:100BC000FC8300004FF4FF4101EA5001194A116013
:100BD0001949096841F01001174A11601146096866
:100BE00041F4001111601146096841F400211160BF
:100BF0001146096841F0080111604FF4FF4101EA14
:100C0000C0110C4A11600C49096841F400210A4ADC
:100C100011601146096841F0080111601146096828
:100C200041F0100111601146096841F02001116086
:100C3000704700000C0C0140100801402DE9F04FF6
:100C400081460F4614469846DDF828A000233BE075
:100C5000002636E02020FFF707FE4846FFF7B2FFE8
:100C60002120FFF701FEB91903FB0410FFF7AAFFCB
:100C7000002523E005EBCA001549095C01209840D6
:100C8000014069B14FF0000B07E02220FFF7ECFDB7
:100C90004046FFF797FF0BF1010BA345F5DB0CE096
:100CA0004FF0000B07E02220FFF7DEFD0998FFF769
:100CB00089FF0BF1010BA345F5DB6D1C082DD9DB7A
:100CC000761CA642C6DB5B1C082BC1DBBDE8F08F9F
:100CD000F40F000800000000000000000000000009
:100CE000200162028202800100000000000000007A
:100CF00000000000000000000000000000000000F4
:100D00000000000000002000620223030303E3024E
:100D10000102600000000000000000000000000070
:100D20000000000000000000000000000000600063
:100D3000A2028103C2132203E302410280000000E9
:100D400000000000000000000000000000000000A3
:100D50000000000000006000A2026103A10BE21B82
:100D60004203E3028202E0000000000000000000F5
:100D70000000000000000000000000000000400033
:100D8000A202A20BA003C00B021C820BE302C3024F
:100D900060010000000000000000000000004000B2
:100DA0008000A000A0000001A202E31B0014E00BE1
:100DB000000C4224E2130303C302E10120000000FF
:100DC00000000000C0006202A302C302C302C3020B
:100DD000A3022424601C4014401420146224222402
:100DE0002203C3022102800000000000210223032D
:100DF0004203420342034203620BA434A024801C3A
:100E0000801C801C601C8124822C820BE3028202E5
:100E1000E00000004202C10B601C801CA024C02422
:100E2000E024E02CE024E024E024C024C024A01C22
:100E3000A024C234C213E302A202E0002202021480
:100E4000C02CC024E02C002D202D202D2035203555
:100E5000202D202D002DE02CC024C024E234221CA3
:100E6000230301022102642C644D202D40354035BE
:100E70006035603580358035603560354035402DD2
:100E8000202D002DE02C433D421CC1012102C7440E
:100E90002976C455E455E455E355025602560256E8
:100EA000E24DE24DC34DC34DA34DA555C555A32CF1
:100EB000A1028000C0010745AC8E2666676E876E72
:100EC0008776A87E87768776877687766776476E79
:100ED0004876486E832C2102600000008000A10A41
:100EE000A31BA21BA21BA21BE31B6A7E0A8FE9861F
:100EF000E986C986C97EEA8E8A7E2324A001200065
:100F000000000000000000002000400040008000C1
:100F10004102CB6D6DA72B972B972B974EA76B7E1E
:100F2000821300010000000000000000000000002B
:100F300000000000000060008102ED7DD0BF6DA7C1
:100F40006EA7B1BF0A6EE10AA00000000000000019
:100F50000000000000000000000000000000600031
:100F600081020F86F4CFB3C7D3C7885D200260002B
:100F70000000000000000000000000000000000071
:100F800000000000000060006002308EFAF794C795
:100F9000E53CA0012000000000000000000000006F
:100FA0000000000000000000000000000000000041
:100FB00000026F8E74C702242001000000000000B0
:100FC0000000000000000000000000000000000021
:100FD0000000000000000000A0008112400AA000F4
:100FE0000000000000000000000000000000000001
:100FF000000000000000000000000000FFFFFFFFF5
:10100000FFFFFFFF1C3E6B4F6B3E1C001E3F7EFC34
:101010007E3F1E00081C3E7F3E1C0800000484FF2B
:1010200084040000183CBEDFBE3C18000000000035
:1010300000000000000000000000000000000000B0
:1010400000000000000000000000000000000000A0
:101050000000000000000000000000000000000090
:101060000000000030301FC9D27C0000085D3E77D0
:10107000773E5D087F3E1C0800000000081C3E7F94
:101080000000000014367F36140000005F005F008F
:101090000000000010080408100804002E55553AFE
:1010A000000000000000000000000000002466FFB7
:1010B000FF662400080C0E7F7F0E0C080818387F8E
:1010C0007F3818081C1C7F3E1C080000081C3E7F4F
:1010D0001C1C0000607F06080000000030484838F3
:1010E00005030700044EF1F14E0400000202020263
:1010F0000202020200000000000000005F00000089
:10110000000000000102000102000000143E143E35
:101110001400000026497F493200000043231008D4
:1011200004626100364955224000000008060000B4
:10113000000000003E41000000000000413E0000B1
:101140000000000009060F060900000008083E081C
:101150000800000080600000000000000808080887
:1011600008000000400000000000000060180601B8
:10117000000000003E5149453E000000427F400013
:1011800000000000724949494600000021414547DE
:10119000390000003824227F200000002745454503
:1011A000390000003E49494932000000010179053B
:1011B00003000000364949493600000026494949E4
:1011C0003E000000240000000000000080640000D9
:1011D0000000000008142241000000002424242400
:1011E00024000000412214080000000002015109FF
:1011F000060000003C4219253D221C007E11111101
:101200007E0000007F494949360000003E414141CF
:10121000220000007F4141413E0000007F494949D2
:10122000410000007F090909010000003E414151D1
:10123000320000007F0808087F000000417F410065
:1012400000000000204040413F0000007F081422C1
:10125000410000007F404040600000007F02040821
:1012600004027F007F0408107F0000003E414141DE
:101270003E0000007F090909060000003E414121AF
:101280005E0000007F0919294600000026494949EF
:101290003200000001017F01010000003F4040409A
:1012A0003F0000001F2040201F00000007186018AA
:1012B0006018070063140814630000000708700832
:1012C0000700000061514945430000007F410000D4
:1012D000000000000106186000000000417F0000CF
:1012E00000000000040201020400000080808080F1
:1012F00080808080060800000000000020545478A0
:10130000400000007F484438000000003844444456
:10131000000000003844487F000000003854545852
:10132000000000007E1101020000000018A4A47853
:10133000000000007F08087000000000487A4000AC
:10134000000000004080887A000000007F102844E0
:10135000000000007F400000000000007C047C04CE
:10136000780000007C040478000000003844443811
:1013700000000000FC24241800000000182424FCB5
:10138000000000007C0804000000000048545424C1
:1013900000000000043F4440200000003C40403C6E
:1013A000000000001C2040201C0000003C60306059
:1013B0003C00000044281028440000001CA0A07C31
:1013C000000000004464544C440000000836410012
:1013D00000000000FF00000000000000413608008F
:1013E0000000000010080810100800003E410055E1
:1013F0002A00413EFF1F1F1F1F0F0300FF11111185
:10140000110D030080600000000000003C243C42FD
:1014100081FF00008060806000000000400040000C
:101420004000000002027F02020000000A0A7F0A58
:101430000A000000081414081414080022362A2296
:10144000222200000814220814220000081422009E
:10145000000000007F08087F484830007F08152200
:1014600041000000017F0504780000003F20E020DB
:101470003F000000023F8A483000000001020000E7
:101480000000000002010000000000000102010253
:101490000000000002010201000000000C1E1E0CF2
:1014A000000000000808080800000000808080801C
:1014B00080808080FFFFFFFFFFFFFFFF0878087834
:1014C00010201078403C02027E4848302214080068
:1014D000000000007F08087F484830007C82828539
:1014E0008585857EFC82A9A9A9A981FF000000004D
:1014F000000000000000000000000000021F1E1598
:101500001D00021F021F1E151D191513021F1E1597
:101510001D11151B021F1E151D07041F021F1E157E
:101520001D17151D021F1E151D1E151D4E55555547
:10153000390000007E535253420000003C42BDC3BC
:10154000C3A5423C021F011D031F111F08142208DE
:1015500014220000021F011D03191513021F011D93
:101560000311150B7E81FF9393ED817E0080C1C135
:10157000C1C1BE7F021F011D031E151D021F011DDB
:1015800003011D03021F011D031F151F021F011D63
:101590000317150F021F1F151F1F111F2F1008946F
:1015A000CAA9900010387C10101F00002F1048644A
:1015B00052F940007C565644000000007F04081099
:1015C0007F015958021F1F151F1E151D22140822C6
:1015D00014080000021F1F151F1F151F021F1F15D3
:1015E0001F17150F021F17150F1F111F021F1715A9
:1015F0000F00021F7E1111117E0000007F49494932
:10160000310000007F494949360000007F01010197
:1016100001000000407E41417F4000007F49494970
:10162000410000006314087F08146300224141490F
:10163000360000007F1008047F0000007F100904BE
:101640007F0000007F08142241000000403E01019D
:101650007F0000007F02040804027F007F08080862
:101660007F0000003E4141413E0000007F0101013A
:101670007F0000007F1111110E0000003E4141412A
:101680002200000001017F010100000027484848B6
:101690003F0000001C22227F22221C006314081439
:1016A000630000007F4040407FC00000070808083A
:1016B0007F0000007F40407840407F007F404078BE
:1016C00040407FC0017F4444380000007F444438DC
:1016D000007F00007F444438000000002241494957
:1016E0003E0000007F083E41413E000046291909A6
:1016F0007F00000020545478400000007C545420A7
:10170000000000007C545428000000007C04040405
:10171000000000004078447C400000007C545444A9
:101720000000000044287C2844000000284454287D
:10173000000000007C20107C000000007C21117C57
:10174000000000007C102844000000004038047CA9
:10175000000000007C0810087C0000007C10107C59
:101760000000000038444438000000007C04047C81
:10177000000000007C1414080000000038444428D5
:101780000000000004047C04040000000C50503CE5
:101790000000000038447C44380000004428102831
:1017A000440000007C40407CC00000000C10107C15
:1017B000000000007C4070407C0000007C407040D5
:1017C0007CC00000047C5050200000007C50502061
:1017D000007C00007C50502000000000445454382D
:1017E000000000007C103844380000004834147CAD
:1017F000000000001418000800000020080000008D
:10180000700100081C18000808000020D80900001A
:0C1810008C010008000000000000000037
:04000005080001D11D
:00000001FF
