:020000040800F2
:100000009006002089010008910100089301000872
:100010009501000897010008990100080000000000
:100020000000000000000000000000009B0100082C
:100030009D010008000000009F010008E90300087E
:10004000A3010008A3010008A3010008A301000800
:10005000A3010008A3010008A3010008A3010008F0
:10006000A3010008A3010008A3010008A3010008E0
:10007000A3010008A3010008A3010008A3010008D0
:10008000A3010008A3010008A3010008A3010008C0
:10009000A3010008A3010008A3010008A3010008B0
:1000A000A3010008A3010008A3010008A3010008A0
:1000B00061040008A3010008A3010008A3010008CF
:1000C000A3010008A3010008A3010008A301000880
:1000D000A3010008A3010008A3010008A301000870
:1000E000A3010008A3010008A301000800F002F822
:1000F00000F03AF80AA090E8000C82448344AAF188
:100100000107DA4501D100F02FF8AFF2090EBAE885
:100110000F0013F0010F18BFFB1A43F0010318473B
:100120000005000020050000103A24BF78C878C1FF
:10013000FAD8520724BF30C830C144BF04680C60ED
:10014000704700000023002400250026103A28BF35
:1001500078C1FBD8520728BF30C148BF0B60704739
:100160001FB51FBD10B510BD00F06CF81146FFF7AC
:10017000F7FF00F043FA00F09EF803B4FFF7F2FF38
:1001800003BC00F0A5F80000094880470948004773
:10019000FEE7FEE7FEE7FEE7FEE7FEE7FEE7FEE737
:1001A000FEE7FEE704480549054A064B7047000094
:1001B00001040008ED0000089000002090060020D7
:1001C00090020020900200200FB4044910B503AA49
:1001D000029800F009F810BC5DF814FB080000203C
:1001E0007047704770470000074B70B50D467B4461
:1001F00000F011F80446284600F020F810B14FF046
:10020000FF3070BD204670BDA302000001694A1C8A
:1002100002610878704700B58FB0CDE90131002147
:10022000059105497944CDE903101146684600F06F
:100230002EF80FB000BD0000E5FFFFFF007B00F0CF
:1002400080007047754600F03FF8AE4605006946ED
:10025000534620F00700854618B020B5FFF7A2FFEF
:10026000BDE820404FF000064FF000074FF00008B7
:100270004FF0000B21F00701AC46ACE8C009ACE838
:10028000C009ACE8C009ACE8C0098D4670472DE94B
:10029000F04106460024D6E90170F56880463046F4
:1002A00003E04146B847641C3046A8470028F8D10F
:1002B0002046BDE8F08110B50446AFF3008020462B
:1002C000BDE81040FFF759BF0048704730000020DC
:1002D00001491820ABBEFEE7260002007047024627
:1002E000914209D0914202D9881AC82804D3914278
:1002F00004D2501AC82801D2012070470020FCE720
:1003000010B500F001F810BD0CB500200190009070
:100310003348006840F480303149086000BF3048FD
:10032000006800F4003000900198401C0190009893
:1003300018B90198B0F5A06FF1D12948006800F410
:10034000003010B10120009001E0002000900098E2
:10035000012843D12348006840F01000214908607B
:100360000846006820F0030008600846006840F076
:10037000020008601A484068194948600846406809
:1003800048600846406840F480604860084640681D
:1003900020F47C1048600846406840F4E81048604B
:1003A0000846006840F08070086000BF0C48006894
:1003B00000F000700028F9D00948406820F00300E0
:1003C000074948600846406840F00200486000BFA6
:1003D0000348406800F00C000828F9D10CBD00006B
:1003E00000100240002002400448006820B1034889
:1003F0000068401E0149086070470000100000209E
:1004000010B51348006840F0010011490860084623
:100410004068104908400E494860084600680E4987
:1004200008400B4908600846006820F480200860F6
:100430000846406820F4FE0048604FF41F008860C2
:10044000FFF75EFF4FF000600449086010BD000038
:10045000001002400000FFF8FFFFF6FE08ED00E08C
:100460004FF08040008A00F0010080B10848036826
:1004700040685A1C40F1000005490A6048604FF08E
:100480008040008A20F001004FF0804108827047D0
:1004900000000020074A126802F0807242B100BFDB
:1004A0004FF060421268002AFAD04FF06043187093
:1004B00070470000FCED00E010B54448006800F013
:1004C00001004349086008460068012807D100F090
:1004D0009BF840490968401A3F49086006E000F06F
:1004E00093F83C490968401A3C49086000F08CF8D0
:1004F0003849086036480068012858D137480168F3
:1005000040F29D10FFF7EBFE18B33348016840F24C
:100510003A30FFF7E4FEE0B131480078202807DAEE
:1005200030480068012101EB40002E4908600AE0D4
:100530002B480078402806DA2B480068012101EB9F
:1005400040002949086026480078401C244908706A
:100550002DE02248016840F23A30FFF7C0FE18B3A0
:100560001D48016840F29D10FFF7B9FEE0B11C483C
:100570000078202807DA1B480068002141EA400083
:10058000184908600AE016480078402806DA16483C
:100590000068002141EA40001349086010480078D3
:1005A000401C0F49087002E000200D4908700C48FB
:1005B0000078412809DB0DA0FFF706FE002008495E
:1005C0000870084908600849086010BD0808014023
:1005D0002000002014000020180000201C00002033
:1005E00024000020280000202C000020CFE5F0E5AA
:1005F000F5E2E0F7E5EDEE3A2000000010B5FFF778
:100600005BFF002010BD000000BF72B60348026807
:10061000436862B61046194670470000000000208B
:1006200040060008000000203000000028010008FB
:100630007006000830000020600600004401000839
:1006400000000000000000000000000000000000AA
:10065000000000000000000000000000000000009A
:10066000000000000000000000000000000000008A
:040000050800018965
:00000001FF
