:020000040800F2
:10000000508A002011020008190200081B02000893
:100010001D0200081F020008210200080000000065
:1000200000000000000000000000000023020008A3
:10003000250200080000000027020008613D0008BA
:100040002B0200082B0200082B0200082B020008DC
:100050002B0200082B0200082B0200082B020008CC
:100060002B0200082B0200082B0200082B020008BC
:100070002B0200082B0200082B0200082B020008AC
:100080002B0200082B0200082B02000800000000D1
:100090000000000000000000000000002B0200082B
:1000A0002B0200082B0200082B0200082B0200087C
:1000B000513F00082B0200082B0200082B02000809
:1000C0002B0200082B0200082B0200082B0200085C
:1000D0002B0200082B0200082B0200082B0200084C
:1000E0002B0200082B0200082B0200082B0200083C
:1000F0002B0200082B020008000000000000000096
:1001000000000000000000002B0200082B02000885
:100110002B0200082B0200082B0200082B0200080B
:100120002B0200082B0200082B0200082B020008FB
:100130002B02000800F002F800F05AF80AA090E83C
:10014000000C82448344AAF10107DA4501D100F092
:100150004FF8AFF2090EBAE80F0013F0010F18BF05
:10016000FB1A43F0010318476CB600008CB6000080
:100170000A444FF0000C10F8013B13F0070408BFCD
:1001800010F8014B1D1108BF10F8015B641E05D06B
:1001900010F8016B641E01F8016BF9D113F0080F20
:1001A0001EBF10F8014BAD1C0C1B09D16D1E58BFB2
:1001B00001F801CBFAD505E014F8016B01F8016BE9
:1001C0006D1EF9D59142D6D370470000002300245C
:1001D00000250026103A28BF78C1FBD8520728BF57
:1001E00030C148BF0B6070471FB51FBD10B510BDB3
:1001F00000F0BBF91146FFF7F7FF09F005F900F031
:10020000D9F903B4FFF7F2FF03BC00F0E1F90000F5
:100210000948804709480047FEE7FEE7FEE7FEE79A
:10022000FEE7FEE7FEE7FEE7FEE7FEE704480549D6
:10023000054A064B70470000793D0008350100086B
:1002400050840020508A00205086002050860020D4
:1002500040EA0103024630B59B0710D14FF001344C
:1002600000E008C208C91D1B9D4315EAC41FF8D051
:1002700013F0FF0102F8011B0DD01B0AF8E711F87B
:10028000013B002B02F8013B05D011F8013B002B8C
:1002900002F8013BF3D130BD10B5431C02E010F869
:1002A000011B71B18107FAD14FF0013202C88C1ADB
:1002B0008C4314EAC211F9D0C01A0A0603D0C01E3A
:1002C00010BDC01A10BD0A0401D0801E10BD090265
:1002D000FCD0401E10BD032A40F2308010F0030C09
:1002E00000F0158011F8013BBCF1020F624498BF89
:1002F00011F801CB00F8013B38BF11F8013BA2F126
:10030000040298BF00F801CB38BF00F8013B11F0A0
:10031000030300F06780083AC0F0088051F8043BFE
:10032000083A51F804CBA0E80810F5E7121D5CBFAD
:1003300051F8043B40F8043BAFF30080D20724BFE0
:1003400011F8013B11F801CB48BF11F8012B24BF74
:1003500000F8013B00F801CB48BF00F8012B7047C3
:10036000431A28BF9A427FF6B6AF032A10441144BD
:1003700040F2268010F0030F1EBF11F8013D521EFF
:1003800000F8013D10F0030F7FF4F6AF11F0030306
:1003900000F09F80083AC0F00B8051F8043D083A05
:1003A00051F804CD40F8043D40F804CDFFF7F3BF09
:1003B000121D5CBF51F8043D40F8043DAFF30080CE
:1003C000D20724BF11F8013D11F801CD48BF11F843
:1003D000012C24BF00F8013D00F801CD48BF00F812
:1003E000012C704710B5203AC0F00B80B1E81850CE
:1003F000203AA0E81850B1E81850A0E81850BFF40F
:10040000F5AF5FEA027C24BFB1E81850A0E81850AD
:1004100044BF18C918C0BDE810405FEA827C24BF01
:1004200051F8043B40F8043B08BF7047D20728BF8F
:1004300031F8023B48BF11F8012B28BF20F8023BDE
:1004400048BF00F8012B704702F0FF0343EA032284
:1004500042EA024200F069B84FF0000200B51346CC
:1004600094469646203922BFA0E80C50A0E80C50D4
:10047000B1F12001BFF4F7AF090728BFA0E80C5085
:1004800048BF0CC05DF804EB890028BF40F8042B7E
:1004900008BF704748BF20F8022B11F0804F18BFEB
:1004A00000F8012B7047704770477047431A28BF08
:1004B0009A427FF697AF104410F0030F11441EBF0D
:1004C00011F8013D521E00F8013D10F0030F7FF4BA
:1004D000F6AF103AC0F00A8010B531E91850103A62
:1004E00020E91850BFF4F9AFBDE81040530724BF0E
:1004F00031E9081020E9081044BF51F8043D40F8E4
:10050000043D12F0030F08BF7047D20728BF31F82F
:10051000023D48BF11F8012C28BF20F8023D48BF1A
:1005200000F8012C70474FF000020429C0F012803F
:1005300010F0030C3FF492AFCCF1040CBCF1020FAD
:1005400018BF00F8012BA8BF20F8022BA1EB0C016B
:10055000FFF784BF5FEAC17C24BF00F8012B00F8DD
:10056000012B48BF00F8012B7047754600F02CF8AE
:10057000AE4605006946534620F00700854618B090
:1005800020B5FFF753FEBDE820404FF000064FF0C6
:1005900000074FF000084FF0000B21F00701AC46B8
:1005A000ACE8C009ACE8C009ACE8C009ACE8C009D7
:1005B0008D46704710B50446AFF300802046BDE875
:1005C0001040FFF71EBE000000487047F083002077
:1005D00001491820ABBEFEE726000200704700006C
:1005E0007CB504F075F80546002000902B46044ABF
:1005F00002210190034800F003FB044620467CBD25
:10060000798F0008E49A000810B5002001F034FA50
:100610000B4801F035FA012001F068FA002001F0E2
:100620006DFA002001F074FA002001F02DFA05485F
:10063000006801F02DFA002001F034FA10BD00002E
:10064000FFFFFF0018000020F0B54E4991B00A6886
:100650002221515E06912421515E0991D56900261F
:10066000EC69F643A189814206D8E389834203D32A
:100670002368471A0F9313E0A16863680F9300295A
:1006800077D00B88834274D84E88864271D3C01AC3
:1006900003044868990B081800270226C75F865F85
:1006A000781C66D0287EA37C014658430A90207CA3
:1006B0002A2507910890555F284603F019F9C0B222
:1006C0000D903048A37C01680A988A6B47430F98C5
:1006D000039338180127029705920490C869079B75
:1006E000C17E807E01910090089A0999069802F0D7
:1006F000CBFC701C1BD028460221084303F0F8F8FD
:100700000A9A204856430F9A0068B318816BA27C5E
:100710000297049303920591C069079BC17E807E76
:1007200001910090089A0999069802F0ADFC154EC7
:100730003068C069417E007E814217D9022D15D0F4
:1007400028460421484003F0D3F83068C069017E90
:10075000C27E437E5143099A807E89189B18089A6D
:100760005043069A8218069802F022FE0D9803F074
:10077000BFF80448627C0068418C8918418411B03C
:10078000F0BD00001C000020044800290068C0697A
:10079000C06901D0027C0A60407C70471C000020C8
:1007A000022008807047C06982898A4202D8C289C3
:1007B0008A4211D28068002810D002888A420DD85F
:1007C00043888B420AD34068890040189100401A40
:1007D0000021415E002901DB0120704700207047A5
:1007E000F0B5304C034620682A2189B0415E07915C
:1007F000C0691946C06900F080F800284FD04168F0
:100800000088181AC0000D18AE78079803F070F829
:10081000069020686A68816B012303960293049214
:100820000591C1692226CB7E8A7E019300920B7EC0
:100830002421865F415E2A78304602F025FC20683C
:10084000C069477E067EB7421ED9C07E47434643F5
:100850000798022818D000F0FFFB009000F0E6FB9C
:1008600001F00EF921682A78C8690B46C07E424320
:100870002220085E2421595E1218CB19891902F032
:1008800097FD009801F0FCF8069803F031F8206815
:100890006978C269927E5143428C8918418409B0BB
:1008A000F0BD00001C00002030B50D4C054620684E
:1008B0000B46C0692946C06900F01FF800280ED019
:1008C000416800882468281AC200E469501C085C4A
:1008D000A47E6043002B02D0895C6143196030BD67
:1008E0001C00002001200880704700B5C06900F09E
:1008F00004F8002800D0012000BD06E002888A42EA
:1009000002D842888A4202D280680028F6D1704715
:1009100010B5002801D004F0FDFE10BD38B5054625
:10092000FFF7F6FF040009D000F0CAF82A460021BC
:10093000009002F01DFB684600F0E8F8204638BD44
:10094000024A10608808800050607047A48200202E
:1009500010B5002810D004460848E200406B815CC6
:10096000002909D0022907D2121D8158486804F0D5
:1009700085FE204607F0EEFB10BD0000E48100205C
:10098000002806D0034AD16B0160002900D04860DE
:10099000D0637047E481002010B504460068FFF77B
:1009A000D7FF0020206010BDF8B5044607F04CF9D1
:1009B000E41C2A48A508AD00016C2D1DA94200D9F0
:1009C0000D46C46B17E021468039CA6FAA4211D187
:1009D000002C12D02168002901D062684A60616849
:1009E000002901D022680A60C26BA24233D121687B
:1009F000C16330E02468002CE5D11848816BC068E1
:100A00000F18384680380090C06F3E1A30680028B2
:100A100008D0002007F0FAFB0098C06F3E1A30683B
:100A2000002818D17068A84215DB8019441B304695
:100A3000241D07F0A1FB0948C168491BC160416939
:100A4000491941617068401B02D0314604F016FE1E
:100A500020468038C5672046F8BD0000E4810020AC
:100A600010B5002407F0F0F80D490F20C20052180D
:100A7000526C002A03D0C0004018406C09E0401EB0
:100A8000F4D509E04168A14200D90C4680680028ED
:100A900002D080680028F5D120460C3810BD000037
:100AA000E48100200021002806D00449C000496BE1
:100AB000001D085841680C3908467047E481002041
:100AC00000B50649CA69521CCA61496BC20089183F
:100AD0000A78521C0A7000F031F800BDE481002051
:100AE00010B5FFF7BDFF01218905074C884205D9E4
:100AF000642108F0EAFF216A484310BD226A64219C
:100B0000504308F0E8FF10BDE481002002680A4964
:100B1000083A12684B6BD2009A181378022B04D350
:100B2000CB69002B01D05B1ECB611178491E11707F
:100B30000021016008467047E4810020002805D0AC
:100B40000349C000496B001D085808307047000079
:100B5000E481002010B5C2B2CBB2D21A00D5524205
:100B600093B202040C045B43120E240E121B00D538
:100B7000524292B2000C090C5243401AD21800B2F1
:100B8000002801DA404200B280B24043801810BD14
:100B900010B50021084600F081FA034A504213467E
:100BA000014600F003F810BDFF3F0000FEB5074608
:100BB0001C4615460E46042002F09AFE00900F488F
:100BC000C168C86C096DC7194519684687808E19B8
:100BD00005810C19C680448101A804F0A7F907E03B
:100BE00023462A463146384602F0E2FB04F060F91B
:100BF0000028F5D1009802F07BFEFEBD1000002019
:100C0000FFB583B00D9F1C001646054602D103F0C8
:100C10005FFD044600962E683B46214628460C9A06
:100C2000B04706000BD003F047FD0190698A3046BB
:100C300003F035FA304604F031F801980DE0002059
:100C400007B0F0BD00200090EF69034602461C3556
:100C500028460199B84700281ED004F01FF80498D0
:100C6000401E04900028EDDC1D21019803F054FF84
:100C7000601C0FD003F048FD002806D0FFF75EFF90
:100C80008469B44201D02000F8D1B44202D0304689
:100C900003F0AEFF3046D3E7304603F043FCCEE727
:100CA000F8B51C4616460D460746022B01DB002010
:100CB000F8BD1C20FFF778FE0028F9D0002D01D0E8
:100CC00005610BE0094AA1005158002901D105E056
:100CD00011460A68002AFBD1096901618461868294
:100CE000002101604160C7608160F8BD34000020D0
:100CF00070B51D46FFF7D4FF04000AD000F012F8CB
:100D0000E0680068002804D10349A8000968401879
:100D10008465204670BD00001C00002010B5FFF760
:100D20002FFE10BD70B5002835D08169022932DA56
:100D30001E4B8C001959002902D1185133E011467D
:100D40004A68002AFBD106E0CA68C56812682D68A7
:100D5000AA4203DD09680029F6D11CE000291AD057
:100D6000CA68C66812683668B2420DD1828A012A02
:100D700005D009E01146D2681268AA4204DB0A686D
:100D8000002AF7D1002906D04A68002A05D0106051
:100D90004A68426002E0012070BD185148608842F4
:100DA00000D100210160002070BD0000340000204F
:100DB00081698A0009498B58834201D103688B50AD
:100DC0004168002901D002680A600168002901D049
:100DD00042684A6000210160416070473400002091
:100DE000022801DB0020704705498000085804E014
:100DF000C16809680029F6D000680028F8D170475A
:100E00003400002070B5044601F0D2FA051907E05D
:100E100000F0DAF8052C00DD0524204601F0BAFACE
:100E200001F0C6FA2C1A002CF2DC70BDFFB589B0B7
:100E30001646050071D0082268460A99FFF74BFA5A
:100E4000684604220021825E415E501A401C0390D5
:100E500000F008F904463007800F24D028460C9A89
:100E6000039901F07CFA0C213140042904D00829AF
:100E700002D00C2917D107E06946C9886043081AD7
:100E80006946401C48800EE06A4606230221D35E74
:100E9000515E60435A1A101A401CC20F10184010BD
:100EA00008186A4650800A9803F0ECFE0290002869
:100EB0000BD0019900980791069006A8029A0A990A
:100EC00001F0D1FE06A803F0DDFE671E28460C9A4D
:100ED000039902F019F8089068464088C1196846DD
:100EE000C18000980199059104902846089901F065
:100EF00037FEB107890F11D001292AD0022911D15B
:100F00000A9904228A5E0B460021595E521A101A71
:100F1000C20F10184010081802E018E00A98008864
:100F20006946088204AA2846089901F0CFFB2846A2
:100F30000C9A039901F0DFFF4519694648880019AA
:100F4000488028780028C1D1029803F09BFE0DB09C
:100F5000F0BD0A998988081A6946401CE1E700003B
:100F6000FEB5054617480468207EE66C246D7719A7
:100F70006518B618401E3A1A69460A8032188A80E7
:100F80002A1AE4184A802018C880684603F0CEFF69
:100F900015E032462946384602F082F932462146AB
:100FA000384602F07DF9621E691C384602F0D6F917
:100FB000621E691C304602F0D1F903F079FF002867
:100FC000E7D1FEBD1C00002010B5002400E0012484
:100FD00000F004F80028FAD1204610BD10B50C48E6
:100FE00000240068002803D08047002800D0012496
:100FF00003F008FB002800D0012406480068002800
:1010000003D08047002800D00124204610BD0000F6
:10101000400000203C000020810003484058C16887
:101020008A6A0821104700003400002010B502F041
:10103000F1F902F09FFA10BD02490968C9694A68CE
:10104000002110471C000020024A1268D269526831
:10105000104700001C00002010B502F0E3F902F078
:1010600089FA10BD02480068C069407E70470000E0
:101070001C00002000B501F0BFFD00BD024980004A
:101080000858006900687047340000200249800059
:1010900008580069406870473400002070B50D465C
:1010A00006F006FD0446284606F00AFD204370BD02
:1010B000F8B518480125856017490160006817498F
:1010C000884200D0FEE701F02DFA154E2E20307038
:1010D00001F074F9134806F063FD07F0B5FF074609
:1010E00002F0F4F9002803D002F00AFA002807D130
:1010F00002F011FA044602F0F4F9214602F0F2FB84
:101100000021084600F0D6FC03F044FB7570384619
:10111000F8BD000000300240C2A507F4CDB5E8B527
:1011200010000020B08200201CB5002804D10C481B
:101130000068006E002812D0FFF7C2FC00904469DE
:101140006846FFF7E3FC002C09D02046FFF7B8FC07
:10115000019081688968884701A8FFF7D7FC1CBD0A
:101160001C000020024910B50A4600F003F810BD2B
:1011700001F0FFFFF7B588B0089815460C46002827
:1011800040D0002000F080FC06901F480068076EE9
:101190000898FFF795FC00900068806900F054FC07
:1011A00006461A48844204D1042400980625045FA8
:1011B000455F009968460A898480601E1218684657
:1011C00002814989C580681E09186846418103F07B
:1011D00081F86846FFF79AFC01A803F0A7FE06E035
:1011E0002A462146089800F055FB03F061FE0028CE
:1011F000F6D1304600F028FC384600F065F9069834
:1012000000F042FC0BB0F0BD1C00002001F0FFFF1D
:10121000FFB5184800270068174A407C83B081005A
:101220000C9E5458E1680968042903D02468002CF6
:10123000F8D101E0002C03D1FFF7D2FD041E17D036
:10124000E0680121C26A2046904705000FD024695A
:10125000A0688047401C02D1084C0120064303AF20
:101260000096019502940FCF00F0B8F90746384672
:1012700007B0F0BD1C0000203400002098A6000834
:1012800038B5040019D00D480068006EA04201D1A5
:1012900000F0D2FB2046FFF713FC009040690028C5
:1012A00001D001F04AF800980068FFF737FD684662
:1012B000FFF72CFC2046FFF74BFB38BD1C0000203D
:1012C000FFB507464E4885B00068447C4D4800573E
:1012D0000128204606DD02F0FFF80546204602F010
:1012E00015F905E002F0D8F80546204602F0DEF8D0
:1012F0000446002F24D003A902A8FFF7BBFE00205C
:10130000385E002800DA002002260190BE5F002E21
:1013100000DA0026029841190420385E491E06F0C2
:1013200076FD0546039801190620385E491E06F031
:101330006EFD014601988C1B2A1A521C641C03E0A6
:10134000002006462A4601900898002801D16042F4
:101350000890002A52DD002C50DD0E980090314696
:10136000089B0198FFF754FF0090002811D000F06F
:101370006DF80746A04207D021480068806C00281D
:1013800002D0322104F0DEF8009800F09DF800252C
:1013900022E0069907988847012009B0F0BD611B3B
:1013A000B94202DA009800F077F8002D07D07219E0
:1013B0000199009800F0ACF80098FFF7B5FE069987
:1013C0000798884710480168002901D00020884705
:1013D0000098FFF7C7FEED19A542E0DB0098FFF784
:1013E0004FFF002000F070F8A74207D004480068C3
:1013F000806C002802D0332104F0A4F80020CCE750
:101400001C000020540000207401002038B5002486
:1014100000280CD0FFF754FB00900068006980683A
:10142000804702F01BFC04466846FFF76FFB20462E
:1014300038BD38B5002808D0FFF742FB04460090BD
:1014400068461834FFF762FB204638BD38B50024E3
:10145000002804D107480068006E002807D0FFF775
:101460002FFB0A240090045F6846FFF74FFB2046DD
:1014700038BD00001C00002070B505460024284639
:1014800004F07AFA641C002802D000F071F870BDF4
:10149000052CF4DB70BD000038B50C46002804D1E3
:1014A00008480068006E00280AD0FFF709FB0A21EF
:1014B0000090415EA14200DD44816846FFF726FBB3
:1014C00038BD00001C000020F8B5104E0500306843
:1014D000046E17D0002C01D000F0AEFA02F0E4FF49
:1014E0002846FFF7EDFA009031680D660068FFF7B7
:1014F00019FC6846FFF70AFB02F046FA02F0D2F93F
:101500002046F8BD00F098FAFAE700001C00002021
:101510007CB515460C46002804D114480068006EBE
:10152000002822D0FFF7CCFA2DB20090C58024B25B
:10153000848002F0B7F900984069002812D0FFF7C4
:10154000BFFA009A01900821515E0A238180D35E80
:10155000C380002903D0002B01D00480458001A85E
:10156000FFF7D4FA6846FFF7D1FA7CBD1C000020D3
:10157000024910B50A4600F003F810BD01F0FFFF64
:101580007FB515460C46060025D0FFF799FA12499B
:1015900001908C4203D104240625045F455F028933
:1015A00069460C81611E521869468A814289681E0B
:1015B0004D811018C88101A8FFF7A8FA02A803F00E
:1015C000B5FC06E02A462146304600F04BF903F010
:1015D0006FFC0028F6D17FBD01F0FFFFFFB583B09F
:1015E0000021009138491C4609680C9E4B7C0D98DF
:1015F00000220E99FFF754FB050062D0286980682D
:10160000804702F02BFB059901904143C91DCF088B
:10161000FFF766FAF10705D1C117890F0818801086
:1016200041004018002C0CDC002F04D0394618383B
:1016300008F051FA00E000206142884200DD0846CF
:101640000446F00706D1009003A807C8234600F01F
:10165000FFFD0090002C03DC2846FFF75FFB30E025
:10166000204678431830F10702D0FFF751F901E026
:10167000FFF754F906001CD0FFF722FA029005602C
:10168000039981800499C180059901814481C760D3
:10169000019901610099416102A8FFF737FA0E989C
:1016A000AE60286108480068407CA861304607B0F9
:1016B000F0BD2846FFF732FB0098002801D0FFF765
:1016C00047F90020F3E700001C000020F7B590B0B8
:1016D00014461098FFF7F4F908210B90415E0A2791
:1016E0000891C75F00680069406809900BA8FFF780
:1016F0000DFA594D594E2868407C80003058C16819
:101700008A6A082190470790182801D32020079063
:101710002868407C800030580069069003C80E900D
:101720004F48814201D0012000E000200D900020B0
:1017300000F045FE00287DD1089911982A684018CC
:101740000C21515E401A401E002802DD08990D1A36
:1017500000E0089D0820105E1199884204DD401ABF
:1017600009182D1A119100E00020002D72DD0E23C2
:10177000D35EE119C91A491E002902DD791A0A91BE
:1017800000E00A970A21515EA14205DD0E1B0A996D
:10179000A419891B0A9101E00A990026002959DD44
:1017A00080000C9011980290099910980FAA089F38
:1017B00000920191FFF73DFE7743B90041180C9864
:1017C000019A081800990092019102462B46214681
:1017D000029800F0CFFF009000283BD00D98002821
:1017E0001FD02946069B079A009800F094FE002817
:1017F00017D1089801900698009F00698446002838
:1018000006D03946384604236746019AB84708E0AF
:101810000E993868884701C70198401E019000283A
:10182000F6D100200099079A039005900292049146
:10183000012000E00EE00090214603460190641C68
:101840002A46119801F020FC0A98761C401E0A9046
:101850000028A7D113B0F0BD1C00002034000020E8
:1018600093350008F8B515460E460746FFF728F9E8
:10187000009000681621C068426A00209047044624
:101880006846FFF743F9002C03D02A463146384614
:10189000A047F8BDF8B516460F46050013D0FFF770
:1018A0000FF9009044696846FFF730F92846FFF7C2
:1018B000ADFD0346082801DD002C05D0324639462F
:1018C000284606F00BFFF8BD32463946284607F099
:1018D000C1F8F8BD10B5002823D0002922D0002A75
:1018E00021D0002400230C5FD35E9C4200DA234603
:1018F0000380022402230C5FD35E9C4200DA23465D
:101900004380042404230C5FD35E9C4200DD234605
:1019100083800623CB5E0621515E8B4200DC0B46A2
:10192000C38010BD11460822FEF7D5FC10BD00286B
:101930000BD003885B180380838859188180418805
:1019400089184180C1888918C180704770B5094CD9
:101950000020226861688A420AD060CA10460838AE
:1019600006F0C6F820603146284603F021F8012031
:1019700070BD000028010020FEB5164D08262D6818
:10198000089FAE5F099C864200DD30460C26AE5FA4
:10199000964200DA324682421ADB0A26AE5F8E4257
:1019A00000DD31460E26AE5F9E4200DA33468B42A2
:1019B0000EDB00E02C46E5682D68002D04D0042DD8
:1019C00002D02568002DF5D10097019401F050FE5A
:1019D000FEBD00001C00002002220623825ECB5EBA
:1019E0009A4213DC022206238A5EC35E9A420DDC11
:1019F00000220423825ECB5E9A4207DC00228A5ECC
:101A00000421415E8A4201DC0120704700207047BA
:101A1000014610B5024870220068FEF7E3FC10BDD5
:101A20001C00002010B5034970220968FEF7DAFC9B
:101A300010BD00001C00002010B501F0E7FE01F011
:101A4000A3FF02F047FC10BD70B5094D044628689D
:101A5000022C467C0AD22046FFF7C2F9002805D0A6
:101A600028684474FFF7E8FF02480460304670BD00
:101A70001C000020B800002010B501F0E9FE10BDE8
:101A800010B501F01DFF10BD10B501F031FF10BD04
:101A9000034900280968CA6900D0C8611046704728
:101AA0001C000020024909688A7E8876104670472B
:101AB0001C00002030B4094A1080094A1180094AEC
:101AC0001268527C9300084AD358DA68146A0A46AE
:101AD000A446014630BC1846604700005C00002068
:101AE0005E0000201C00002034000020024909682C
:101AF0000A7E0876104670471C00002003490A68D9
:101B00002C21515E90850846704700001C00002083
:101B100003490A682A21515E508508467047000033
:101B20001C00002002480068002800D000477047D1
:101B30005401002010B504498A68002A00D1886049
:101B4000FFF7F0FF10BD00002801002010B50400D1
:101B500007D006F02DFB204606F07AFD2046FEF762
:101B6000F7FE10BD38B50C4600280CD0FEF7A8FFD4
:101B700000908089204201D0012400E000246846C2
:101B8000FEF7C4FF00E00124204638BD38B5054605
:101B90000020286007480468002C08D02046FEF783
:101BA0008FFF0090006928606846FEF7AFFF20466F
:101BB00038BD0000BC01002038B5044600200D46A9
:101BC0000860002C12D02046FEF77AFF009084684F
:101BD000002C08D06846FEF799FF2046FEF770FFFC
:101BE0000090006928606846FEF790FF204638BDE7
:101BF000FFB505460026FF4897B006601F461396BE
:101C0000022D13D0032D7DDB07AB0AA844D000249E
:101C10001E46A10000224250725003AB5A506B4640
:101C2000641C5A50032CF4DB0024B2E078681D6871
:101C3000401B07F0F1FD0446189803C8081A07F086
:101C4000EBFD214607F00AFDEB4C0746666020607D
:101C5000284607F0E1FD394607F0F6FD0127FF07AA
:101C60007840E660A060209806684168881B07F00D
:101C7000D3FD0546199803C8081A07F0CDFD29467B
:101C800007F0ECFC05462061304607F0C5FD29460B
:101C900007F0DAFD7840ABE10026B400385907F0D0
:101CA000BBFD694608512098005907F0B5FD03A90E
:101CB00008511898005907F0AFFD07A90851199865
:101CC000005907F0A9FD0AA9761C0851AE42E4DBD1
:101CD000A1E0A600B85907F09FFD1090029907F007
:101CE0005BFC02902098805907F096FD0F900599B3
:101CF00007F052FC05901898805907F08DFD12905E
:101D0000099900E0AFE107F047FC09901998805964
:101D100007F082FD06460C9907F03EFC0C901098E7
:101D2000014607F091FD009907F036FC00900F99ED
:101D3000109807F089FD019907F02EFC019003909F
:101D40000F98014607F080FD049907F025FC0490E8
:101D50001299109807F078FD079907F01DFC07907D
:101D600012990F9807F070FD089907F015FC08907C
:101D70003146109807F068FD0A9907F00DFC0A90AB
:101D800031460F9807F060FD0B9907F005FC641CC5
:101D90000B90AC429DDB0299009807F05FFC00902D
:101DA0000599019807F05AFC01900299039807F0F1
:101DB00055FC03900599049807F050FC0490029993
:101DC000079807F04BFC07900599089807F046FC28
:101DD000089002990A9807F041FC0A9005990B981F
:101DE00007F03CFC0B90284607F016FD0446214600
:101DF000029807F033FC02902146059807F02EFC6C
:101E000005902146099807F029FC099021460C9875
:101E100007F024FC0C900599039807F0E1FD0446B7
:101E200012900299019807F0DBFD2146119007F00E
:101E30000BFD05460599049807F0D2FD0446109065
:101E40000299009807F0CCFD21460F9007F0FCFCAA
:101E5000294607F0C5FD05464000000E7ED0129CC5
:101E60000999089807F0BCFD2146159007F0ECFC95
:101E70000746109C0999079807F0B2FD06462146CF
:101E800007F0E2FC394607F0ABFD294607F0E6FB18
:101E9000594C20603046119907F0D6FC06460F9940
:101EA000159807F0D1FC314607F09AFD294607F056
:101EB000D5FB60600899009807F0C6FC06460799B4
:101EC000019807F0C1FC314607F08AFD059907F03B
:101ED000BBFC07460799029807F0B6FC064609992D
:101EE000009807F0B1FC314607F07AFD049907F03D
:101EF000ABFC06460999019807F0A6FC0E900899DC
:101F0000029807F0A1FC0E9907F06AFD039907F00B
:101F10009BFC314607F040FB394607F03DFB294664
:101F200007F09CFBA060129E0C990B9807F058FDDF
:101F30000746314607F088FC064610980E900C992B
:101F40000A9807F04DFD13900E9907F07DFC31467D
:101F500007F046FD294607F081FB00E052E0E06013
:101F60001199139807F070FC064638460F9907F050
:101F70006BFC314607F034FD294607F06FFB20610A
:101F80000B99009807F060FC06460A99019807F043
:101F90005BFC314607F024FD059907F055FC074628
:101FA0000A99029807F050FC06460C99009807F031
:101FB0004BFC314607F014FD049907F045FC06463A
:101FC0000C99019807F040FC0F900B99029807F0CC
:101FD0003BFC0F9907F004FD039907F035FC3146EF
:101FE00007F0DAFA394607F0D7FA294607F036FB48
:101FF000606103E038010020908300201B4901202C
:10200000086002E0139800282DD0184C21986060D9
:1020100022980021A060084605F0ACFE0021E06097
:10202000084605F0CDFE206121982299401E491EE8
:1020300005F0A0FE606121982299401E491E05F01E
:10204000BFFEA0616269E168914201DDE260616109
:102050002169814201DDA16120612068002802D050
:1020600000201BB0F0BD0120FBE70000380100207C
:10207000FEB594462A4A0646556900206F07089C1B
:10208000BF0F002E10D0012E01D00120FEBD244A2A
:1020900020321160614651600521A9433DD0012FD6
:1020A0003BD0114610310CE01D4A183211606146D8
:1020B000516011461031032F05D005221540012D26
:1020C00001D018C101E00C604B60154A0121137862
:1020D000B140194201D00023137013781943C9B2DB
:1020E00011700329D2D10F4C2068407C01F0F4F923
:1020F00005462068407C01F009FA01460848029133
:1021000030300346024601460090083B103A0195E4
:1021100018390220FFF76CFDFEBD01493031D2E7CE
:10212000600000201C000020014948617047000049
:1021300060000020F8B5084E044605683068016864
:10214000284688470746306841682846884740192E
:1021500020603846F8BD000020000020F8B50C468D
:1021600006460025054F05E0386841683046884737
:1021700036182D18641EF7D22846F8BD200000201E
:10218000FFB581B00A9D14460646B06822464768EE
:10219000641C3046049B0299B8476D1EF5D105B00A
:1021A000F0BD70B50024045F091B0424045F8C4259
:1021B0002ADD02250446455F0069521B4243143460
:1021C0001219C8108418CA18521ED3101D1A4B07B2
:1021D000FF215B0F0846D8405207520F07239A1A77
:1021E0009140CEB22178002D0FD001432170641CA4
:1021F0006D1E002D05DDFF2229462046FEF724F93D
:10220000641920783043207070BD30400143217044
:1022100070BD10B50023C35E0224C91A0346045FD3
:102220000069121B14334243D018CA1010184B0710
:1022300002785B0F8021D9400A43027010BD10B5AF
:102240000621415E026914305143FEF705F910BDC5
:10225000FFB510460F30001147001846784381B093
:102260001C4615461430FEF759FB060013D0FEF746
:1022700027FC009001990180029941808580C480EB
:10228000064981600121818107616846FEF73EFCB5
:10229000304605B0F0BD0020FBE7000090AF00081D
:1022A00070B5062604240546865F045F14350B6866
:1022B00096421BDD006950434219D8108218A34290
:1022C00014DA641EE410251A10785C07640FA0402D
:1022D000C4B2521C07E0002D08D008331478DB0884
:1022E000DB00521C6D1E002CF5D004E0002070BDF8
:1022F0006006040E5B1C2006FAD5FF2C07D018469A
:1023000002E06406240E401C6606FAD400E0D81DE4
:10231000C443640705D006E01478521CFF2C09D191
:1023200008306D1EF8D5C01A401C0B6070BD6206E7
:10233000140E401C2206FAD4F5E738B50546FEF720
:10234000BFFB00908189491E0CB284816846FEF76C
:10235000DDFB002C02D12846FEF7FAFA38BDF8B5AD
:1023600016460F460546002432463946284600F0F8
:10237000C2FD2D18002801D0641CF5E72046F8BDE9
:1023800010B54FF400410248FEF7DAFA10BD000024
:10239000E4010020044A1268111800BF024A1268C2
:1023A0008A1A002AFADC70470400002070470000F7
:1023B00001480068704700000400002070470EB517
:1023C000002801D002AA00E00022002301A96846EB
:1023D00000F06CFB0EBD000010B5074900280C781A
:1023E00003D001200870801E02E00020087003481E
:1023F00000F034FE204610BD56000020FFFFFF0015
:1024000010B5082A0FDC0346012A19D0022A51D040
:10241000042A6FD002781A70001D491E5B1C002927
:10242000F8D1012010BD102A08DC02460388138071
:10243000001D491E921C0029F8D1F2E7002010BDB2
:102440000278001DD207120E491E2ED00478001DFE
:10245000E407640E2243491E27D00478001DE407D8
:10246000A40E2243491E20D00478001DE407E40E88
:102470002243491E19D00478001DE407240F22438B
:10248000491E12D00478001DE407640F2243491E40
:102490000BD00478001DE407A40F2243491E04D08A
:1024A0000478E407E40F2243001D1A705B1C002926
:1024B000C6D1B6E70278001D9207120E491E13D04E
:1024C0000478001DA407A40E2243491E0CD00478F2
:1024D000001DA407240F2243491E05D00478001DC7
:1024E000A407A40F2243491E1A705B1C0029E1D1E6
:1024F00097E7FFE70278001D1207120E491E05D06C
:102500000478001D2407240F2243491E1A705B1C07
:102510000029EFD185E738B50024009400F01AF8BF
:1025200038BD000010B50948816900290CD101218E
:102530008161FFF725FF01F039FA044904481C3195
:102540000860084600F098FC10BD00001000002054
:10255000CD7E0008F8B5069E0D460446002E00D13B
:1025600006461F68082A08DC012A18D0022A5FD014
:10257000042A7DD0082A11D194E0102A05DC1869BC
:102580008446002803D0022391E00020F8BD01CC4E
:10259000B84730806D1EB61C002DF8D194E001CCF8
:1025A000B847C007000E00906D1E3CD001CCB84764
:1025B000009980010843C0B200906D1E33D001CC59
:1025C000B847009940010843C0B200906D1E2AD060
:1025D00001CCB847009900010843C0B200906D1EBD
:1025E00021D001CCB8470099C0000843C0B2009088
:1025F0006D1E18D001CCB847009980000843C0B2C6
:1026000000906D1E0FD001CCB847009940000843E0
:10261000C0B200906D1E06D001CCB84700990843A7
:10262000C0B26D1E00903070761C002DB7D14BE00B
:1026300001CCB8478007000E00906D1E1AD001CC67
:10264000B847009900010843C0B200906D1E11D038
:1026500001CCB847009980000843C0B200906D1EBD
:1026600008D001CCB84700990843C0B26D1E00E005
:1026700005E000903070761C002DD9D124E001CC0B
:10268000B8470007000E00906D1E06D001CCB84779
:1026900000990843C0B26D1E00903070761C002D6A
:1026A000EDD111E018698446002806D001230A46BE
:1026B000204631466446A04706E001CCB84730705A
:1026C0006D1E761C002DF8D10120F8BD7CB50646A4
:1026D0002648134600680D4600280DD0002002F061
:1026E00025FC06E06A462946304603F00BFA02F064
:1026F000DFFB0028F6D17CBD082219466846FDF7AD
:10270000EAFD1B4C684621680088CA6C821868463E
:10271000028040880A6D8218684642808088CA6CB0
:10272000821868468280C088096D41186846C18059
:1027300002F0FCFB0DE06946206809884184694687
:10274000498881846A462946304603F0DBF902F065
:10275000AFFB0028EFD12068418CC26C891A4184FC
:10276000818C026D891A81847CBD00005800002094
:102770001C000020FFB5002095B0064601461190D0
:102780001F981C46016015460EAB002202A903A843
:1027900000F08CF9002802D0002019B0F0BD0E988E
:1027A000844200DD0446654F0F9438686449407CDC
:1027B000820089580D9109690991FEF72DFC079057
:1027C0003868407CFEF762FC5E490A90884204D07B
:1027D0005D49884201D0012000E00020109001CD29
:1027E0001E9988470690000E12907AD01198002802
:1027F00046D1159881195148059101680820085E55
:102800000599884202DD471A059000E000270D99DE
:10281000B0000890039A01918218B8000C9010182B
:10282000009015990F98169B0A180B921946521E84
:102830000598FFF7A1F801201190079818280ADAE7
:1028400003990898099B41180C98079A0818E11BEE
:1028500000F07EF814E01098002811D00399089831
:1028600041180C980F1805990B98401A01900A9975
:102870003868884701C70198401E01900028F6D1AA
:102880003248C06900282DD0B0000399029F41183A
:10289000C2192E4E029203912D1FF6692346284637
:1028A000B0472868010EFF2905D003990968090E71
:1028B000FF2902D003E0039800680299086003989A
:1028C000641E001D039002982D1D001D0290002C17
:1028D000E7D11F9802970068012108431F990860FB
:1028E00029E019E01298FF2810D0FF210A1A039856
:1028F000B700C159069800F057FA0299C8511F98BD
:102900000121006808431F9908600FE00399B00097
:10291000029A0958115009E0029AB10006985050E5
:102920001F980168012001431F980160641E761CF6
:10293000002C00D053E702982FE700001C00002075
:1029400034000020933500089135000894010020E0
:10295000FEB50C1E16DDA60037185D680146082A74
:1029600011DC611E012A21D0022A48D0042A71D02C
:10297000082A07D10619761E3078A8473F1F38600D
:10298000641EF8D1FEBD102AFCDC5E69002E03D067
:1029900002232246B047FEBD61000E18B61E3088E5
:1029A000A8473F1F3860641EF8D1FEBDCA104E070D
:1029B00010180178760F401E02908020F04001919F
:1029C0003F1F00900099019808400721891BC840CB
:1029D000A84738603F1F002E07D000984006000E21
:1029E000761E0090641EEDD1FEBD02980726007889
:1029F00001900298401E029001200090F2E78A1098
:102A00008E0710180178401EB60F019102907100D8
:102A1000C020C8403F1F00900099019872000840F4
:102A20000621891AC840A84738603F1F002E07D0EA
:102A300000988006000E761E0090641EECD1FEBD4C
:102A40000298007801900298401E0326009602909A
:102A5000F3E7FFE7491008180178401E0126A64356
:102A600001910290B100F020C8403F1F00900099F2
:102A70000198B20008400421891AC840A84738606C
:102A80003F1F002E07D000980007000E761E009012
:102A9000641EECD1FEBD02980126007801900298D8
:102AA000401E02900F200090F2E70000FFB5294C75
:102AB0000646A069002581B01F46002808D10120E4
:102AC000A0612146244820310860084600F0D4F96E
:102AD0006069002807D1214800686061002802D1A0
:102AE00000F0DFFC6061002F00D03860002E0BD0BA
:102AF000A068002807D160698000FDF755FFA0603D
:102B0000002800D101253060029800280DD0E0682F
:102B1000002807D160698000FDF746FFE0600028CB
:102B200000D10125014602980160039800280DD0CC
:102B30002069002807D160698000FDF735FF20611A
:102B4000002800D10125014603980160284605B000
:102B5000F0BD000094010020397F00084C000020E7
:102B600073B5134A01A91268009890470024009099
:102B700000281BD00F4900250968C9694969002947
:102B80000CD00A68002A09D0019990477CBD68469C
:102B9000FFF7D0FA0546FEF74FFA04190198401ED8
:102BA0000190F4D5284600F035F8041920467CBD84
:102BB000DC0100201C00002073B5009800240D46A5
:102BC000002815D00B490968C969496900290DD049
:102BD0004A68002A0AD0294690477CBD6846FFF71C
:102BE000A9FA002804D00A2802D0641CAC42F5DB04
:102BF00020467CBD1C000020044B00229A5E02602F
:102C0000034A0020105E0860704700005C0000204E
:102C10005E00002038B5002469460094FEF714FADF
:102C20000099814200DD0C1A204638BD00230022A5
:102C3000C35E8A5E934200DA028002230222C35EF0
:102C40008A5E934200DA428004230422C35E8A5ED5
:102C5000934200DD828006230622C35E8A5E934291
:102C600000DDC280704770B5002400230C5FD35E86
:102C70009C4200DD23460380022502244D5F145F41
:102C8000A54200DD2C464480042504264D5F965F56
:102C9000B54200DA2E46868006254D5F0621515E3C
:102CA0008D4200DB0D46C5809E4201DBA54201DA64
:102CB000002070BD012070BD014610B502480068BB
:102CC000407C00F003F810BD1C000020F3B5012685
:102CD00081B00746022863DA324D6A68002A01D0C3
:102CE000029990472F4802991030BC00002933D038
:102CF000012902D0022953D118E0054600590028C5
:102D000011D13846FEF76CF80090002848D0C06812
:102D10000D21426A68469047020041D0029900980E
:102D2000904728590026401C285139E03846FEF7C4
:102D300057F80090002833D0C0680D21426A6846D9
:102D4000904704002CD02868002800D080470299C2
:102D50000098A047002623E01248103000590128AF
:102D600014D13846FEF73CF8009000280ED0C06819
:102D70000D21426A68469047070007D0286800285E
:102D800000D0804702990098B847002605481030C7
:102D90000159002901D0012200E00022891A0151C5
:102DA0003046FEBD10010020F0B50B0E9C46FF2BF7
:102DB00029D0FF252D022E02044634400346C7B217
:102DC000060E2B40FF205743534354435643801A6B
:102DD000CAB24243D7190A462A404243D2182B02AC
:102DE000194041436346091943433804120A090A4A
:102DF0009B19000E090C2A4009041B041B0E1043EA
:102E00001B0608431843F0BDFEB5064615460C46A2
:102E1000002001900B9988421FD20A98009080CE22
:102E200001CC0290390EFF20401A0C994843FF2133
:102E300006F051FEC2B238460299FFF7B5FF000214
:102E4000000A01C50098401E00900028E7D10898AC
:102E5000800004190198401CDBE7FEBD0B889B181D
:102E600003808B889B1A83804B889B184380C9887A
:102E7000891AC1807047000002494A69426048616E
:102E80007047000010000020F3B5076881B00646C7
:102E900000253846029900F0C5F8002829D002988C
:102EA00000F0D1F8441C3846FDF7FCFD84420DD1FA
:102EB000002C1ED03846FDF703FE224600900299F2
:102EC000FDF709FA6846FDF721FE11E02046FDF7FF
:102ED0001FFD04000DD0FDF7F3FD00900299FDF7F2
:102EE000B7F96846FDF712FE3046FDF755FD346030
:102EF00001252846FEBD10B5044600F00AF801463B
:102F00002046FFF72BF910BD10B5002305F0C8FBD4
:102F100010BD77B581B015460E466B46019805F099
:102F2000BFFB044601460198FFF718F901994018C4
:102F3000019001A8FFF7FEF80A2802D0012D02D067
:102F400012E0641C10E020280ED1FEF775F805464B
:102F500007E04019009001A8641CFFF7EBF8202857
:102F600002D100988642F4DA204604B070BD000019
:102F700010B502E00170401C521E002A01D08307E8
:102F8000F8D1930815D092070B4C920F4C4305E0F3
:102F9000046044608460C46010301B1F042BF7DAA7
:102FA00001E010C05B1E002BFBD102E00170401C51
:102FB000521E002AFAD110BD0101010110B583078C
:102FC00002D50180801C521E530810D00C040C192D
:102FD000042B08DB046044608460C46010301B1F55
:102FE000042BF7DA01E010C05B1E002BFBD1D207E7
:102FF00000D0018010BD0000002800D108A00029E9
:1030000005D107A103E0002A07D0401C491C027823
:103010000B789A42F7D001207047002070470000DB
:103020000000000038B501240D46002809D0FDF746
:1030300047FD29460090FFF7DFFF04466846FDF78D
:1030400065FD204638BD0021C943002804D0027820
:10305000401C491C002AFAD1084670470249024622
:1030600008680A6070470000E00100200449054A32
:103070000968497C890051580969096808470000B6
:103080001C00002034000020F0B505468DB0002063
:1030900003908048169C00681E4617468446002808
:1030A00010D0149A159B17980393049402920590DC
:1030B000139A1298019200906046046833463A468B
:1030C000284680E0E819401E8646139A12988B190C
:1030D00010435B1E012807D014980822101A05908F
:1030E000002002910990D1E06B480A220068825EBC
:1030F0008446501A002806DD361A002E64DD11467B
:10310000159A5043041962460E20105E181A0028C2
:1031100002DD361A002E57DD10460C22825E704604
:10312000801A002800DD3F1A634608229A5E0020BC
:10313000AA4233DD501B149A3F1A082A26D006DC17
:10314000012A0BD0022A11D0042A27D116E0102A16
:103150001ED0182A1ED0202A20D11BE0C21014191C
:10316000C208D20055194007400F17E08210141909
:103170008208920055198007800F0FE04210141941
:10318000420852005519C007C00F07E0241803E099
:10319000420000E0820014192D180020002F13DDDA
:1031A000179A05920490159B14980190039402932A
:1031B00000966046407C3B46820038488058C26892
:1031C00054680A462946A0470DB0F0BD13990298ED
:1031D0000A2340180C90401E2F4901900A68D35EC4
:1031E00083424BDC0E21515E0298814246DB002077
:1031F000009507900A9408903EE00798002807D1B0
:103200000A98007803900A98401C0A9008200790BA
:1032100005990398149AC84003999140C9B2039143
:103220000799891A0791002804D11B490968097C6C
:10323000890719D418490968C96B0A680B92179A4B
:10324000002A02D0820017988058086000991298CE
:10325000019B0A18521E0299009800F0A9F80E4826
:103260000B990068C06B01600898401C0890129987
:103270000098401800900898B842BEDB0998401C9E
:1032800009900C980290159824180998B0429DDB7B
:103290009AE70000580000201C00002034000020A5
:1032A00030B4124B0A241B681C5F8C421CDC0E24B9
:1032B0001C5F8C4218DB08241C5F844200DD204622
:1032C0000C241C5F944200DA224682420CDB5B7CB9
:1032D0009C00074B1C59E3689D6813460A4601464B
:1032E0002046AC4630BC604730BC70471C00002014
:1032F000340000200A4630B416490A230968CB5E20
:10330000934225DC0E23CB5E934221DB0823CB5E68
:1033100083421DDC0C23CB5E834219DB0B7C0E4CFD
:10332000DB0709D0497C89006358D968CC6901461C
:10333000A44630BC18466047CB6B497C1B688900AB
:103340006458E1688D6901462046AC4630BC604750
:1033500030BC70471C0000203400002030B405460B
:10336000114808230068C35EAB421BDC0C23C35E1C
:10337000AB4217DB0A23C35E8B4200DD19460E23E6
:10338000C35E934200DA1A468A420BDB407C83001C
:103390000648C058C368DC6813460A462946A44656
:1033A00030BC604730BC70471C0000203400002057
:1033B00038B50546124808240068045FAC4200DDB9
:1033C00025460C24045F944200DA2246AA4216DB0A
:1033D0000A24045F8C4200DD21460E24045F9C42D7
:1033E00000DA23468B420ADB0093407C83000548C9
:1033F000C058C3681C6913460A462946A04738BD11
:103400001C0000203400002010B5082104F012FA3E
:1034100010BD000002480068806B00687047000023
:103420001C00002002480068C06B00687047000064
:103430001C00002010B5034809210068407C04F0FE
:10344000F9F910BD1C00002010B5092104F0F2F9B3
:1034500010BD70B500252C462046FDF7C1FC0028A4
:1034600000D06D1C641C022CF6DB284670BD0000E9
:1034700010B503480068407C00F004F810BD00005F
:103480001C00002010B5FDF7ABFC002803D0C1687C
:10349000CA6A0221904710BD10B5032104F0CAF991
:1034A00010BD10B5032004F035FA10BD10B504218D
:1034B00004F0C0F910BD000010B5034801210068F8
:1034C000407C04F0B7F910BD1C00002001480068E2
:1034D00070470000A000002010B5012104F0AAF9F7
:1034E00010BD10B5012004F015FA10BD10B5034849
:1034F00002210068407C04F09DF910BD1C000020F2
:103500000148406870470000A000002010B502216B
:1035100004F090F910BD10B5022004F0FBF910BDC5
:1035200010B500F001F810BDF8B500280CD0866881
:10353000002E08D00E494A68002A04D00468FF20F3
:103540000130844201DD0020F8BD0868844200DDBE
:103550000446002507E0AF00F059FFF787FD044956
:103560006D1C4968C851A542F5DB01484068F8BDAB
:10357000640100200449054A0968497C89005158C2
:1035800009694968084700001C0000203400002039
:103590007047704710B5C20643050749074C9B0E9C
:1035A0000004D20EE35CC00E8A5C085C19020818A5
:1035B0001104401810BD0000E49B0008049C0008A2
:1035C00010B50B4C606800280DD120688000FDF715
:1035D000EBF96060002808D02146064808310860F1
:1035E0000846FFF749FC002010BD012010BD000077
:1035F00064010020257F0008F8B5FFF72AFF074681
:1036000000242BE02046FDF7EBFB002825D01548D1
:103610000068417C009144742046FFF7F5FE0828BD
:1036200017DC1149A000085810490069884210D0E1
:103630002046FFF709FF0646002508E0E8B2FFF73D
:1036400099FF0246E9B2204600F058F96D1CB542D8
:10365000F4DB0449009809684874641CBC42D1DB5F
:10366000F8BD00001C0000203400002080A60008E7
:10367000FFB583B00D981646C0680C9C426A476936
:10368000002A0ED001210DA89047050009D0069808
:10369000009033460194049A03990D98A84707B007
:1036A000F0BD58480068407CFDF7B6FC0190082842
:1036B00001DC012004E0102801DC022000E00420ED
:1036C0000025009098E00098012804D002286FD0CF
:1036D000042824D17DE00198030005F019FC098A33
:1036E00006213E3E575757578A00039814E001467B
:1036F000049A0D98B8470721491B8840424A21780F
:10370000EA40114001436D1C2170E8100419E808DB
:10371000C00005410298401C0290B042E7DD68E01D
:10372000039816E00146049A0D98B8476A000621EE
:10373000891A8840344B2178403BD34019400143DB
:103740006D1C2170A8100419A8088000054102987A
:10375000401C0290B042E5DD4BE0039812E00146C8
:10376000049A0D98B847AA000421891A8840217844
:103770000F239340194001432170641901204540F3
:103780000298401C0290B042E9DD32E003980290BA
:103790000AE00146049A0D98B84720700298401C30
:1037A0000290009824180298B042F2DD21E0FFE771
:1037B000039802900AE00146049A0D98B8472080C9
:1037C0000298401C0290009824180298B042F2DD42
:1037D0000FE0039802900AE00146049A0D98B8475A
:1037E00020600298401C0290009824180298B04271
:1037F000F2DD0498401C049004990698814200DC94
:1038000061E74CE71C0000207FFF000010B50E4C64
:103810000E492068407C8000085800280BD0C16801
:10382000002902D00968042901D00068F5E70028C2
:1038300001D0FDF7BDFA206800210166014608317C
:10384000416100F02FF810BD1C0000203400002062
:10385000014909684968084760010020044909686E
:103860000A7C520701D5C96B00E0896B086070477C
:103870001C0000207CB5094C05462068407C810076
:1038800007484058C1680A6B6946904720686A46F5
:1038900029460830FFF7E7F97CBD00001C00002036
:1038A0003400002004480168487C82000348083145
:1038B0008058C268126B10471C00002034000020A2
:1038C000014909680968084760010020044909683E
:1038D0000A7C520701D5896B00E0C96B086070470C
:1038E0001C000020014A03C270470000A000002015
:1038F000014909688968084760010020F8B5154644
:103900000E460124FDF76CFA009000280BD0C06829
:103910001021426A68469047030004D02A46314687
:103920000098984700242046F8BDF8B515460E4685
:103930000124FDF755FA009000280BD0C0680B2138
:10394000426A68469047030004D02A4631460098F0
:10395000984700242046F8BDF8B515460E460124C8
:10396000FDF73EFA009000280BD0C0680A21426A99
:1039700068469047030004D02A463146009898478D
:1039800000242046F8BD000010B5074C2068006BED
:10399000FFF76CFBFFF79AFF2068406BFFF766FBB1
:1039A000FFF75CFF10BD00001C00002008B50023DD
:1039B0001A4613491348FDF79BF94FF4A072F02102
:1039C0000020FFF7B2FF4FF4A072F0210020FFF7B4
:1039D000C3FF0020FEF7A8FB40F21F300023024681
:1039E000194600901846FEF743FB40F2DF10002313
:1039F0000246194600900120FEF73AFB08BD000080
:103A0000589B00081C9B00082DE9F04106460C4617
:103A100017460025012C04D0052C07D0062C07D111
:103A200005E004F0F7F80020BDE8F08103E002E0D3
:103A30004FF0FF3500BF00BF2846F5E7FFB517463A
:103A40006C4A8BB012680024189E1A981D46002AF2
:103A500011D0169B199802930590159B1498019309
:103A6000179C00900496039414682B463A460B98D2
:103A7000A0470FB0F0BD4A19521E96460B9A159BEF
:103A8000D219521E0092149A1A43012A07D016988E
:103A90000822101A0091059000200790A7E0564ACE
:103AA0000A231268D35E94465A1A002A06DDAD1A1C
:103AB000002DDEDD1946179B5A43961962460E23E8
:103AC000D35E7246D21A002A02DDAD1A002DD0DD77
:103AD00062460C23D35E009AD21A002A00DDBF1A78
:103AE0000B9A6346141A08229A5EA2420ADD131B3F
:103AF0001A18FF1A101AD310C0089E19C000041912
:103B00005007400F002FB4DD179B02930490199AC1
:103B1000169805920190039600956046407C3B46BE
:103B2000820036488058C26855680A462146A84730
:103B30009FE7159900980A2340180990401E2E49C6
:103B400004900A68D35E834249DC0E21515E0098DE
:103B5000814244DB002002900B98019000200396E4
:103B600006903AE00298002805D103980478401C9A
:103B700003900820029005992046C8401699169A8D
:103B80008C400299E4B2891A0291002804D11A49A2
:103B90000968097C890718D417490968C96B0A683C
:103BA0000892199A002A02D0820019988058086059
:103BB00014990198049B4218521E0099FFF7F8FBD4
:103BC0000D4908980968C96B086006981499401C4B
:103BD00006900198401801900698B842C2DB0798F9
:103BE000401C079009980090179836180798A8422B
:103BF0009FDB3EE7580000201C000020340000201E
:103C0000002818D0410817D0810817D0C10817D054
:103C1000010917D0410917D0010A17D0410A17D05E
:103C2000010B15D0C10B13D0010C11D0810C11D098
:103C3000000E11D0202070470120704702207047ED
:103C40000320704704207047052070470820704704
:103C500010207047122070471820704700B50022CE
:103C6000FFF7CEFF012804D0811E062903D80822C1
:103C70000BE0012209E001460939072901D8102289
:103C800003E011380F2800D82022104600BD0000A4
:103C900002480068401C0149086070470400002089
:103CA00010B500F001F810BD0CB500200190009097
:103CB0002A48006840F480302849086000BF27483F
:103CC000006800F4003000900198401C01900098BA
:103CD00018B90198B0F5A06FF1D12048006800F440
:103CE000003010B10120009001E000200090009809
:103CF000012831D119484068184948600846406891
:103D000048600846406848600846406820F47C10D7
:103D100048600846406840F49810486008460068CB
:103D200040F08070086000BF0C48006800F0007030
:103D30000028F9D00948406820F00300074948608E
:103D40000846406840F00200486000BF03484068F1
:103D500000F00C000828F9D10CBD00000010024052
:103D60000448006820B103480068401E014908600B
:103D7000704700000000002010B51448006840F0B3
:103D800001001249086008464068114908400F497F
:103D90004860084600680F4908400C49086008461A
:103DA000006820F4802008600846406820F4FE0087
:103DB00048604FF41F0088600020C862FFF770FF62
:103DC0004FF000600449086010BD00000010024080
:103DD0000000FFF8FFFFF6FE08ED00E038B544688C
:103DE00005460146204600F0C5F800281AD028688C
:103DF0000B2818D00F2812D00921890188421CD124
:103E0000E868002806D0007A002801D0012102E0ED
:103E1000022100E00321204600F0C2FD0DE0204613
:103E200004F09EF838BD2046FCF74AFE009044306E
:103E3000FCF7B2FD6846FCF769FE284600F040FB3F
:103E400038BDF0B51446082587B0455F428A8769BA
:103E50004668059702AF64C70222019200910C21C7
:103E6000415E1025C9180A230E22C35E455F825E9B
:103E700018192B4600F002F807B0F0BDF0B585B078
:103E80008C460AAF52CF86460F9801273C4320301C
:103E90001A4F009103900E9D02970194614670465F
:103EA00000F060FA070026D00024002D10D028462C
:103EB000FCF7F2F9401CFCF731FD040008D0FCF7D8
:103EC000FFFD29460190FCF7C3F901A8FCF71EFE8F
:103ED0003846FCF7F5FD002200900D9900F010F92E
:103EE0000098482144640E52054C34301ECC1EC04C
:103EF0006846FCF70BFE384605B0F0BDDD3D000816
:103F00007C0100207CB501240E46054600281DD00A
:103F1000FCF7D6FD0090406C01906846FCF7F6FD7A
:103F2000314601A8FEF7B0FF00280FD00024284634
:103F3000FCF7C6FD0090426C01998A4200D04164B2
:103F40006846FCF7E3FD284600F0C2FC20467CBD35
:103F500010B54FF08040008A00F0010048B1FFF733
:103F600097FE4FF08040008A20F001004FF0804122
:103F7000088210BDFEB501250C46064600285CD01F
:103F8000FCF79EFD01902168162958D008DC0D2908
:103F90003FD011292FD014297DD0152947D126E0F3
:103FA00000271E294ED01F2970D031291DD0032291
:103FB000120291423BD1C16AE2680968C26210688C
:103FC0000C1A01A8FCF7A2FD3046FCF779FD62420D
:103FD000234611460094029001F0CEFA02A8FCF7A5
:103FE00095FD304600F074FC20E0E7601EE03021D3
:103FF000415EE1601AE0408EC00618D5E068007AA4
:10400000002814D001A8FCF781FD304600F0A0FD87
:104010000DE0E068C068002809D0007A002806D0CA
:1040200001A8FCF773FD304600F098F900250198CF
:10403000002802D001A8FCF769FD2846FEBDA18931
:104040000186F3E7E168012907D0408E4108490065
:10405000304600F038F8092509E0418E0125C806F0
:1040600000280EDA2943304600F02DF8082501A873
:10407000FCF74CFD2946304600F092FCB5E70AE01B
:1040800004E001A8FCF742FDE560CFE7408EC006E2
:10409000C00FE060CAE7E16800F026F8C6E738B56F
:1040A0000C4605000ED0FCF70BFD0090418E224619
:1040B0008A4304D021434186284600F009FC684623
:1040C000FCF724FD38BD38B50C460546FCF7F8FC76
:1040D0000090418EA14203D04486284600F0F8FBB0
:1040E0006846FCF713FD38BD70B50C46054600F078
:1040F000A8FEE86A214602680846FEF7AFFE70BDDA
:10410000024B1B68C3624286018670478C01002007
:10411000FEB5456804462846FCF7D2FC0090816B4A
:104120000191076C466B6846FCF7F0FC20681F287D
:1041300033D006DC0E2857D00F2862D01E2868D155
:1041400012E020282ED0222868D02A2861D12846C3
:10415000FCF7B6FC0090E168002901D0C16301E0E2
:10416000C06BE060684634E0E068012810D1019837
:1041700000F00EFC00280CD0019800F0E9FC01983A
:1041800000F0F8FA002803D001210198FFF787FF1B
:10419000FEBD284600F02CFDFEBD21462846FFF757
:1041A000E9FEFEBD2846FCF78BFC0190E468002C7C
:1041B0000ED02946606801F020F800280CD029466E
:1041C000606801F008F8002802D0606801998863EF
:1041D00001A8FCF79BFCFEBD2946206800F0FBFF10
:1041E0000028F5D02068F1E7E0684168002910DD7B
:1041F00000680928CDD00A280BD1284600F001FD1F
:10420000FEBD0948874204D03846FFF721FBFCF782
:10421000BFFC002E204603D0B047FEBDE760FEBDC8
:1042200000F04EF9FEBD0000FFFFFF0FF0B587B0B4
:10423000144608250C9E455F00228769029203AA56
:10424000E0C2428A019200910C21415E1025C918FA
:104250000A230E22C35E455F825E18192B4600F0CA
:1042600003F807B0F0BD0000F0B585B00F9C104F0B
:104270000A9E0B9D1834029700960195039400F056
:1042800071F8040011D0FCF71BFC102204900D996A
:10429000FFF736FF04980E994163002181630549B9
:1042A0000968016404A8FCF731FC204605B0F0BDA4
:1042B00011410008A800002038B50C460546FCF75F
:1042C000FFFB009004646846FCF720FC284600F0E1
:1042D000FFFA38BD0248012100684030017570477F
:1042E0001C000020F0B589B0040035D0FCF7E8FBD5
:1042F000019006C805920491076A856901A8FCF738
:1043000005FC204600F0F4FD060025D0204600F014
:104310001EFA0290B80704D52A4604A8029900F0B4
:1043200055FF2046FCF7CCFB01900298FCF7C8FB38
:1043300006903046FCF7C4FB039005620698019A8C
:10434000C1691162C46101A8FCF7E0FB06A8FCF793
:10435000DDFB03A8FCF7DAFB09B0F0BD10B501F0F6
:1043600035FA10BDFFB507464C4887B0119C8069EF
:10437000109D04430E46002D0AD14848408800286D
:104380002AD047480068407C810044484430455862
:10439000681C0FD0002D1FD02846FCF791FB02901F
:1043A00000210222415E825E099BCF199619002BE3
:1043B00002D006E000250FE00423C35E591A491C11
:1043C00009910A99002904D10621415E881A401CEE
:1043D0000A9002A8FCF79AFB13982C30FCF79EFA7F
:1043E0000490002856D02D482C494088401C488015
:1043F0000498FCF765FB0090078046800999294ADC
:104400007918491E81800A9922407118491EC1807D
:1044100012990161816A114381626846FCF776FB5B
:104420001E48049E006900280AD0FCF787FB074657
:104430003046FCF783FB0146786948617E6101E004
:10444000164806612946049800F0EEFDA00602D544
:10445000049800F03DFBE00703D01048416A491C76
:104460004162600602D50498FFF73CFFA0070DD516
:104470000498FCF725FB0090816A022211438162B7
:104480006846FCF743FB049800F022FA01210498E7
:1044900001F06BF804980BB0F0BD0000AC000020F8
:1044A0001C0000209F3F3F0010B504480021006819
:1044B00040300175FFF7F6F910BD00001C00002028
:1044C00010B5044622684068E168172A0DD004DC64
:1044D0000E2A0CD0142A07D104E0222A0BD0282A55
:1044E00002D10AE000F09DFC0020E06010BD2146F2
:1044F00000F016FB10BD0248F7E700F0E9F910BD27
:10450000FFFFFF0F38B504000BD0FCF7D9FA00907D
:104510000068FDF71BFB6846FCF7F8FA2046FCF73D
:1045200017FA38BDF8B5050069D000F081FE002803
:1045300065D0284600F0EEFC07460B21284601F026
:1045400014F8284600F01BFC2846FCF7B9FA009046
:10455000406A002801D0FCF793FE294C00216163DA
:10456000E068224680005C321358AB4200D1115003
:10457000234A54321358AB4200D11150606904E011
:104580004368AB4200D1416000680028F8D10721A0
:10459000284600F005FA009801F09AFA284600F043
:1045A00015FC20690CE0FCF7C9FA0646406929466B
:1045B000A84205D10846FCF7C1FA4069706101E0E4
:1045C0000028F0D10098806AC10702D0616A491EB4
:1045D0006162800602D5A088401EA0806846FCF774
:1045E00095FA6088401E60802846FCF7B1F9002FDC
:1045F00005DB0349B8004431085800F069FAF8BDFA
:10460000AC000020F8B51E4C0025206B002802D01D
:10461000804700E0012502F001FE0028FAD1194E82
:1046200030684030007D002809D0A088002806D0DE
:10463000206A0127002804D00068804704E0002792
:1046400002E00120FEF738FB30684030007D002892
:1046500009D0A088002806D002F062FCA0880028BB
:1046600001D00125F0E7002F08D0206A002802D0F1
:104670004068804702E00020FEF71EFB2846F8BD98
:10468000AC0000201C00002010B500F0B4FB10BDF1
:10469000014610B504480068002802D103480068AC
:1046A000806C00F005F810BDD40000201C00002034
:1046B00010B500F0B6FB10BD1FB500210391172106
:1046C0000091694600F022FA039804B010BD000082
:1046D000034804490068407C800008587047000087
:1046E0001C000020F0000020024610B50020002A27
:1046F00002D0104603F0BDF810BD10B5002802D05E
:10470000FCF71CFAC06910BD02480349006880002C
:1047100008587047B800002008010020014610B575
:104720000020002905D00846FCF708FA008DC007D4
:10473000C00F10BD1FB500210191029103911521F9
:104740000091694600F0E2F9039804B010BD10B57D
:10475000002802D0FCF7F2F9806910BD014610B5BF
:104760000020002905D00846FCF7E8F901460020A2
:10477000085E10BD0549064A096889005158814202
:1047800001D101207047002070470000B8000020D0
:1047900008010020F0B5274D85B06878002846D183
:1047A00000272F6124486F6300682E464764AF805E
:1047B0006F803C4644362046FCF712FB002814D09C
:1047C0000221CA1E1D48009201910290920C002104
:1047D000039713460846FFF7C5FD164BA10070501E
:1047E000174A4C335A5000F073F8641C022CE2DB79
:1047F00000241448E700381800F088FA12483818E6
:1048000000F084FA1148381800F080FA641C022C79
:10481000EFDB306800F05CF9FFF75CFD0120054933
:1048200068700B483C3108600846FEF725FB05B070
:10483000F0BD0000AC0000201C0000202D8F0008FF
:10484000FFFFFF0FC0830020D0830020E083002003
:10485000F57E000870B586B00E4605002DD0FCF739
:104860002FF90090846AA10724D503C80190029112
:10487000E00302D5284600F02FFC002E0CD00822C1
:10488000314603A8FBF727FD03A9009800F046FA7C
:1048900003A901A8FEF7CAF9294601A800F048FAC1
:1048A000002807D009480440012C08D001A9284657
:1048B00000F00CFC6846FCF729F906B070BD0098C2
:1048C000026A816901A800F081FCF3E70108000099
:1048D00010B50021FFF7BEFF10BD10B504000FD0CA
:1048E000FFF7F6FF2046FFF708FF044606E02046E4
:1048F000FFF7F3FF2046FCF721F9046A002CF6D1FC
:1049000010BDFEB515460E4604001CD0FCF7D8F8C5
:1049100002460090008D800712D5314601A8FEF7AF
:10492000A2F900280CD06846FCF7F0F82A4601A945
:10493000204603F0DDF92046FFF7DFFE04460CE0D9
:104940006846FCF7E3F8FEBD2A4601A92046FFF7BA
:10495000D8FF2046FCF7F2F8046A002CF4D1FEBD23
:104960007FB50024054600280FD0FCF7E7F8806AE1
:1049700081070AD5C00608D4002003901F200090AC
:104980006946284600F0C2F8039C04B0204670BD7A
:1049900010B500F04DFC10BD10B500F05BFC10BD73
:1049A0001FB5262203910092694600F0B9F81FBD99
:1049B00010B50B4B02461B6800209C00094B86B0CB
:1049C0001B59002B0AD005910E20009004A80390DB
:1049D00004926946184600F097FD012006B010BD0C
:1049E000B80000200801002070B5054616460846AC
:1049F0008AB00C46304369D0002D67D02846FCF7BA
:104A00005FF8059006C8083803910492029201915C
:104A1000002C0DD0816A0A0606D5890504D46A46A1
:104A20009188091B918003E06A4611890919118157
:104A3000002E0DD0816ACA0506D5490504D46A4600
:104A4000D188891BD18003E06A4651898919518137
:104A5000806AC00302D5284600F03EFB0199059804
:104A6000029A06C0008C80070AD501AA03A908A8EB
:104A7000FCF730FF0598026A816908A800F0A6FBE0
:104A800068460A211222415E825E0C24881A009038
:104A9000684608211022415E825E045F8B1A06215F
:104AA0000E22415E825E8A1A0421415E0598091B2E
:104AB00000F062FD059908460830FEF7B7F80521B9
:104AC000284600F052FD05A8FCF720F80AB070BD9A
:104AD00070B50C4D04002868866C01D10A490C6938
:104AE0008464204600F007FDFEF7DCFE2046FCF75C
:104AF00025F800222968825ECA640222825E30465E
:104B00000A6570BD1C000020AC00002010B5002814
:104B100001D000F0F9FC10BD10B500F013FD10BD80
:104B200070B50C00054607D0FFF711FE002803D032
:104B30002146A56000F0E8FC70BD000010B5FBF751
:104B400063FD024900200968486410BD1C00002074
:104B5000F0B50446002087B00290039004900590C1
:104B6000002C3DD0204D214E286880003058A042B6
:104B700036D01E21019402910090002802D002A993
:104B800000F0C2FC0120059002A9204600F0BCFC08
:104B90000598002802D1286880003450059F2026FF
:104BA0006D46002F05D01CE002A90296059500F085
:104BB000ABFC2046FFF7CBFD0400F5D1009C20465E
:104BC000FFF7E6FE002805D10BE002A90296059545
:104BD00000F09AFC2046FFF7BAFD0400F5D100E092
:104BE0000127384607B0F0BDB800002008010020BA
:104BF000014610B50020002902D0084603F0ACFBA6
:104C000010BD70B501460020002919D0084600F0FB
:104C10002DF902F0CAFE05462C4605E0204602F0BA
:104C2000C4FE0446A84205D0FFF79AFE002801D131
:104C3000002CF3D12046FFF78BFF002801D0002085
:104C400070BD204670BDF8B516460C46050018D05C
:104C5000FBF736FF009004210022415E825E891A34
:104C6000641A06210222415E825E641E881A361A88
:104C70006846761EFBF74AFF324621462846FFF774
:104C8000B3FEF8BD10B5044909684C6C486400F0E7
:104C900019F8204610BD00001C00002038B50400A3
:104CA0000ED0FBF70DFF0090816A8A0705D402221F
:104CB000114381622046FFF710FE6846FBF726FF8E
:104CC00038BD00000EB50E4854210068095C00296B
:104CD00001D00C4811E0806CFBF7F2FE009003C895
:104CE000019002916846FBF711FF0748816A00298D
:104CF00002D001A800F01CF801A803F0E1FA0EBDF3
:104D00001C00002028830020AC00002002490A6813
:104D10000260086070470000C000002010B50B461C
:104D200002220021825E415E1846FCF700FE10BDA3
:104D300038B50C4605462046FBF7C2FE01460090FA
:104D4000008D800703D46846FBF7E0FE13E0284699
:104D5000FDF76CFF00988069002804D0044668467F
:104D6000FBF7D4FEE7E76846FBF7D0FE204600F0ED
:104D7000B9FE002801DA002038BD012038BDF8B5A1
:104D800005466846FCF702FF1CE001212046FCF7BF
:104D9000E9FE0099002911D000280FD00846FBF742
:104DA000CDFE4068A84209D169462046009EFCF726
:104DB00003FF04463046FFF7A5FB04E069462046A2
:104DC000FCF7FAFE0446002CDFD1F8BD38B50446E6
:104DD000FBF776FE00908169002908D0026A00F096
:104DE000F5F9204600F068FB0099002088616846CC
:104DF000FBF78CFE38BD70B516460D46FBF79EFEE0
:104E0000C4690BE031462046A84732462946204671
:104E1000FFF7F1FF2046FBF791FE046A002CF1D169
:104E200070BD38B50C4600280AD0002C08D0FBF71E
:104E300047FE2146009000F004F86846FBF766FE46
:104E400038BD00224A800A8082880388D21A8A806C
:104E5000C2884088101AC880704710B5FFF777FCE9
:104E6000002802D0FBF76AFEC06910BD70B5084D7E
:104E700001462868074E80000024305800F0C5F92C
:104E8000002802D0286880003458204670BD0000F9
:104E9000B80000200801002010B5040006D0FBF780
:104EA0004DFE006A002801D00446F8E7204610BDF8
:104EB00010B50D4800684030007D002806D00B4C2E
:104EC0006069012803DD401E6061002010BD20697B
:104ED000401C206102F0A0FA002803D0FFF7F2FE88
:104EE000012010BD6069EEE71C0000202083002037
:104EF00070B50546FFF7B1FF08E0AC4201D10024D0
:104F000006E0FBF71BFE006AA84201D00400F4D1C2
:104F1000204670BD10B50446FBF710FE80690028DE
:104F2000F9D1204600F0DEFD10BD0000F0B53B4E8B
:104F3000074630685421095C87B0002908D0384CF6
:104F40006169491C6161012905DD012007B0F0BDDF
:104F5000FFF7B8FEF9E7806CFBF7B2FD0021C9430B
:104F60000090304D21612978002906D0014602A821
:104F700008220831FBF7AFF905E0018D89073ED51E
:104F800003C803910290002F03D0394602A8FDF711
:104F90004DFE3068406C002838D00098049030688E
:104FA0000822416C05A8FBF796F9A86A002806D0EC
:104FB00004A8FBF7ABFDA86AFBF782FD049005A9E6
:104FC0000498FFF7ABFE05A902A8FDF72FFE04A881
:104FD000FBF79CFDA96A002904D002A8FFF7A8FEF0
:104FE000002815D03068816C02A8FFF7A1FE0028C8
:104FF0000ED00298039903C4FFF75AFFA6E7606931
:10500000401E60616846FBF781FD04E06846DFE70B
:105010006069401E6061002098E700001C000020CD
:1050200020830020AC000020FEB50D00044647D0D0
:10503000FBF746FD00900021856101622846FBF7E1
:105040003FFD02900099C5698E6A08210E40002D2F
:1050500006D02846FBF734FD0190002E06D014E060
:10506000C4616846FBF752FD02A827E0008D0007E7
:105070000BD5009805620298C4616846FBF746FDAF
:1050800002A8FBF743FD01A818E002A8FBF73EFDCC
:1050900001A8FBF73BFD2846FBF750FD11E0046239
:1050A0000BE02846FBF74AFD002E0AD1018D0907C7
:1050B00007D501980462009805626846FBF726FD53
:1050C000FEBD0190056A002DEBD1E8E710B5202266
:1050D00002F00EFE10BD000038B5040022D0FBF730
:1050E000EFFC0090018D890719D5406A002808D08F
:1050F0000D49C96AA14204D0FCF7C2F8009900200A
:1051000048622046FFF7F9FA044606E02046FFF71A
:10511000E3FF2046FBF712FD046A002CF6D1684637
:10512000FBF7F4FC38BD0000AC00002070B506466B
:1051300015460C460846FBF701FD806AC00302D500
:1051400001239B0300E020232A462146304600F03D
:1051500001F870BDFFB585B016460D00074631D089
:105160000846FBF7ADFC0090846A0246A00726D5EE
:10517000394602A8FDF777FD002820D012480440E8
:10518000012C07D002A92846089A02F0B1FD009828
:10519000C46912E00098089B026A816902A8FFF7BF
:1051A000D9FFF4E7B4420AD002A92046089AFFF7D3
:1051B000A8FB2046FBF7C2FC046A002CF2D168462B
:1051C000FBF7A4FC09B0F0BD0108000010B52023D6
:1051D000FFF7C0FF10BD70B500250C4600280AD0AF
:1051E000002C08D0FBF7AAFC8069A04201D1012560
:1051F00001E00028F6D1284670BD10B5884201D1E3
:10520000012010BDFFF7E7FF10BD38B500240D46A3
:1052100000280BD0FBF754FC0090002803D08069D5
:10522000A84200D101246846FBF770FC204638BD37
:1052300010B504460648006906E0A04201D10120ED
:1052400010BDFBF77BFC40690028F6D110BD0000C3
:10525000AC000020F0B5064600208BB015460C4689
:105260000290039004900590002E3ED008462843FB
:105270003BD03046FBF724FC009006C8089207910B
:105280002A4621460838FCF752FB00982A46214658
:105290000830FCF74CFB0098C7696846FBF736FC02
:1052A0002A462146384602F0B6FD3046FBF708FC98
:1052B0000090018D89070BD58169002908D0026A09
:1052C000FFF734FF0098026A816907A8FFF72EFFF5
:1052D0006846FBF71BFC0320029009A80A9505907D
:1052E00002A90994304600F00FF90BB0F0BD0000A0
:1052F000F1B588B000240898FBF7E2FB0190C26882
:1053000081680492039107698669856A01A8FBF7A1
:10531000FDFB1D48054234D0002F1DD003A808997D
:10532000FFF706FD002817D00898FFF7D1FB6807A4
:105330000ED5002E0AD0E807C017401C00900023AD
:1053400008AA124903A8FBF7BBFF05E00120F5E717
:10535000089800F065F801240898FBF7B1FB01906C
:10536000094A816AD243114081628A0402D504222B
:105370001143816201A8FBF7C9FB05498888401EDB
:105380008880204609B0F0BD20400000CD8F000885
:10539000AC000020F0B589B00546FBF791FB029008
:1053A000866A083013C80090019102A8FBF7AEFB93
:1053B000002C30D0B0072ED52E212846FFF7ACFBAD
:1053C000164C6F462078401C2070F0040F260028F1
:1053D00009DA079704960595FFF7B0FB04A928465C
:1053E00000F092F810E03846FFF7A0FD0AE00797BA
:1053F00004960595FFF7A2FB04A9284600F084F85F
:10540000FFF756FD0028F2D120782F21401E207092
:105410002846FFF781FB09B0F0BD0000AC0000207A
:1054200038B50446FBF74CFB0090806A18490840E9
:10543000012805D06846FBF769FB204602F0C8FD4D
:105440001448406A002822D0204602F017FE204669
:10545000FBF774FB8569046A17E02046FBF76EFBD7
:10546000008DC043800702D1204602F0C3FD2046D4
:1054700002F004FE2046FBF761FB046A002CECD12D
:105480002846FBF75BFB8569046A002DF6D138BD21
:1054900001080000AC00002000210422415E825E71
:1054A000914205DC02210622415E825E914201DDCD
:1054B000002070470120704770B50646FBF73EFBA1
:1054C00005468069002809D0FBF738FB0446C0690F
:1054D000B0420DD1FBF732FB006AE06170BDFBF713
:1054E0002DFB0146006AB04202D1286A086270BDF5
:1054F0000028F4D170BD10B5FFF70CFD002801DBCA
:10550000FCF7A2FA10BD000070B50D4C06462068ED
:105510000D4614280EDA3046FBF710FB01696E6069
:10552000002908D02068401C206028468847206851
:10553000401E206070BD2846FEF7C2FF70BD00000F
:10554000900100207FB50546002000900190029058
:1055500003900C462846FBF7F1FA0269002A03D0B3
:1055600068460195009490477FBD1FB5009101905A
:105570006946FFF7C9FF1FBDFFB58DB0C46978E06C
:105580002046FBF79DFA0A9006C80C920B910892F0
:105590000791016A0520C0010A460240802A2BD0EB
:1055A00082420BD16846828B0E981218684682831D
:1055B000028C10981218684602840AE06A46928BA0
:1055C0000E9810186A469083128C0E9810186A462E
:1055D0001084052000020140FF39491E10D001202F
:1055E000800281426846C18B0F980CD0091868462A
:1055F000C183418C0F980BE06846828B1098D4E7EA
:105600006846C18B169809186846C183418C169864
:105610001C270918684641842C26C75F865F1E2216
:10562000825E2E250392B91B455F0846521B10432C
:1056300002D02046FFF7B0F9684620213022415EB3
:10564000825EC91B901B091A68462222825E03985B
:105650003223121A6846C35E581B121A08461043BA
:1056600002D02046FFF7C0F90A98046A0AA8FBF79F
:105670004DFA002C84D111B0F0BD0000F8B5244DD6
:105680000C460646E968A86B4118A019491E8842D5
:1056900006D80168002903D141688E1902F06CFD1B
:1056A000A86BA0420CD220468038C06F271A3868F9
:1056B000002805D178688619384602F05DFD3C4621
:1056C000304602F037F910281FD2C0004719324681
:1056D000002120467B6C02F0F9FF786C08344437D7
:1056E000002800D044602060002060603C60286892
:1056F0000749801920312860497A002905D1E968D5
:10570000081AA968814200D2A8603046F8BD00009E
:10571000E4810020F8B5054602F096FA2A490C6C9F
:10572000AC4202D8ED1CAC08A40027480C34006839
:10573000A04201D20020F8BD02F0ECFC071EFAD016
:10574000204602F0F7F8204932E0C2005218526CAD
:10575000002A2CD09568002D29D06B68A34208D26E
:10576000AA68002A23D09568002D20D06B68A34238
:10577000F6D31548191B006C1E460C30814200D22E
:105780003446284602F0F8FC0F480023416BF8002D
:10579000001D0D5022463946284602F097FFA642CA
:1057A00003DD2919301BFFF769FF3846F8BD401C9F
:1057B0001028CAD3204602F029FD0028C0D0384660
:1057C00002F0C8FCB6E70000E48100207CB50400CC
:1057D00015D0FBF775F90090016A002910D0008DF3
:1057E000000712D40846FBF76BF90190008D000703
:1057F00008D56846FBF78AF901A8FBF787F97CBD55
:105800006846FAE701A8FBF781F9009885696846C0
:10581000FBF77CF92046FFF74FFE29462046FFF7AD
:1058200003FC2046FFF754F8002202492046FEF709
:105830002BFF7CBDC58F000801207047F0B49C464B
:105840000E4B1C68002C03D06346A446F0BC604796
:105850000B4D0C4F10C8E3B2EE5C23041B0E240268
:10586000FB5C240E2C5D5B011B19F4021B190B80E1
:105870006144521EEED1F0BC704700009800002039
:10588000449C0008449D000810B510C80C60C9185D
:10589000521EFAD110BD0000F1B582B0FDF7CAFD6D
:1058A000074600200F4C05460090FDF7E1FD06007D
:1058B00016D0A80031580298814201D12846FEBD79
:1058C0006D1CBD42F5DB0025A80031580298FBF79E
:1058D00041F9A04201D2044600956D1CBD42F3DBA4
:1058E0000098FEBDFFFFFF007047000010B50304E5
:1058F000C2B20649064C1B0E0002E35C000E8A5C35
:10590000085C59010818D102401810BD449C0008D9
:10591000449D0008FFB581B00B9F039E0C460546D1
:10592000009128880A99AD1C8847B84701C4761EA3
:10593000F7D10498202804D2024603990098FCF776
:105940005FFD05B0F0BDFFB581B00B9F039E0C4617
:105950000546009128780A996D1C8847B84701C40C
:10596000761EF7D10498202804D2024603990098A5
:10597000FCF746FD05B0F0BDF1B58AB00A98FBF71B
:105980009FF8059006C802920191C069009005A891
:10599000FBF7BCF8684608210427415EC75F06266E
:1059A000CD1B0A21415E865F6D1C8C1B641C002D83
:1059B00001DD002C02DC00200BB0F0BD00980028B7
:1059C00016D0FBF77DF8079004250624455F045F99
:1059D00007A8FBF79BF869460420085EA84201D19E
:1059E000A6425ED0324639460098FBF791FD58E05A
:1059F000FEF76EFE0A99814214D1FDF75DFD01901C
:105A0000FDF774FD01998D4201DC84420ADD8D426F
:105A100000DD0D46844200DD0446224629460A98F0
:105A2000FFF711F9254A264901206B4607C3314685
:105A3000384623462A46FBF7D1FD06460A98FBF76F
:105A40003FF805904662002E30D00122816A120490
:105A50001143816205A8FBF759F83046FBF734FD86
:105A600007460120FCF7B8FC3046FBF7E2FC15497D
:105A70006543AA000978FDF77BFA134E0A98134C88
:105A8000306025680A98FEF769FE20600A98FFF7E3
:105A900081FC002025603060FCF79EFC3846FBF757
:105AA00013FD0A98FBF74AF8406A85E705A8FBF75B
:105AB0002DF80A98FFF76EFC7DE7000098A6000815
:105AC0005CAF000878010020D800002050000020C2
:105AD00010B50446E069FEF725FDE0690028F9D11C
