:020000040800F2
:1000000078060020D1010008D9010008DB010008B2
:10001000DD010008DF010008E10100080000000028
:10002000000000000000000000000000E3010008E4
:10003000E501000800000000E70100084D0300088A
:10004000EB010008EB010008EB010008EB010008E0
:10005000EB010008EB010008EB010008EB010008D0
:10006000EB010008EB010008EB010008EB010008C0
:10007000EB010008EB010008EB010008EB010008B0
:10008000EB010008EB010008EB0100080000000094
:10009000000000000000000000000000EB0100086C
:1000A000EB010008EB010008EB010008EB01000880
:1000B000C9030008EB010008EB010008EB01000890
:1000C000EB010008EB010008EB010008EB01000860
:1000D000EB010008EB010008EB010008EB01000850
:1000E000EB010008EB010008EB010008EB01000840
:1000F000EB010008EB010008000000000000000018
:100100000000000000000000EB010008EB01000807
:10011000EB010008EB010008EB010008EB0100080F
:10012000EB010008EB010008EB010008EB010008FF
:10013000EB01000800F002F800F03AF80AA090E89D
:10014000000C82448344AAF10107DA4501D100F092
:100150002FF8AFF2090EBAE80F0013F0010F18BF25
:10016000FB1A43F001031847B4020000D402000058
:10017000103A24BF78C878C1FAD8520724BF30C8D3
:1001800030C144BF04680C607047000000230024A5
:1001900000250026103A28BF78C1FBD8520728BF97
:1001A00030C148BF0B6070471FB51FBD10B510BDF3
:1001B00000F031F81146FFF7F7FF00F01FF900F0EB
:1001C0004FF803B4FFF7F2FF03BC00F057F800004C
:1001D0000948804709480047FEE7FEE7FEE7FEE7DB
:1001E000FEE7FEE7FEE7FEE7FEE7FEE70448054917
:1001F000054A064B704700006503000835010008FA
:100200007800002078060020780200207802002084
:10021000704770477047754600F02CF8AE460500F1
:100220006946534620F00700854618B020B5FFF711
:10023000DDFFBDE820404FF000064FF000074FF013
:1002400000084FF0000B21F00701AC46ACE8C009F4
:10025000ACE8C009ACE8C009ACE8C0098D467047FD
:1002600010B50446AFF300802046BDE81040FFF70C
:10027000A8BF000000487047140000200149182062
:10028000ABBEFEE726000200704710B500F002F892
:1002900010BD00000CB50020019000902A480068B5
:1002A00040F480302849086000BF2748006800F407
:1002B000003000900198401C0190009818B90198F6
:1002C000B0F5A06FF1D12048006800F4003010B103
:1002D0000120009001E0002000900098012831D119
:1002E0001948406818494860084640684860084610
:1002F000406848600846406820F47C104860084622
:10030000406840F4981048600846006840F08070EB
:10031000086000BF0C48006800F000700028F9D0A9
:100320000948406820F003000749486008464068D3
:1003300040F00200486000BF0348406800F00C0035
:100340000828F9D10CBD00000010024004480068E4
:1003500020B103480068401E014908607047000052
:100360001000002010B51448006840F00100124948
:10037000086008464068114908400F49486008462F
:1003800000680F4908400C4908600846006820F4DE
:10039000802008600846406820F4FE0048604FF462
:1003A0001F0088600020C862FFF76FFF4FF00060F9
:1003B0000449086010BD0000001002400000FFF872
:1003C000FFFFF6FE08ED00E04FF08040008A00F0ED
:1003D000010080B10848036840685A1C40F10000E1
:1003E00005490A6048604FF08040008A20F0010013
:1003F0004FF0804108827047000000200CB5F320C8
:100400000190002000909DF804004FF4FF4101EAA4
:10041000C01040F40040009000BFFEE73C0400081C
:1004200000000020140000007001000850040008C3
:1004300014000020640600008C0100080000000089
:1004400000000000000000000000000000000000AC
:04000005080001D11D
:00000001FF
