:020000040800F2
:1000000088060020D1010008D9010008DB010008A2
:10001000DD010008DF010008E10100080000000028
:10002000000000000000000000000000E3010008E4
:10003000E501000800000000E70100084D0300088A
:10004000EB010008EB010008EB010008EB010008E0
:10005000EB010008EB010008EB010008EB010008D0
:10006000EB010008EB010008EB010008EB010008C0
:10007000EB010008EB010008EB010008EB010008B0
:10008000EB010008EB010008EB0100080000000094
:10009000000000000000000000000000EB0100086C
:1000A000EB010008EB010008EB010008EB01000880
:1000B000C9030008EB010008EB010008EB01000890
:1000C000EB010008EB010008EB010008EB01000860
:1000D000EB010008EB010008EB010008EB01000850
:1000E000EB010008EB010008EB010008EB01000840
:1000F000EB010008EB010008000000000000000018
:100100000000000000000000EB010008EB01000807
:10011000EB010008EB010008EB010008EB0100080F
:10012000EB010008EB010008EB010008EB010008FF
:10013000EB01000800F002F800F03AF80AA090E89D
:10014000000C82448344AAF10107DA4501D100F092
:100150002FF8AFF2090EBAE80F0013F0010F18BF25
:10016000FB1A43F0010318474C0600006C06000020
:10017000103A24BF78C878C1FAD8520724BF30C8D3
:1001800030C144BF04680C607047000000230024A5
:1001900000250026103A28BF78C1FBD8520728BF97
:1001A00030C148BF0B6070471FB51FBD10B510BDF3
:1001B00000F031F81146FFF7F7FF00F089FA00F080
:1001C0004FF803B4FFF7F2FF03BC00F057F800004C
:1001D0000948804709480047FEE7FEE7FEE7FEE7DB
:1001E000FEE7FEE7FEE7FEE7FEE7FEE70448054917
:1001F000054A064B704700006503000835010008FA
:100200008800002088060020880200208802002044
:10021000704770477047754600F02CF8AE460500F1
:100220006946534620F00700854618B020B5FFF711
:10023000DDFFBDE820404FF000064FF000074FF013
:1002400000084FF0000B21F00701AC46ACE8C009F4
:10025000ACE8C009ACE8C009ACE8C0098D467047FD
:1002600010B50446AFF300802046BDE81040FFF70C
:10027000A8BF000000487047240000200149182052
:10028000ABBEFEE726000200704710B500F002F892
:1002900010BD00000CB50020019000902A480068B5
:1002A00040F480302849086000BF2748006800F407
:1002B000003000900198401C0190009818B90198F6
:1002C000B0F5A06FF1D12048006800F4003010B103
:1002D0000120009001E0002000900098012831D119
:1002E0001948406818494860084640684860084610
:1002F000406848600846406820F47C104860084622
:10030000406840F4981048600846006840F08070EB
:10031000086000BF0C48006800F000700028F9D0A9
:100320000948406820F003000749486008464068D3
:1003300040F00200486000BF0348406800F00C0035
:100340000828F9D10CBD00000010024004480068E4
:1003500020B103480068401E014908607047000052
:100360001000002010B51448006840F00100124948
:10037000086008464068114908400F49486008462F
:1003800000680F4908400C4908600846006820F4DE
:10039000802008600846406820F4FE0048604FF462
:1003A0001F0088600020C862FFF76FFF4FF00060F9
:1003B0000449086010BD0000001002400000FFF872
:1003C000FFFFF6FE08ED00E04FF08040008A00F0ED
:1003D000010080B10848036840685A1C40F10000E1
:1003E00005490A6048604FF08040008A20F0010013
:1003F0004FF08041088270470000002000B5994806
:10040000006840F40010974908600846006840F012
:10041000200008600846006840F4001008600846A4
:10042000006840F020000860112000F01DF942F241
:10043000040000F089F9132000F016F94FF44C4045
:1004400000F082F9152000F00FF94FF4185000F079
:100450007BF9142000F008F942F22A5000F074F9F8
:10046000122000F001F9332000F06EF9132000F0A3
:10047000FBF84CF6444000F067F9132000F0F4F864
:100480004CF6064000F060F9132000F0EDF84CF651
:100490004F4000F059F9132000F0E6F846F24F7093
:1004A00000F052F9112000F0DFF842F2030000F0F2
:1004B0004BF9302000F0D8F842F2096000F044F91E
:1004C000312000F0D1F842F22C4000F03DF932200A
:1004D00000F0CAF841F6237000F036F9332000F03E
:1004E000C3F842F2254000F02FF9342000F0BCF8A8
:1004F00042F2262000F028F9352000F0B5F842F24B
:10050000235000F021F9362000F0AEF841F61A40F1
:1005100000F01AF9372000F0A7F841F21D3000F082
:1005200013F9382000F0A0F840F6113000F00CF973
:10053000392000F099F841F2102000F005F93A2036
:1005400000F092F841F2153000F0FEF83B2000F088
:100550008BF843F2196000F0F7F83C2000F084F8C3
:100560004FF4506000F0F0F83D2000F07DF80D20D1
:1005700000F0EAF8162000F077F8072000F0E4F821
:10058000022000F071F8132000F0DEF8032000F0E4
:100590006BF8012000F0D8F8012000F065F840F277
:1005A000271000F0D1F8082000F05EF840F2033088
:1005B00000F0CAF80A2000F057F80B2000F0C4F849
:1005C0000B2000F051F8032000F0BEF80C2000F0E2
:1005D0004BF8002000F0B8F84C2000F045F800205F
:1005E00000F0B2F8502000F03FF8002000F0ACF826
:1005F000602000F039F8052000F0A6F8702000F027
:1006000033F80B2000F0A0F8712000F02DF8002046
:1006100000F09AF8782000F027F8002000F094F815
:100620007A2000F021F8002000F08EF8792000F008
:100630001BF8072000F088F8072000F015F851207B
:1006400000F082F8072000F00FF8532000F07CF84B
:10065000792000F009F8002000F076F8222000F060
:1006600003F800BD100C01400021164A1180C1B2F0
:1006700041F480715180C1B29180C1B241F4807166
:10068000D1801149096841F400310F4A11601146C7
:10069000096841F480311160002105E0094A32F80F
:1006A00011200A4B1A60491C0429F7DB0649096826
:1006B00041F00201044A11601146096841F001014C
:1006C0001160704714000020100C01400C0801401C
:1006D00000F004F8FFF792FE00BFFEE717488069BC
:1006E00040F01D00154988611548006820F004009D
:1006F000134908600846006840F003000860081FBE
:10070000006800F0BB30091F08600846006840F030
:10071000333008600B48406820F480000949486085
:100720000846406840F4401048600548001F0068D3
:1007300040F004000249091F0860704700100240A1
:100740000408014000100140C0F30721164A11803F
:10075000C0F3072141F480715180C1B29180C1B2D0
:1007600041F48071D1801149096841F002010F4ABA
:1007700011601146096841F480311160002105E0E3
:10078000094A32F811200A4B1A60491C0429F7DB88
:100790000649096841F00201044A116011460968DE
:1007A00041F00101116070471C000020100C014055
:1007B0000C080140D40700080000002024000000BD
:1007C00070010008F80700082400002064060000FB
:1007D0008C01000800000000000000000000000084
:1007E0000000000000000000000000000000000009
:0807F000000000000000000001
:04000005080001D11D
:00000001FF
