:020000040800F2
:1000000058092020D1010008D9010008DB010008AF
:10001000DD010008DF010008E10100080000000028
:10002000000000000000000000000000E3010008E4
:10003000E501000800000000E7010008D91E0008E3
:10004000EB010008EB010008EB010008EB010008E0
:10005000EB010008EB010008EB010008EB010008D0
:10006000EB010008EB010008EB010008EB010008C0
:10007000EB010008EB010008EB010008EB010008B0
:10008000EB010008EB010008EB0100080000000094
:10009000000000000000000000000000EB0100086C
:1000A000EB010008EB010008EB010008EB01000880
:1000B000551F0008EB010008EB010008EB010008E8
:1000C000EB010008EB010008EB010008EB01000860
:1000D000EB010008EB010008EB010008EB01000850
:1000E000EB010008EB010008EB010008EB01000840
:1000F000EB010008EB010008000000000000000018
:100100000000000000000000EB010008EB01000807
:10011000EB010008EB010008EB010008EB0100080F
:10012000EB010008EB010008EB010008EB010008FF
:10013000EB01000800F002F800F03AF80AA090E89D
:10014000000C82448344AAF10107DA4501D100F092
:100150002FF8AFF2090EBAE80F0013F0010F18BF25
:10016000FB1A43F00103184780620000A062000000
:10017000103A24BF78C878C1FAD8520724BF30C8D3
:1001800030C144BF04680C607047000000230024A5
:1001900000250026103A28BF78C1FBD8520728BF97
:1001A00030C148BF0B6070471FB51FBD10B510BDF3
:1001B00000F04EF91146FFF7F7FF05F05BFA00F08B
:1001C0006CF903B4FFF7F2FF03BC00F073F9000011
:1001D0000948804709480047FEE7FEE7FEE7FEE7DB
:1001E000FEE7FEE7FEE7FEE7FEE7FEE70448054917
:1001F000054A064B70470000F11E00083501000853
:100200005803202058092020580520205805202078
:10021000032A40F2308010F0030C00F0158011F832
:10022000013BBCF1020F624498BF11F801CB00F80A
:10023000013B38BF11F8013BA2F1040298BF00F85E
:1002400001CB38BF00F8013B11F0030300F06780D9
:10025000083AC0F0088051F8043B083A51F804CB42
:10026000A0E80810F5E7121D5CBF51F8043B40F808
:10027000043BAFF30080D20724BF11F8013B11F813
:1002800001CB48BF11F8012B24BF00F8013B00F857
:1002900001CB48BF00F8012B7047431A28BF9A4290
:1002A0007FF6B6AF032A1044114440F2268010F0C6
:1002B000030F1EBF11F8013D521E00F8013D10F062
:1002C000030F7FF4F6AF11F0030300F09780083AB4
:1002D000C0F00B8051F8043D083A51F804CD40F8C5
:1002E000043D40F804CDFFF7F3BF121D5CBF51F889
:1002F000043D40F8043DAFF30080D20724BF11F85D
:10030000013D11F801CD48BF11F8012C24BF00F8C0
:10031000013D00F801CD48BF00F8012C704710B531
:10032000203AC0F00B80B1E81850203AA0E81850ED
:10033000B1E81850A0E81850BFF4F5AF5FEA027CAE
:1003400024BFB1E81850A0E8185044BF18C918C01D
:10035000BDE810405FEA827C24BF51F8043B40F8BE
:10036000043B08BF7047D20728BF31F8023B48BFA3
:1003700011F8012B28BF20F8023B48BF00F8012BE1
:1003800070474FF0000200B5134694469646203958
:1003900022BFA0E80C50A0E80C50B1F12001BFF43E
:1003A000F7AF090728BFA0E80C5048BF0CC05DF8A4
:1003B00004EB890028BF40F8042B08BF704748BFF2
:1003C00020F8022B11F0804F18BF00F8012B704766
:1003D000704770477047431A28BF9A427FF69FAF15
:1003E000104410F0030F11441EBF11F8013D521EBE
:1003F00000F8013D10F0030F7FF4F6AF103AC0F0A3
:100400000A8010B531E91850103A20E91850BFF4AD
:10041000F9AFBDE81040530724BF31E9081020E9C7
:10042000081044BF51F8043D40F8043D12F0030F9A
:1004300008BF7047D20728BF31F8023D48BF11F806
:10044000012C28BF20F8023D48BF00F8012C70475E
:10045000754600F02BF8AE4605006946534620F07D
:100460000700854618B020B5FFF7C0FEBDE8204064
:100470004FF000064FF000074FF000084FF0000B60
:1004800021F00701AC46ACE8C009ACE8C009ACE813
:10049000C009ACE8C0098D46704710B50446AFF3FB
:1004A00000802046BDE81040FFF78BBE0048704733
:1004B000F402202001491820ABBEFEE7260002000E
:1004C0007047000000B5024600F024FF642050434E
:1004D0000349086000BF024800680028FBD100BD46
:1004E0000000002000B5202005F08AF8002005F06B
:1004F0005BF9212005F084F8002005F055F946202D
:1005000005F07EF84FF46F4005F04EF9472005F0F6
:1005100077F840F23F1005F047F9482005F070F8F1
:10052000002005F041F9222005F06AF800BD70B501
:100530000C46054600F0E6F8A8682168C1626168CB
:100540000163A1684163490707D506C808380260FE
:100550004160C26881688260C160A189818421692B
:10056000002902D000DC0021016270BDFFB581B01E
:100570001E461746054600F0C5F8AC6868222046BE
:10058000FF300D300299FFF7CAFE2846B8472846CB
:10059000B047286980688047A06205B0F0BD0000C0
:1005A00010B5044600F0AEF8A1680A4A084680304B
:1005B000C262094A8262094A0263094A8263094A9D
:1005C0004263CA8C02239A4352085200CA840649E5
:1005D000416110BD89460008954700085146000852
:1005E000874300086B4300080546000810B5044621
:1005F00000F088F8A4680C482146803148660B4812
:1006000088660B48C8660B4808670B4808620B48A9
:100610004862486CC8674A691021204690471020FC
:10062000A0630748606410BD013300085D3800080E
:1006300045060008750700084D430008534A0008A6
:1006400094620008FEB584681546E08C0E4680076B
:100650004DD5E71DF9373B682046984701907B68E8
:100660002A4631462046984725468035AB690646DE
:10067000002B03D0002201212046984721690198D0
:10068000814201DD012000E00020A26901998A4237
:1006900001DA012100E0002108436169B14201DD76
:1006A000012100E000210843E169B14201DA0121A2
:1006B00000E00021084309D060680022401E00903D
:1006C0002368AF6A114620465B1EB847EB6A324684
:1006D000204601999847296A20468847AB69064613
:1006E000002B0DD0012200212046984708E0274624
:1006F0008037FB6A20469847396A20468847064675
:100700003046FEBD70B504468068002813D1FF2531
:100710007535284600F08AF92A460021A06000F0CD
:10072000B5FDA0680221C184012104640162FF308B
:1007300001490130816070BD3D07000810B590B0DF
:10074000044620220A496846FFF7E9FD08492022AD
:10075000203108A8FFF7E3FD606B69468000FF3495
:1007600009580134216008A90858606010B010BD14
:1007700080580008FFB5846881B0E08C154680077A
:1007800040D5E71DF9373B68204602999847064651
:100790007B682A4620460299984705462069B04260
:1007A00001DD012000E00020A169B14201DA012150
:1007B00000E0002108436169A94201DD012100E058
:1007C00000210843E169A94201DA012100E000218A
:1007D00008430AD060680022401E0090A8202368C9
:1007E0000759114620465B1EB847AC2003592A46DC
:1007F000314620469847A420025920460499904744
:1008000005B0F0BDAC2003590299F2E7F0B54E49AE
:1008100091B00A682221515E06912421515E09910E
:10082000D5690026EC69F643A189814206D8E3899F
:10083000834203D32368471A0F9313E0A1686368C8
:100840000F93002977D00B88834274D84E88864254
:1008500071D3C01A03044868990B081800270226B0
:10086000C75F865F781C66D0287EA37C014658430C
:100870000A90207C2A2507910890555F284601F0B0
:100880005DF8C0B20D903048A37C01680A988A6B6D
:1008900047430F9803933818012702970592049055
:1008A000C869079BC17E807E01910090089A0999D2
:1008B000069800F045FD701C1BD028460221084315
:1008C00001F03CF80A9A204856430F9A0068B31882
:1008D000816BA27C0297049303920591C069079BE8
:1008E000C17E807E01910090089A0999069800F0D7
:1008F00027FD154E3068C069417E007E814217D9C0
:10090000022D15D028460421484001F017F8306820
:10091000C069017EC27E437E5143099A807E891858
:100920009B18089A5043069A8218069800F072FEA7
:100930000D9801F003F80448627C0068418C891826
:10094000418411B0F0BD00001C00002004480029C3
:100950000068C069C06901D0027C0A60407C7047B1
:100960001C000020022008807047C06982898A42EA
:1009700002D8C2898A4211D28068002810D0028829
:100980008A420DD843888B420AD3406889004018B8
:100990009100401A0021415E002901DB01207047CF
:1009A0000020704710B5002801D001F091FF10BD64
:1009B00038B50546FFF7F6FF040009D000F092F8BD
:1009C0002A460021009000F061FC684600F09AF889
:1009D000204638BD024A1060880880005060704789
:1009E000C001202010B5002810D004460848E200BD
:1009F000406B815C002909D0022907D2121D815861
:100A0000486801F019FF204603F08EFC10BD00007D
:100A100000012020002806D0034AD16B0160002984
:100A200000D04860D063704700012020F8B504462C
:100A300003F046FBE41C2A48A508AD00016C2D1DFF
:100A4000A94200D90D46C46B17E021468039CA6F10
:100A5000AA4211D1002C12D02168002901D062686D
:100A60004A606168002901D022680A60C26BA24214
:100A700033D12168C16330E02468002CE5D11848E7
:100A8000816BC0680F18384680380090C06F3E1ADE
:100A90003068002808D0002003F0CEFC0098C06F1A
:100AA0003E1A3068002818D17068A84215DB8019FA
:100AB000441B3046241D03F0A3FC0948C168491BB0
:100AC000C1604169491941617068401B02D03146DB
:100AD00001F0B2FE20468038C5672046F8BD000010
:100AE0000001202000B50649CA69521CCA61496B41
:100AF000C20089180A78521C0A7000F01BF800BD69
:100B00000001202002680A49083A12684B6BD200A3
:100B10009A181378022B04D3CB69002B01D05B1EEB
:100B2000CB611178491E11700021016008467047A1
:100B300000012020002805D00349C000496B001D9A
:100B400008580830704700000001202010B5C2B2DC
:100B5000CBB2D21A00D5524293B202040C045B43CA
:100B6000120E240E121B00D5524292B2000C090C38
:100B70005243401AD21800B2002801DA404200B2B3
:100B800080B24043801810BD10B50021084600F027
:100B9000FFF8034A50421346014600F003F810BD27
:100BA000FF3F0000FEB507461C4615460E460420D2
:100BB00000F0C4FE00900F48C168C86C096DC719E9
:100BC0004519684687808E1905810C19C6804481B5
:100BD00001A801F0B1FC07E023462A463146384619
:100BE00000F018FD01F06AFC0028F5D1009800F033
:100BF000A5FEFEBD10000020F8B51C4616460D46A9
:100C00000746022B01DB0020F8BD1C20FFF70EFF7A
:100C10000028F9D0002D01D005610BE0094AA100A0
:100C20005158002901D105E011460A68002AFBD17C
:100C30000969016184618682002101604160C760A9
:100C40008160F8BD3400002070B51D46FFF7D4FF69
:100C500004000AD000F012F8E0680068002804D10F
:100C60000349A800096840188465204670BD00004B
:100C70001C00002010B5FFF7CDFE10BD70B5002898
:100C800035D08169022932DA1E4B8C0019590029AE
:100C900002D1185133E011464A68002AFBD106E020
:100CA000CA68C56812682D68AA4203DD0968002970
:100CB000F6D11CE000291AD0CA68C66812683668E6
:100CC000B2420DD1828A012A05D009E01146D268CC
:100CD0001268AA4204DB0A68002AF7D1002906D06C
:100CE0004A68002A05D010604A68426002E001208C
:100CF00070BD18514860884200D100210160002079
:100D000070BD00003400002081698A0009498B58B9
:100D1000834201D103688B504168002901D00268E9
:100D20000A600168002901D042684A600021016020
:100D30004160704734000020022801DB002070472A
:100D400005498000085804E0C16809680029F6D008
:100D500000680028F8D17047340000208100034863
:100D60004058C1688A6A08211047000034000020FA
:100D7000024980000858006900687047340000206C
:100D8000024980000858006940687047340000201C
:100D900070B50D4603F016F90446284603F01AF91B
:100DA000204370BDF8B518480125856017490160DA
:100DB00000681749884200D0FEE700F001FA154E9E
:100DC0002E20307000F06FF9134803F03FF904F063
:100DD0006FFA074600F082FC002803D000F08AFC7E
:100DE000002807D100F08CFC044600F07DFC214671
:100DF00000F09EFD0021084600F0F2F801F0DEF957
:100E000075703846F8BD000000300240C2A507F4F6
:100E1000CDB5E8B510000020CC01202038B5040085
:100E200019D00D480068006EA04201D100F0AEF864
:100E30002046FFF757FE00904069002801D000F0DF
:100E400010F900980068FFF715FF6846FFF75AFE93
:100E50002046FFF7C7FD38BD1C00002038B5002430
:100E600000280CD0FFF73EFE009000680069806803
:100E7000804700F025FF04466846FFF743FE204602
:100E800038BD38B5002808D0FFF72CFE0446009086
:100E900068461834FFF736FE204638BDF8B51646CA
:100EA0000F46050013D0FFF71DFE00904469684609
:100EB000FFF728FE2846FFF7D1FF0346082801DD8B
:100EC000002C05D032463946284603F0E1FDF8BD36
:100ED00032463946284603F097FFF8BD10B5002882
:100EE00023D0002922D0002A21D0002400230C5F27
:100EF000D35E9C4200DA23460380022402230C5F67
:100F0000D35E9C4200DA23464380042404230C5F12
:100F1000D35E9C4200DD234683800623CB5E062100
:100F2000515E8B4200DC0B46C38010BD1146082287
:100F3000FFF76EF910BD00280BD003885B18038003
:100F4000838859188180418889184180C18889180F
:100F5000C180704702220623825ECB5E9A4213DC78
:100F6000022206238A5EC35E9A420DDC002204231D
:100F7000825ECB5E9A4207DC00228A5E0421415EDB
:100F80008A4201DC012070470020704710B500F054
:100F900063FC00F01FFD00F0EFFF10BD70B5094DC0
:100FA00004462868022C467C0AD22046FFF7C4FE7D
:100FB000002805D028684474FFF7E8FF0248046061
:100FC000304670BD1C0000206C00002010B500F001
:100FD00065FC10BD014988607047000010000020CA
:100FE00030B4094A1080094A1180094A1268527CBB
:100FF0009300084AD358DA68146A0A46A4460146A0
:1010000030BC18466047000040000020420000202D
:101010001C0000203400002002480068002800D096
:1010200000477047D400002010B504498A68002AA0
:1010300000D18860FFF7F0FF10BD0000C400002061
:10104000FFB581B00A9D14460646B068224647683F
:10105000641C3046049B0299B8476D1EF5D105B05B
:10106000F0BD38B50546FFF73DFD00908189491E6A
:101070000CB284816846FFF745FD002C02D128465A
:10108000FFF7B0FC38BD000010B54FF40011034865
:10109000FFF7A0FC0248FFF79DFF10BD00010020F4
:1010A000B45F00087047704710B5082A0FDC03468C
:1010B000012A19D0022A51D0042A6FD002781A705E
:1010C000001D491E5B1C0029F8D1012010BD102A0B
:1010D00008DC024603881380001D491E921C00296B
:1010E000F8D1F2E7002010BD0278001DD207120EE1
:1010F000491E2ED00478001DE407640E2243491EC9
:1011000027D00478001DE407A40E2243491E20D0F6
:101110000478001DE407E40E2243491E19D0047828
:10112000001DE407240F2243491E12D00478001D3D
:10113000E407640F2243491E0BD00478001DE40726
:10114000A40F2243491E04D00478E407E40F22438D
:10115000001D1A705B1C0029C6D1B6E70278001D7D
:101160009207120E491E13D00478001DA407A40E86
:101170002243491E0CD00478001DA407240F2243EB
:10118000491E05D00478001DA407A40F2243491E60
:101190001A705B1C0029E1D197E7FFE70278001D78
:1011A0001207120E491E05D00478001D2407240FD3
:1011B0002243491E1A705B1C0029EFD185E700000D
:1011C00010B50948816900290CD101218161FFF71F
:1011D0005BFF00F011FC044904481C31086008461C
:1011E00000F04CF810BD0000100000207D42000807
:1011F00000230022C35E8A5E934200DA028002234B
:101200000222C35E8A5E934200DA428004230422F3
:10121000C35E8A5E934200DD828006230622C35E9F
:101220008A5E934200DDC280704770B500240023BF
:101230000C5FD35E9C4200DD23460380022502241E
:101240004D5F145FA54200DD2C4644800425042632
:101250004D5F965FB54200DA2E46868006254D5FCB
:101260000621515E8D4200DB0D46C5809E4201DBAA
:10127000A54201DA002070BD012070BD02494A6913
:1012800042604861704700001000002010B502E085
:101290000170401C521E002A01D08307F8D1930828
:1012A00015D092070B4C920F4C4305E0046044604C
:1012B0008460C46010301B1F042BF7DA01E010C0FB
:1012C0005B1E002BFBD102E00170401C521E002A65
:1012D000FAD110BD0101010110B5830702D50180CB
:1012E000801C521E530810D00C040C19042B08DB70
:1012F000046044608460C46010301B1F042BF7DA64
:1013000001E010C05B1E002BFBD1D20700D0018092
:1013100010BD00004AF6AA2001490860704700008D
:10132000003000400449054A0968497C8900515849
:1013300009690968084700001C00002034000020EB
:10134000F0B505468DB0002003908048169C0068DB
:101350001E4617468446002810D0149A159B1798ED
:101360000393049402920590139A129801920090AC
:101370006046046833463A46284680E0E819401E35
:101380008646139A12988B1910435B1E012807D0CA
:1013900014980822101A0590002002910990D1E0BB
:1013A0006B480A220068825E8446501A002806DDD7
:1013B000361A002E64DD1146159A50430419624610
:1013C0000E20105E181A002802DD361A002E57DD96
:1013D00010460C22825E7046801A002800DD3F1AFB
:1013E000634608229A5E0020AA4233DD501B149AFD
:1013F0003F1A082A26D006DC012A0BD0022A11D077
:10140000042A27D116E0102A1ED0182A1ED0202A1E
:1014100020D11BE0C2101419C208D2005519400790
:10142000400F17E0821014198208920055198007A6
:10143000800F0FE042101419420852005519C007DE
:10144000C00F07E0241803E0420000E082001419F6
:101450002D180020002F13DD179A05920490159B7C
:10146000149801900394029300966046407C3B469A
:10147000820038488058C26854680A462946A04706
:101480000DB0F0BD139902980A2340180C90401E2D
:101490002F4901900A68D35E83424BDC0E21515ED6
:1014A0000298814246DB0020009507900A9408903C
:1014B0003EE00798002807D10A98007803900A9820
:1014C000401C0A900820079005990398149AC84078
:1014D00003999140C9B203910799891A079100288D
:1014E00004D11B490968097C890719D4184909687E
:1014F000C96B0A680B92179A002A02D082001798CB
:101500008058086000991298019B0A18521E02998F
:10151000009800F07FF80E480B990068C06B0160DE
:101520000898401C0890129900984018009008985C
:10153000B842BEDB0998401C09900C98029015989F
:1015400024180998B0429DDB9AE700003C00002077
:101550001C0000203400002030B4124B0A241B6809
:101560001C5F8C421CDC0E241C5F8C4218DB0824A0
:101570001C5F844200DD20460C241C5F944200DA8C
:10158000224682420CDB5B7C9C00074B1C59E368C3
:101590009D6813460A4601462046AC4630BC60476B
:1015A00030BC70471C000020340000200A4630B4D4
:1015B00016490A230968CB5E934225DC0E23CB5ED5
:1015C000934221DB0823CB5E83421DDC0C23CB5EE0
:1015D000834219DB0B7C0E4CDB0709D0497C890068
:1015E0006358D968CC690146A44630BC18466047A8
:1015F000CB6B497C1B6889006458E1688D690146A2
:101600002046AC4630BC604730BC70471C00002010
:101610003400002038B50546124808240068045FED
:10162000AC4200DD25460C24045F944200DA2246D9
:10163000AA4216DB0A24045F8C4200DD21460E24F8
:10164000045F9C4200DA23468B420ADB0093407C15
:1016500083000548C058C3681C6913460A462946DA
:10166000A04738BD1C0000203400002010B5082120
:1016700002F015FC10BD000010B5034809210068F8
:10168000407C02F00CFC10BD1C00002010B50921AC
:1016900002F005FC10BD70B500252C462046FFF772
:1016A0004BFB002800D06D1C641C022CF6DB284686
:1016B00070BD000010B503480068407C00F004F8DD
:1016C00010BD00001C00002010B5FFF735FB0028FE
:1016D00003D0C168CA6A0221904710BD0148006862
:1016E00070470000F400002010B5012002F01EFC3D
:1016F00010BD00000148406870470000F400002061
:1017000010B5022002F012FC10BD10B500F002F876
:1017100010BD0000F8B500280CD08668002E08D057
:101720000E494A68002A04D00468FF200130844230
:1017300001DD0020F8BD0868844200DD0446002574
:1017400007E0AF00F059FFF7EDFD04496D1C496853
:10175000C851A542F5DB01484068F8BDE40000200F
:101760000449054A0968497C890051580969496852
:10177000084700001C0000203400002010B5C206FD
:1017800043050749074C00049B0EC00ED20EE35CD4
:10179000085C8A5C190289180004081810BD000052
:1017A000D85F0008F85F000810B50B4C606800288F
:1017B0000DD120688000FFF739F96060002808D05B
:1017C00021460648083108600846FFF757FD00200B
:1017D00010BD012010BD0000E4000020D54200082B
:1017E000F8B5FFF758FF074600242BE02046FFF727
:1017F000A3FA002825D015480068417C0091447464
:101800002046FFF733FF082817DC1149A0000858CD
:1018100010490069884210D02046FFF737FF06467E
:10182000002508E0E8B2FFF79BFF0246E9B2204638
:1018300000F08AF86D1CB542F4DB04490098096891
:101840004874641CBC42D1DBF8BD00001C000020C1
:1018500034000020C862000810B50E4C0E49206804
:10186000407C8000085800280BD0C168002902D0B5
:101870000968042901D00068F5E7002801D0FFF7C6
:1018800043FA20680021016601460831416100F0F9
:101890002FF810BD1C000020340000200149096809
:1018A00049680847E0000020044909680A7C52079B
:1018B00001D5C96B00E0896B086070471C000020EF
:1018C0007CB5094C05462068407C8100074840589B
:1018D000C1680A6B6946904720686A462946083005
:1018E000FFF7A3FC7CBD00001C000020340000209A
:1018F00004480168487C8200034808318058C26867
:10190000126B10471C0000203400002001490968B8
:1019100009680847E0000020044909680A7C52076A
:1019200001D5896B00E0C96B086070471C0000207E
:10193000014A03C270470000F40000200149096811
:1019400089680847E0000020F8B515460E460124D6
:10195000FFF7F2F9009000280BD0C0681021426A0E
:1019600068469047030004D02A46314600989847BD
:1019700000242046F8BDF8B515460E460124FFF7B1
:10198000DBF9009000280BD0C0680B21426A684642
:101990009047030004D02A46314600989847002417
:1019A0002046F8BDF8B515460E460124FFF7C4F9E8
:1019B000009000280BD0C0680A21426A6846904710
:1019C000030004D02A463146009898470024204658
:1019D000F8BD000010B5074C2068006BFFF7A2FCB3
:1019E000FFF79AFF2068406BFFF79CFCFFF75CFF56
:1019F00010BD00001C00002010B5A0B014211BA8D1
:101A0000FEF7BFFC682101A8FEF7BBFC00231A46C5
:101A100012491348FFF718F904464FF4A072F02159
:101A20000020FFF7A8FF4FF4A072F0210020FFF77D
:101A3000B9FF1BA92046FEF77AFD0A4809900A481B
:101A40000A900A480C900A4810900A4B0A4A01A9C9
:101A50002046FEF78BFD20B010BD00003458000872
:101A60004C580008951D0008011D0008791D00084C
:101A7000F31C0008ED050008A10500082DE9F04160
:101A800006460C461746012C04D103F083FC0020C7
:101A9000BDE8F0814FF0FF3500BF00BF2846F7E7F3
:101AA000FFB517466C4A8BB012680024189E1A982E
:101AB0001D46002A11D0169B199802930590159B7C
:101AC00014980193179C00900496039414682B4675
:101AD0003A460B98A0470FB0F0BD4A19521E9646E1
:101AE0000B9A159BD219521E0092149A1A43012A7E
:101AF00007D016980822101A009105900020079030
:101B0000A7E0564A0A231268D35E94465A1A002A5E
:101B100006DDAD1A002DDEDD1946179B5A439619D6
:101B200062460E23D35E7246D21A002A02DDAD1A37
:101B3000002DD0DD62460C23D35E009AD21A002A13
:101B400000DDBF1A0B9A6346141A08229A5EA2425D
:101B50000ADD131B1A18FF1A101AD310C0089E1999
:101B6000C00004195007400F002FB4DD179B0293EB
:101B70000490199A16980592019003960095604674
:101B8000407C3B46820036488058C26855680A4609
:101B90002146A8479FE7159900980A234018099005
:101BA000401E2E4904900A68D35E834249DC0E2110
:101BB000515E0098814244DB002002900B98019016
:101BC0000020039606903AE00298002805D1039879
:101BD0000478401C03900820029005992046C840D4
:101BE0001699169A8C400299E4B2891A029100283B
:101BF00004D11A490968097C890718D4174909686A
:101C0000C96B0A680892199A002A02D082001998B2
:101C10008058086014990198049B4218521E00993C
:101C2000FFF7F8FC0D4908980968C96B0860069829
:101C30001499401C06900198401801900698B842EB
:101C4000C2DB0798401C0790099800901798361837
:101C50000798A8429FDB3EE73C0000201C000020C4
:101C600034000020002818D0410817D0810817D070
:101C7000C10817D0010917D0410917D0010A17D0A0
:101C8000410A17D0010B15D0C10B13D0010C11D094
:101C9000810C11D0000E11D0202070470120704718
:101CA00002207047032070470420704705207047CA
:101CB0000820704710207047122070471820704786
:101CC00000B50022FFF7CEFF012804D0811E0629AF
:101CD00003D808220BE0012209E00146093907294F
:101CE00001D8102203E011380F2800D82022104616
:101CF00000BD00BF0A1EA1F10101FBD17047000029
:101D00001B49096841F01001194A11601146096820
:101D100041F4001111604FF4FF4101EA6001154ADE
:101D200011601349096841F40021114A11601146FC
:101D3000096841F0080111604FF4FF4101EAC01148
:101D40000C4A11600A49096841F40021084A1160EF
:101D50001146096841F0080111601146096841F017
:101D6000100111601146096841F0200111607047AF
:101D7000100801400C0C014070B504460D4603E00C
:101D80002088FFF7BDFFA41C281EA5F10105F7D18F
:101D900070BD00001A49096841F48011184A1160A9
:101DA0001146096841F4001111600021154A1160C3
:101DB0001349096841F40021114A1160114609686C
:101DC00041F0080111604FF4FF4101EAC0110D4AD2
:101DD00011600B49096841F40021094A116011465C
:101DE000096841F0080111601146096841F01001CD
:101DF00011601146096841F0200111607047000030
:101E0000100801400C0C014002480068401C0149C8
:101E1000086070470400002010B500F001F810BD04
:101E20000CB50020019000902A48006840F48030F2
:101E30002849086000BF2748006800F4003000907F
:101E40000198401C0190009818B90198B0F5A06F56
:101E5000F1D12048006800F4003010B1012000905A
:101E600001E0002000900098012831D11948406815
:101E7000184948600846406848600846406848601D
:101E80000846406820F47C1048600846406840F4EA
:101E9000981048600846006840F08070086000BFF5
:101EA0000C48006800F000700028F9D0094840682C
:101EB00020F00300074948600846406840F00200EF
:101EC000486000BF0348406800F00C000828F9D1C2
:101ED0000CBD0000001002400448006820B1034817
:101EE0000068401E014908607047000000000020A3
:101EF00010B51448006840F0010012490860084617
:101F00004068114908400F494860084600680F4979
:101F100008400C4908600846006820F480200860EA
:101F20000846406820F4FE0048604FF41F008860B7
:101F30000020C862FFF770FF4FF00060044908609E
:101F400010BD0000001002400000FFF8FFFFF6FE89
:101F500008ED00E010B54FF08040008A00F001006D
:101F600048B1FFF751FF4FF08040008A20F0010098
:101F70004FF08041088210BD0248012100684030C6
:101F8000017570471C000020F0B589B0040035D001
:101F9000FEF7A8FD019006C805920491076A8569BD
:101FA00001A8FEF7AFFD204600F0A8FA060025D0F4
:101FB000204600F0FCF80290B80704D52A4604A891
:101FC000029900F0F5FB2046FEF78CFD0190029887
:101FD000FEF788FD06903046FEF784FD039005620B
:101FE0000698019AC1691162C46101A8FEF78AFDD1
:101FF00006A8FEF787FD03A8FEF784FD09B0F0BD33
:10200000FFB507464C4887B0119C8069109D04437A
:102010000E46002D0AD14848408800282AD047485B
:102020000068407C8100444844304558681C0FD00B
:10203000002D1FD02846FEF755FD029000210222F8
:10204000415E825E099BCF199619002B02D006E0F3
:1020500000250FE00423C35E591A491C09910A990F
:10206000002904D10621415E881A401C0A9002A86A
:10207000FEF748FD13982C30FEF79AFC04900028D8
:1020800056D02D482C494088401C48800498FEF7C3
:1020900029FD0090078046800999294A7918491E30
:1020A00081800A9922407118491EC18012990161EC
:1020B000816A114381626846FEF724FD1E48049E32
:1020C000006900280AD0FEF735FD07463046FEF7C6
:1020D00031FD0146786948617E6101E0164806617C
:1020E0002946049800F0A6FAA00602D5049800F04C
:1020F00037F9E00703D01048416A491C4162600685
:1021000002D50498FFF740FFA0070DD50498FEF70D
:10211000E9FC0090816A0222114381626846FEF761
:10212000F1FC049800F0E8F80121049800F07CFB31
:1021300004980BB0F0BD0000600000201C000020DF
:102140009F3F3F0010B5044622684068E168172AA7
:102150000DD004DC0E2A0CD0142A07D104E0222A68
:102160000BD0282A02D10AE000F083F90020E060B9
:1021700010BD214600F012F910BD0248F7E700F04B
:10218000BBF810BDFFFFFF0F034804490068407C07
:1021900080000858704700001C000020A4000020A8
:1021A00010B5002802D0FEF7C5FCC06910BD10B5FF
:1021B000002802D0FEF7BEFC806910BDF0B5274DA7
:1021C00085B06878002846D100272F6124486F63C6
:1021D00000682E464764AF806F803C4644362046F8
:1021E000FEF7AAFD002814D00221CA1E1D48009245
:1021F00001910290920C0021039713460846FFF7C5
:10220000FFFE164BA1007050174A4C335A5000F095
:1022100073F8641C022CE2DB00241448E700381831
:1022200000F0EEF81248381800F0EAF811483818B3
:1022300000F0E6F8641C022CEFDB306800F090F848
:10224000FFF79AFE0120054968700B483C31086091
:102250000846FFF713F805B0F0BD0000600000204D
:102260001C0000203D520008FFFFFF0FC402202089
:10227000D4022020E4022020A542000870B586B0D8
:102280000E4605002DD0FEF72DFC0090846AA107B4
:1022900024D503C801900291E00302D5284600F03E
:1022A00021FA002E0CD00822314603A8FDF7B0FF1A
:1022B00003A9009800F0ACF803A901A8FEF798FF65
:1022C000294601A800F0AEF8002807D009480440CC
:1022D000012C08D001A9284600F0FEF96846FEF757
:1022E00011FC06B070BD0098026A816901A800F077
:1022F0005FFAF3E70108000010B50021FFF7BEFF09
:1023000010BDFEB515460E4604001CD0FEF7EAFBD4
:1023100002460090008D800712D5314601A8FEF7D5
:1023200084FF00280CD06846FEF7ECFB2A4601A982
:10233000204601F019FF2046FFF732FF04460CE06B
:102340006846FEF7DFFBFEBD2A4601A92046FFF7DF
:10235000D8FF2046FEF7EEFB046A002CF4D1FEBD48
:1023600070B50C4D04002868866C01D10A490C69CF
:102370008464204600F031FAFFF7BAFA2046FEF7EF
:10238000D9FB00222968825ECA640222825E30463E
:102390000A6570BD1C0000206000002070B50C00B4
:1023A000054607D0FFF703FF002803D02146A560AC
:1023B00000F01CFA70BD00000EB50E4854210068F4
:1023C000095C002901D00C4811E0806CFEF78AFB03
:1023D000009003C8019002916846FEF793FB0748FE
:1023E000816A002902D001A800F01CF801A802F0BF
:1023F0007DF80EBD1C00002044022020600000205B
:1024000002490A68026008607047000074000020FA
:1024100010B50B4602220021825E415E1846FEF78F
:102420008AFD10BD38B50C4605462046FEF75AFB1E
:1024300001460090008D800703D46846FEF762FBDA
:1024400013E02846FEF7D4FE00988069002804D0E7
:1024500004466846FEF756FBE7E76846FEF752FB80
:10246000204600F01BFB002801DA002038BD0120C7
:1024700038BD38B50C4600280AD0002C08D0FEF72D
:1024800031FB2146009000F004F86846FEF73AFB65
:1024900038BD00224A800A8082880388D21A8A8046
:1024A000C2884088101AC880704710B5FFF77FFEB9
:1024B000002802D0FEF73EFBC06910BD10B50D48E4
:1024C00000684030007D002806D00B4C6069012870
:1024D00003DD401E6061002010BD2069401C2061AA
:1024E00001F08CFA002803D0FFF766FF012010BD31
:1024F0006069EEE71C0000203C02202070B5054614
:10250000FFF7D3FF08E0AC4201D1002406E0FEF75C
:1025100011FB006AA84201D00400F4D1204670BD2E
:1025200010B50446FEF706FB80690028F9D1204665
:1025300000F0B4FA10BD0000F0B53B4E074630681D
:102540005421095C87B0002908D0384C6169491CC6
:102550006161012905DD012007B0F0BDFFF72CFF07
:10256000F9E7806CFEF7BEFA0021C9430090304DB8
:1025700021612978002906D0014602A808220831E5
:10258000FDF746FE05E0018D89073ED503C803919E
:102590000290002F03D0394602A8FEF729FE3068CA
:1025A000406C002838D00098049030680822416CB4
:1025B00005A8FDF72DFEA86A002806D004A8FEF79E
:1025C000A1FAA86AFEF78EFA049005A90498FFF70D
:1025D0001FFF05A902A8FEF70BFE04A8FEF792FA5A
:1025E000A96A002904D002A8FFF71CFF002815D013
:1025F0003068816C02A8FFF715FF00280ED0029802
:10260000039903C4FFF75AFFA6E76069401E6061A3
:102610006846FEF777FA04E06846DFE76069401E27
:102620006061002098E700001C0000203C02202090
:1026300060000020FEB50D00044647D0FEF752FAB8
:1026400000900021856101622846FEF74BFA029056
:102650000099C5698E6A08210E40002D06D02846D3
:10266000FEF740FA0190002E06D014E0C4616846DF
:10267000FEF748FA02A827E0008D00070BD5009866
:1026800005620298C4616846FEF73CFA02A8FEF7AC
:1026900039FA01A818E002A8FEF734FA01A8FEF7FB
:1026A00031FA2846FEF746FA11E004620BE02846AC
:1026B000FEF740FA002E0AD1018D090707D50198CF
:1026C0000462009805626846FEF71CFAFEBD0190A0
:1026D000056A002DEBD1E8E710B5202201F044FD9A
:1026E00010BD000038B5040022D0FEF7FBF90090C1
:1026F000018D890719D5406A002808D00D49C96A9B
:10270000A14204D0FEF78AFB0099002048622046CF
:10271000FFF746FD044606E02046FFF7E3FF2046AC
:10272000FEF708FA046A002CF6D16846FEF7EAF9CB
:1027300038BD000060000020FFB585B016460D00D2
:10274000074631D00846FEF7CDF90090846A02466C
:10275000A00726D5394602A8FEF767FD002820D03D
:1027600012480440012C07D002A92846089A01F01B
:10277000FBFC0098C46912E00098089B026A81691A
:1027800002A8FFF7D9FFF4E7B4420AD002A9204615
:10279000089AFFF7B6FD2046FEF7CCF9046A002C34
:1027A000F2D16846FEF7AEF909B0F0BD01080000AD
:1027B00010B52023FFF7C0FF10BD00210422415EA9
:1027C000825E914205DC02210622415E825E9142D8
:1027D00001DD002070470120704710B5FFF7A0FE13
:1027E000002801DBFEF7DAFB10BD000070B50D4CD0
:1027F000064620680D4614280EDA3046FEF79AF990
:1028000001696E60002908D02068401C20602846BD
:1028100088472068401E206070BD2846FFF792FC64
:1028200070BD0000FC0000201FB5009101906946BA
:10283000FFF7DCFF1FBD0000F8B5244D0C4606462F
:10284000E968A86B4118A019491E884206D801689A
:10285000002903D141688E1901F0D2FDA86BA04276
:102860000CD220468038C06F271A3868002805D15E
:1028700078688619384601F0C3FD3C46304601F0C1
:1028800065FB10281FD2C0004719324600212046A0
:102890007B6C02F0F5F8786C08344437002800D0DF
:1028A00044602060002060603C602868074980190F
:1028B00020312860497A002905D1E968081AA968F9
:1028C000814200D2A8603046F8BD000000012020FF
:1028D000F8B5054601F0F4FB2A490C6CAC4202D86D
:1028E000ED1CAC08A40027480C340068A04201D2BB
:1028F0000020F8BD01F0F8FC071EFAD0204601F0D8
:1029000025FB204932E0C2005218526C002A2CD01C
:102910009568002D29D06B68A34208D2AA68002AC6
:1029200023D09568002D20D06B68A342F6D31548BC
:10293000191B006C1E460C30814200D234462846DA
:1029400001F05EFD0F480023416BF800001D0D50A3
:1029500022463946284602F093F8A64203DD29199B
:10296000301BFFF769FF3846F8BD401C1028CAD35A
:10297000204601F061FD0028C0D0384601F0D4FCAB
:10298000B6E700000001202001207047F0B50A4D95
:102990000A4F9C4610C8E3B2EE5C23041B0E2402CF
:1029A000FB5C240E2C5D5B019B19E4021B190B8060
:1029B0006144521EEED1F0BD386000083861000855
:1029C000F1B582B0FEF758FE074600200F4C0546D1
:1029D0000090FEF76FFE060016D0A800315802984E
:1029E000814201D12846FEBD6D1CBD42F5DB0025AC
:1029F000A80031580298FEF7A9F8A04201D2044677
:102A000000956D1CBD42F3DB0098FEBDFFFFFF008B
:102A100010B50304C2B20649064C00021B0E000E9C
:102A2000E35C085C8A5C59018918C002081810BD73
:102A30003860000838610008FFB581B00B9F039E25
:102A40000C460546009128880A99AD1C8847B8476E
:102A500001C4761EF7D10498202804D202460399B7
:102A60000098FEF721FB05B0F0BDFFB581B00B9FCC
:102A7000039E0C460546009128780A996D1C8847EC
:102A8000B84701C4761EF7D10498202804D2024624
:102A900003990098FEF708FB05B0F0BD0146064A11
:102AA00000208300D3588B4204D0401C0228F8DB5E
:102AB0000020C04370470000A4000020FFB589B08B
:102AC000099A1498926802920768406805904E48E7
:102AD000129D00684C19007C1E468107890F06D0A4
:102AE000012971D002291AD0032916D16CE0D41D16
:102AF000F93431788020E840014201D0059800E0A7
:102B00003846216B80B288476D1C082D01D1002505
:102B1000761C1398401E1390EBD10DB0F0BD002130
:102B200001910391D16E0494089131788020E8409E
:102B30000142039810D0002805D10120039002988B
:102B40000494C06E08900899059808800898801C25
:102B500008900198401C16E0012815D10020039030
:102B60000B9800900298631E8030876A0B9A049934
:102B70000298B84702990298FF3101318A6BC06E02
:102B80000199904700200190641C6D1C082D01D113
:102B90000025761C1398401E1390C6D1019800287A
:102BA000BBD00B9800900298631E8030846A0B9A09
:102BB00004990298A04702990298FF3101318A6B6B
:102BC000C06E01999047A8E731788020E840014223
:102BD0000ED0029F21468037FB6E0B9A09989847CA
:102BE00002993F6F8B6A214643400B9A0998B84778
:102BF000641C6D1C082D01D10025761C1398401E05
:102C00001390E1D189E700001C000020FFB581B0DE
:102C10000B9A08239C1A0A9B0C9F1D784F4B0F9E02
:102C20005D5D0D99D5404E4A1268127C9207920F55
:102C300026D0012A03D0022A39D0032A74D1006990
:102C40008068804780B20090BC4200D93C46029820
:102C50003F1B002872D0E80709D0029880680368FB
:102C600002A807C8984730880099484030800398E8
:102C70006D08401C641EB61C0390002CEBD168E06C
:102C80003648BC4200D93C463F1BEA07520F8A5ADD
:102C900032806D08641EB61C002CF6D1002F5AD06D
:102CA0000A9A0824521C0A921278855CE9E78888FF
:102CB00080B20090BC4200D93C4602983F1B0028DD
:102CC0001AD0002D12D0E80707D002988068036858
:102CD00002A807C89847009830800398641E401CDB
:102CE000B61C0390002C15D06D08EAE76000861929
:102CF0000398001903900DE0002D09D0E80701D0DA
:102D000000983080641EB61C002C03D06D08F3E7D9
:102D100060008619002F1ED00A980824401C0A90D3
:102D200001780E48455CC5E715E007E00A980824DD
:102D3000401C0A9001780948455C85E7E80703D004
:102D400030880099484030806D08641EB61C002C05
:102D5000F4D1002FEAD105B0F0BD0000E062000818
:102D60001C000020FFB58BB084681698149E0028C4
:102D700042D00E988D1900780890444806270068C4
:102D8000007C8107890FC020002916D0022933D189
:102D9000002101910491E16E039509910320801BAC
:102DA00041000620421AC020D040089A1040C84076
:102DB00034D00499002921D025E0FF3405460134A0
:102DC0000320801B41007A1A2846D040089A104000
:102DD000C84081001698405A216B80B28847761C03
:102DE000042E05D10E980026401C0E900078089005
:102DF0001598401E1590E3D10FB0F0BD0121039549
:102E00000491E16E099181001698405A0999088051
:102E10000998801C09900198401C14E0049801282E
:102E200012D1002004900D986B1E0090A820075925
:102E300020460D9A0399B847FF2139310A59E06EAF
:102E400001999047002001906D1C761C042E05D13D
:102E50000E980026401C0E90007808901598401E91
:102E600015909BD101980028C6D00D986B1E00903C
:102E7000A820055920460D9A0399A847E06EFF3413
:102E80000134A26B01999047B6E700001C000020B6
:102E9000FFB581B00B980421091ACCB20A99400001
:102EA00009780E9F814032480C9D0068CEB2007CAC
:102EB0008007800F04D001283FD0022856D117E0A8
:102EC000AC4200DDECB22D1BB00981000D98641EF0
:102ED000405A3880B006060EBF1C2406240EF3D1DB
:102EE000002D43D00A980424401C0A900678E7E796
:102EF000AC4200DDECB22D1BB0090CD0B009810052
:102F00000D98405A38800298002804D080680368E1
:102F100002A807C898470398641E401C0390B00697
:102F2000060EBF1C2406240EE6D1002D1ED00A98E2
:102F30000424401C0A900678DAE7FF20AC4200DD4A
:102F4000ECB22D1BB10902D0398841403980641E92
:102F5000B1060E0EBF1C2406240EF3D1002D05D0A1
:102F60000A990424491C0A910E78E7E705B0F0BDE0
:102F70001C000020FFB58BB084681698149E0028B2
:102F800042D00E988D1900780890444804270068B4
:102F9000007C8107890FF020002916D0022933D147
:102FA000002101910491E16E039509910120801B9C
:102FB00081000420421AF020D040089A1040C840F6
:102FC00034D00499002921D025E0FF34054601348E
:102FD0000120801B81007A1A2846D040089A1040B0
:102FE000C84081001698405A216B80B28847761CF1
:102FF000022E05D10E980026401C0E9000780890F5
:103000001598401E1590E3D10FB0F0BD0121039536
:103010000491E16E099181001698405A099908803F
:103020000998801C09900198401C14E0049801281C
:1030300012D1002004900D986B1E0090A820075913
:1030400020460D9A0399B847FF2139310A59E06E9D
:1030500001999047002001906D1C761C022E05D12D
:103060000E980026401C0E90007808901598401E7F
:1030700015909BD101980028C6D00D986B1E00902A
:10308000A820055920460D9A0399A847E06EFF3401
:103090000134A26B01999047B6E700001C000020A4
:1030A000FFB581B00B990A9F0220401A3A788B0035
:1030B0009A40D5B24F4A0C9E12680E9C127CC0B248
:1030C0009207920F1BD0012A7CD0022A3ED1002900
:1030D00064D028090CD0280981000D98405A20801E
:1030E0000298002804D0806802AD036807CD984795
:1030F0000398A41C401C03907D78761E4DE00029A7
:1031000008D0280981000D98761E405A20807D78CD
:10311000A41C7F1C022E12DB7010F607F60F290983
:103120008A000D99401E895A218029078A0E0D991F
:10313000895A61807D78241D7F1C0028EFD1002EE4
:1031400004D0280981000D98405A208005B0F0BDB8
:1031500028090CD0280981000D98405A2080029837
:10316000002804D08068036802A807C89847280789
:10317000000F0CD081000D98405A60800298002802
:1031800005D08068036802A807C8491C98470398BF
:10319000241D801C03907D78B61E7F1C022ED7DA7A
:1031A000002ED3D02809D1D081000D98405A20801C
:1031B00002980028CAD0806802AC036807CC984700
:1031C000C4E7FFE7FF21B04200DDF0B2361AAA09DA
:1031D00002D022884A402280401E2A07150EA41CD5
:1031E0000006000EF3D1002EB0D002207D787F1CA7
:1031F000E9E700001C000020FFB585B084680F9847
:103200000E9E1D46002824D033480068007C8007AD
:10321000800F1AD002281CD1002001900290E06E8D
:1032200004900698039028786D1C002824D00299F9
:10323000002910D015E0287881000F98405A216BA2
:1032400080B288476D1C761E01E0FF340134002EE9
:10325000F1DC09B0F0BD0121029106990391E16E04
:10326000049181000F98405A049908800498801CAA
:1032700004900198401C15E00298012813D1002009
:10328000029007980090A820069B075920465B1ED5
:10329000079A0399B847FF2139310A59E06E01991D
:1032A0009047002001900698401C0690761EBAD1E7
:1032B00001980028CDD007980090A820069B0559BA
:1032C00020465B1E079A0399A847E06EFF3401343D
:1032D000A26B01999047BCE71C000020FFB587B0A6
:1032E00096469C4610AAFCCA816805976F467CC723
:1032F00080314C6E634672460899A0470BB0F0BD12
:10330000FFB583B003980D9E0C9F8568012E05D0F4
:10331000022E03D0042E01D0082E06D133480068B7
:10332000007C8007800F02280ED005981099C019E4
:10333000401E00900498059A411806980B18A82082
:10334000445928465B1EA04700244AE0042E24D09E
:1033500004DC012E07D0022E3ED111E0082E29D028
:10336000102E39D132E010986B46119A069907C396
:1033700005980F9B221804990398FFF79FFB2BE0F9
:1033800010986B46119A069907C305980F9B22184F
:1033900004990398FFF7E6FC1EE010986B46119A1B
:1033A000069907C305980F9B221804990398FFF705
:1033B000E1FD11E0069800900598119901912218FD
:1033C0000F9B04990398FFF717FF05E0FF203930A2
:1033D000425906990F9890470E990F984018641C0F
:1033E0000F90BC42B2DB07B0F0BD00001C00002013
:1033F000FFB5B6488FB000680C461C9F199E006E42
:10340000FDF770FB08904069002801D0FDF76AFBCA
:103410000B900898C0680A9008A8FDF773FBE019A4
:1034200010900B9800280AD0A8490968097C8907E0
:1034300005D1189910AC00910ECCFDF701FE119941
:10344000109801F093FE0446102E03D0182E69DB6D
:10345000002061E0002521E01098029011980B9E59
:10346000281801901B9912980090204600290ED030
:1034700000280CD0009A5200FCF7CAFE002E06D09D
:10348000B068009B47683046019A0299B8471A997C
:103490001B9840181B900A9824186D1C1898854298
:1034A000DADB0AE10B9800901098039011982646F9
:1034B000081802901B9D12980190002D24D0002E18
:1034C00022D00098002806D08068019B4768029AA5
:1034D00003990098B8470F992868096909688847CF
:1034E00030800098002805D08068029A036803990C
:1034F0000098984703982D1D401C03900198B61C16
:10350000401E01900028E6D11A991B9840181B9084
:103510000A9824180798401C014607901898814281
:10352000C0DBCAE0082E03D01D98002878D079E0CF
:1035300000206FE01D9800280B9836D0029010985C
:103540000190119907981B9D401800901D980C90B0
:103550005E48129F00682646007C8007800F02D0DC
:1035600002284FD109E028786D1C81000C98405A40
:103570003080B61C7F1EF6D144E0287800280CD09D
:1035800081000C98405A30800298002805D080684D
:10359000009A036801990298984701986D1C401C95
:1035A000B61C01907F1EE8D12CE005901098049085
:1035B000119907981B9D401803904448129F00687A
:1035C0002646007C8007800F02D002281AD105E031
:1035D0003A4629462046FCF71BFE13E028780028CF
:1035E00009D030800598002805D08068039A0368C8
:1035F00004990598984704986D1C401CB61C0490CB
:103600007F1EEBD11B991A9808181B900A98241852
:103610000798401C1899079088428BDB4DE0FFE724
:103620002B481D90002545E0012E04D0022E1CD011
:10363000042E38D128E025480068006EFDF752FAC4
:10364000089012991D9A0291049005941B9800907D
:103650001198019703922B18109A0B990F98FFF766
:10366000D5FA08A8FDF74EFA1DE012981D9902AA96
:10367000019713C21B9800901198109A2B180B9960
:103680000F98FFF705FC0EE012991D980291039028
:103690001B980090119801972B180494109A0B997D
:1036A0000F98FFF7FDFC1A991B9840181B900A9879
:1036B00024186D1C18988542B6DB0B98002802D0A0
:1036C0000BA8FDF71FFA13B0F0BD00001C0000208E
:1036D0005462000838B5846800928034A46EA04714
:1036E00038BD08B5009200F037F908BD38B58468D8
:1036F00000938034A46E0B46A04738BDFFB52C481C
:1037000083B000681E461546006EFDF7EBF9019088
:103710004069002801D0FDF7E5F90090294604989A
:1037200001F024FD04460198C76821480068017C27
:10373000C90716D0039800698068804787B200984F
:10374000002804D081682A460B680499984720888D
:103750006D1C784020800198C0680419B542EEDDE8
:103760001AE0C06B0168009800280ED088B2029061
:1037700000982A4681680B6804999847029820802F
:10378000E4196D1CB542F3DD06E0701B89B2401CE4
:103790002180E419401EFBD101A8FDF7B3F9009880
:1037A000002802D06846FDF7ADF907B0F0BD000073
:1037B0001C0000200170012070470000F8B5224C69
:1037C000E06A00281AD02069C108091D4018054682
:1037D000C000FFF77DF8060034D0F000616B001DDB
:1037E0000F58E06A009020690837C2003846FCF79D
:1037F00096FD6763E662691E20690EE01248C030DC
:1038000081684068083102F00BF8801CDFE7C300D4
:10381000421C1B1D666B401CF2508842F7D3C0004F
:10382000626B0021001D1150206960626168281AD6
:103830000818256160600098002801D0FDF7D2F8D3
:103840000020F8BD0120F8BD0001202038B58468B3
:10385000049D80340095A46EA04738BDFFB585B0A7
:103860000598164684683B4808990068007CC207A2
:103870000698081A0290002A39D13DE0204680308F
:10388000E56E0390476C002F07D0009601953246F5
:10389000089B06990598B8470EE0069F08E0039834
:1038A0003246C36E3946059898472880AD1C7F1C68
:1038B00008988742F3DDE56E0298401C05E02988F0
:1038C000228D401E51402980AD1C0028F7D103985D
:1038D0000096856A32462046089B0699A847FF2233
:1038E000029939321259491CE06E9047761C0E98A5
:1038F0008642C3DD09B0F0BD451C0E980B46801B07
:10390000401C45430E980090A82007593246204697
:103910000699B8470F4801260068E71DC06BF937C4
:1039200000680190A06E009011E02C46FA2D00D99D
:10393000FA24002E06D00198002681B22246009873
:10394000FDF7CAFCBA6B2146009890472D1B002D4D
:10395000EBD1CFE71C000020FFB527480C460068DC
:1039600087B0C16B1F46096805911546006EFDF7CB
:10397000B9F802902946204601F0F8FB0646029865
:10398000C1680491391B491C0191406900282BD062
:10399000FDF7A8F810990390491B491C00912A468D
:1039A0002146019BFDF74CFB03A8FDF7ABF81BE09C
:1039B00011480068007CC0070DD0079834460069A4
:1039C000019F8068804780B2218841402180A41CEB
:1039D0007F1EF9D105E00598019A81B23046FDF7C6
:1039E0007BFC049836186D1C10988542E0DD02A817
:1039F000FDF788F80BB0F0BD1C000020FEB54D4C63
:103A0000E168A06801910090206900282CD0A0896D
:103A10006946401C00B2088062894A800421615EC8
:103A2000884205DD208869460880E089401C48807E
:103A300069460220085E0621615E884271DC3E4DC7
:103A40002868806CFDF74EF8029069460020085EF9
:103A50000021615E88421ED1E1886846C180A1884C
:103A600081802868806C0EE021886846018061882A
:103A70004180DDE7FDF75EF80646006A00226946F0
:103A800000F0D8F8B0690028F4D102980022C0698B
:103A9000694600F0CFF86846018881802868806C0C
:103AA0000AE0FDF747F80646006A0022694600F082
:103AB00047F80028EFD1B0690028F2D1029800221F
:103AC000C069694600F03CF80028E4D10420205E7B
:103AD0006946888000228A5E904207DA0199009840
:103AE000E160A06002A8FDF70DF89BE72868806CF4
:103AF00008E0FDF71FF80546006A0022694600F05D
:103B00005FF8A8690028F4D102980022C0696946CC
:103B100000F056F802A8FCF7F5FF08492069884232
:103B200001DD0020FEBD01990098E160A060012048
:103B3000FEBD00003C0220201C000020204E0000A2
:103B4000FEB517460E460546002435E02846FCF72C
:103B5000C9FF0090856A0146A80728D5002F04D028
:103B60003A4601A8FDF761FB02E003C9029101900A
:103B700001A93046FDF7EEF9002818D0E80702D079
:103B80000098C56911E068460089401C3080012416
:103B90000DE001AA31462846FFF7D2FF002800D0E9
:103BA00001242846FCF7C6FF056A002DF1D10098D4
:103BB000056A6846FCF7A6FF002DC7D12046FEBD6A
:103BC000FEB516460D46044631E02046FCF78AFF56
:103BD0000090846A0146A00724D5002E04D0324606
:103BE00001A8FDF722FB02E003C90291019001A99F
:103BF0002846FDF7AFF9002814D0E00702D000985E
:103C0000C4690DE068468088401EA8800AE001AAC9
:103C100029462046FFF7D4FF2046FCF78BFF046AB5
:103C2000002CF4D10098046A6846FCF76BFF002C66
:103C3000CBD1FEBDFEB516460D4604464EE02046ED
:103C4000FCF750FF0090846A0146A00741D5002E82
:103C500004D0324601A8FDF7E8FA02E003C9029158
:103C6000019001A92846FDF775F9002831D0E00739
:103C700002D00098C4692AE0002E08D000980221E2
:103C8000415E0220305E814204DD084602E0009978
:103C90000220085E0221695E8142694607DA062039
:103CA000085E0621695E401E05E0E88011E00A20FA
:103CB000085E0621695E8842F7DB0AE001AA294610
:103CC0002046FFF7B7FF2046FCF734FF046A002CBC
:103CD000F4D10098046A6846FCF714FF002CAED1BA
:103CE000FEBD00787047012070478068012901D02F
:103CF00000207047406C7047012901D000207047B8
:103D000000487047946200080D291CD008DC012986
:103D100014D00A290CD00B290CD00C2906D10BE0A9
:103D200016291AD0172913D0182918D00020704747
:103D30000C4870470C4870470C4870470068806812
:103D40008030C06F7047006880688030406F704777
:103D5000006880688030806F70470548704705486C
:103D6000704700002B3E0008193E0008893D0008FE
:103D700059450008D93D0008162901D00020704798
:103D8000004870479D0E000870B50546FCF7BAFC68
:103D9000FF20F530AC68FCF749FEA066A16B2068F7
:103DA000C91DC9104843FCF741FEE066002201210D
:103DB000A869FDF763FE0546FF200930015920463A
:103DC0008847B020015920468847002D01DD012099
:103DD00070BD002070BD7047F8B50D4C079E069D64
:103DE00080682768002E0BD0002F08D1009505466B
:103DF0008035AE6AB047A86A20600648A862F8BD60
:103E0000002FFCD08030876200202060F8BD0000C9
:103E100044000020D73D000870B515460C46064604
:103E2000FCF770FCB06830C070BD70B515460C462C
:103E30000646FCF767FCB068C560846070BD00B5DD
:103E400080680B0001F0ECF90F28090B0D0F2828F2
:103E50002811131515171D222800006800BD4068A1
:103E600000BD806800BDC06800BD806B00BD002043
:103E700000BD012000BD0028FCD0808EC007C00F0F
:103E800000BD0028FCD0808E800703E00028F7D01A
:103E9000808E4007C00F00BD0020C04300BD70B53C
:103EA00000240D46022808DAFCF746FF002804D05B
:103EB000C1688A6A294690470446204670BD00685A
:103EC000002802D0C268926A10470020C0437047A1
:103ED00010B5FDF7D1FBC11FF93903D0802803D3FA
:103EE00007211AE0082118E0402801D3062114E038
:103EF000202801D3052110E0102801D304210CE073
:103F0000082801D3032108E0042801D3022104E09A
:103F1000022801D3012100E0002101208840401E39
:103F200010BD000000487047FFFF000070B500247E
:103F30000646012531462846FFF7B1FF844200DAE4
:103F400004466D1EF6D5204670BD00000146054AA8
:103F50000F20C3009B181B6C8B4201D9401EF8D563
:103F6000704700000001202083688033DB6E184713
:103F700010B50846114601F0F9F8008810BD8068B8
:103F800000220A804A800288521E8A808088401E51
:103F9000C880704738B50C468068FCF7A3FD0090D8
:103FA00081882180C1886180818802898918491EA1
:103FB000A180C18840890818401EE0806846FCF74F
:103FC000A1FD38BD024909684884002070470000FF
:103FD0001C00002002490968888400207047000006
:103FE0001C000020F0B59C46531E644663431C1819
:103FF000900040180B4D0C4F001F2188CB06DB0EA4
:10400000EE5C4B059B0EFB5CC90A695C1B029B19AD
:104010000904591801606146641A001F521EECD150
:10402000F0BD0000D85F0008F85F000870B50446D6
:10403000FDF722FB0546FDF73DFBAC4201D3002016
:1040400070BD0028FCD0A100405870BD70B5174D60
:104050000446E8688063011DC1630064091D616155
:10406000407C8100284624304058C1680A6B2146B4
:10407000083190470E486066A868E061E86808303B
:10408000606101202076FEF77FF8A064032168209C
:1040900001550848206360630020FDF7FFFB0648D8
:1040A000FDF734FC0548286170BD000010000020B9
:1040B0002C580008FFFFFF0FFFFFFF0038620008C9
:1040C00070B52648017A002946D1012605460672B8
:1040D000A03505206968C002814200D901462868E0
:1040E00000F030FCA868002802D168688008A86049
:1040F0001C491B4808600846FDF7C0F8174C5A20B9
:10410000203C2062002010210A468240C3001B1977
:10411000401C1A641028F7D32A68696802232361B7
:104120005018A2631438E1606063002005E0C2000B
:10413000411C121D636B401C99502169491E81422C
:10414000F5D866622069401E6060A16BE068FEF7EA
:1041500073FBFFF733FB266370BD000020012020B6
:104160004D42000808000020FEB514460D460646E4
:10417000FCF7E0FC0090836A980730D52846FEF7EC
:104180001CFB00282BD016480340012B27D03046BB
:10419000FCF7A8FC02460090294601A8FDF745F867
:1041A00001A8FEF70AFB002816D000990D4A886A7C
:1041B000104205D0083101AA0846FCF78FFE0BE03B
:1041C000029B019ACB6020438A60886206498888F6
:1041D000401C8880FCF720FF6846FCF793FCFEBD7E
:1041E00001080000204000006000002008467047E1
:1041F0001046704708467047104670470068401ADE
:10420000401E70474068801A401E70470068401A80
:10421000401E70474068801A401E70471046704725
:10422000084670474068801A401E70470068401A70
:10423000401E704710467047084670474068801A15
:10424000401E70470068401A401E704710B50A486B
:104250000021017280222030FDF718F80648C022A4
:1042600000212038FDF712F803480C220021A0306D
:10427000FDF70CF810BD00002001202010B5074903
:1042800000208861014670220548FCF7FFFF0348C3
:10429000082200212430FCF7F9FF10BD1000002097
:1042A000CC01202030B50A49002048700C468863B4
:1042B0005C340D460246543548619300E050521C70
:1042C000E850022AF9D3486288628861086230BDEA
:1042D0006000002010B5034C6068FCF79BFB0020D9
:1042E000606010BDE400002010B50E4C6168206BCA
:1042F00081420AD8401E2063FFF760FA216B491CF7
:104300002163002801D0002010BD6068401E60605D
:10431000606A616BC200121D8A5862620122C3008A
:10432000CA5410BD0001202030B507494A68521C0C
:104330004A60C2004D6B131D4C6AEC504C6B00235D
:10434000A354486230BD000000012020B421095868
:104350000847016C80308969426D08461047016C3E
:1043600080308969826D084610473EB50446016A6F
:10437000FF300130826C6846491C9047206A6946CC
:104380004000085A3EBD1CB50446016AFF300130AA
:10439000826A6846891C9047206A694640184178BD
:1043A00002780802104340BA1CBDF8B5069D5F1A9A
:1043B000AC1A641C7F1C67438468009525468035D1
:1043C000AE6A2046B047206CEB6D80693A4607998B
:1043D0009847F8BDF8B5069D5F1AAC1A641C7F1C9F
:1043E00067438468009525468035AE6A2046B0470D
:1043F000206C2B6E80693A4607999847F8BD0000FB
:1044000010B504464068FFF7A1FD10280FD20949F6
:1044100063680A68C000D21A0A604218A068443271
:10442000E168002800D04160002901D0086010BD7B
:10443000106010BD00012020F1B5244882B0846BCB
:10444000C168601E0F1821CC083C002838D16619BD
:10445000BE4235D2706800903068002830D01B4BC7
:10446000C200596B895C01292AD11946C96A884260
:1044700001D1012000E0002001902046FFF7C0FF9D
:104480001248416B3068C000001D0C503146204678
:10449000009AFBF702FF0198002804D00B48321B5A
:1044A000416B891A4163009821182846FEF7C4F928
:1044B0000299002903D0814201D80020FEBD009D51
:1044C0006419BC42BFD30120FEBD000000012020C2
:1044D00010B5054909684A6B824204D04863FCF76D
:1044E00021FFFDF7E1F910BD1C0000207FB5044657
:1044F00010480568696C002908D0082201A8FBF75C
:1045000087FE0D48806A002803D101E020460EE0B6
:10451000A86CFCF7E7FA01A90090FDF779FF68465F
:10452000FCF7F0FA214601A8FCF762FE01A8FDF7AE
:10453000C7F97FBD1C0000206000002010B50549B0
:1045400009680A6B824204D00863FCF7EBFEFDF7B2
:10455000E3F910BD1C00002070B514460D46064658
:10456000FCF7D0F8B068002819D0262D0DD0272DE3
:1045700015D1826B0021102A18D0122A0FD1002CDD
:104580001ED08030104904661BE0816B102907D0D3
:10459000122904D180300D49C1638465016470BD66
:1045A00080300B4981634465416370BD002C03D0AA
:1045B00080300849C46500E080308164416470BD8A
:1045C0008030C164016570BDD54300085F430008B9
:1045D00053430008AB43000830B509490B681A7C07
:1045E00014464440640707D59D6BDB6B2C681B6841
:1045F0002B600B68DB6B1C6009680874104630BDCB
:104600001C0000208030082906D0102903D104495D
:10461000C1600449016170470349C1600349F9E77A
:10462000234900085F4A00082D490008694A00082C
:104630001CB50192009180696A460321FDF71EFABC
:104640001CBD0068002802D0C3681B6A1847704769
:104650007CB504460AA103C9254680350191009026
:10466000EA68032120469047A18C38208143606B83
:104670006A46105C2A690143204690477CBD0000D1
:104680003020100038281808FEB50446406B164646
:104690000D4600280CD0E71DF9373B6820469847A7
:1046A00001907B683246294620469847064600E03E
:1046B000019121690198814201DD012000E0002083
:1046C000A26901998A4201DA012100E00021084330
:1046D0006169B14201DD012100E000210843E16987
:1046E000B14201DA012100E000212546084380356E
:1046F000002809D060680022401E00902368AF6A3D
:10470000114620465B1EB847EA68202120469047A4
:10471000A18D01982A69081881B220469047EA685D
:10472000212120469047208E2A69801981B2204697
:104730009047EA68222120469047FEBD30B4846845
:104740008034246FA44630BC604700007CB510481C
:104750001C46006815460E46006EFCF7C3F9019032
:104760002946304600F002FD048001984069002887
:104770000AD0FCF7B7F9009081682A460B683146E9
:1047800098476846FCF7BEF901A8FCF7BBF97CBD69
:104790001C000020FFB50546406B2C46803485B0D8
:1047A000164600286DD0EF1DF9373B68284606995C
:1047B0009847009002903B6828460E9A08999847BF
:1047C00001907B6832462846069998470390064632
:1047D0007B6828460E9A08999847074601990098E1
:1047E000814203DA0846009901910090B74202DA4B
:1047F000384637460646E069002805D100986E61C4
:1048000028610198EF61A861E2685021284690472D
:10481000A98D00982269081881B228469047E2685D
:10482000512128469047A98D01982269081881B224
:1048300028469047E268522128469047288E2269F0
:10484000801981B228469047E26853212846904754
:10485000288E2269C01981B228469047E26820213B
:1048600028469047A98D02982269081881B22846E7
:104870009047E268212128469047298E039808181E
:1048800045E0E069002806D106986E612861089825
:10489000A8610E98E861E268502128469047A98DEA
:1048A00006982269081881B228469047E26851218B
:1048B00028469047A98D08982269081881B2284691
:1048C0009047E268522128469047298E226988192C
:1048D00081B228469047E268532128469047298EA6
:1048E0000E982269081881B228469047E268202174
:1048F00028469047A98D06982269081881B2284653
:104900009047E268212128469047298E881981B274
:10491000226928469047E26822212846904709B03C
:10492000F0BDFF300130C26A0846104770B5054639
:10493000080AFF350C460135E9688847E968E0B2A6
:10494000884770BDF3B583B00446049887080020FB
:1049500000902646002506E00098FF21281800F068
:104960005FFF02C66D1CBD42F6D3264600250DE052
:1049700001CE01900098FF21281800F051FF019806
:10498000814202D0032005B0F0BD6D1CBD42EFD3C3
:104990000098401C00900228DBD3049846080020B1
:1049A00000902746002507E00098FF21281800F016
:1049B00037FF39806D1CBF1CB542F5D32746002553
:1049C0000DE0388801900098FF212818BF1C00F0E6
:1049D00027FF0198814201D00220D4E76D1CB54227
:1049E000EFD30098401C00900228DAD30020049EE8
:1049F00000902746002507E00098FF21281800F0C6
:104A00000FFF39706D1C7F1CB542F5D3274600257A
:104A10000DE0387801900098FF2128187F1C00F0E5
:104A2000FFFE0198814201D00120ACE76D1CB54228
:104A3000EFD30098401C00900228DAD300200246F1
:104A4000049902E02270401C641C8842FAD30020C2
:104A500099E70246FF3288B20132116B0847FF30F6
:104A60000130026B0846104770B50546080AFF354D
:104A70000C460135296988472969E0B2884770BD2D
:104A800000610EC00C3880188038C2677047000083
:104A9000F7B5DB499CB003C9179018911C98FCF737
:104AA00021F819904669C1680C910821415E04699A
:104AB0000F910A21415E14910068D24D006940684F
:104AC00012902868407CFCF749F910902868407CD7
:104AD000FCF756F9054619A8FCF714F8082C01D87C
:104AE000012004E0102C01D8022000E004201390E3
:104AF000012C1CD000271298A84278D0C148006829
:104B0000407CFCF735F915900F988000FBF74AFFC1
:104B1000169000286CD01C98FCF7B3F90546002EBF
:104B200067D03046FBF7DEFF0D900020A8E017AFFE
:104B3000E1E7002009900D98089A81684B6909A95E
:104B4000984706460F98864227D11698FBF7CAFF6A
:104B5000159A12990192009111900146109B082C10
:104B60003246284602D9FDF767FF01E0FDF77DFFD9
:104B7000119A1099002003AB029185C30120009087
:104B8000019008991E98012341180F9A1D98FCF76F
:104B9000D7FB11A8FBF7B6FF6EE0012C24D069E02B
:104BA00009980C9B4107C217490F520F1218069122
:104BB000D21001215219059703930492009101919B
:104BC000089A1E99029489181D9A012310183246DA
:104BD000FCF766FF0998089A801909900D9881687A
:104BE0004B6909A998470646002ED9D144E062E0F6
:104BF0005FE04EE01698FBF775FF01461190082C18
:104C00000CD9099A1398159B42435019129A019393
:104C100000923246109BFDF70FFF0BE0139A0998A4
:104C2000159B5043129A0193009240193246109BF3
:104C3000FDF71BFF119A1099002003AB029185C369
:104C400001200090019008991E98099A41181D981A
:104C5000012380183246FCF773FB11A8FBF752FFC3
:104C60000998089A801909900D9881684B6909A9DB
:104C700098470646002EBDD10C982D180898401C68
:104C800014990890884200DA53E70DA8FBF73AFF21
:104C90000CE00C9803A90294A1C10120009001909E
:104CA000149B0F9A1E991D98FCF74AFB1698FBF768
:104CB00099FE1FB0F0BD1C98FCF7E3F80A90002E97
:104CC0007ED03046FBF70EFF00250D9080E00020DF
:104CD00009900D982A4681684B6909A998470F9950
:104CE0000646884222D1069500E06D1C0D986A1C8C
:104CF00081684B6909A99847B042F6D00C980A9987
:104D000003AA029483C2012000900190069806999C
:104D10002E1A1E98731C41180F9A1D98FCF710FB51
:104D20000C98761C46430A9830184FE0012C24D08A
:104D300045E0099BD917490FC918CA100A995807A5
:104D4000400F0690511801200597009001901E9881
:104D5000049141190C9A1D980392C01802940123E2
:104D60003246FCF79DFE09982A46801909900D9855
:104D700081684B6909A998470646002ED9D122E0DF
:104D8000139909980A9A4143891804910C9A0121B0
:104D900005970392009101911D9A1E991018029493
:104DA000491901233246FCF7CBFA09982A468019A3
:104DB00009900D9881684B6909A99847064600E05B
:104DC0000EE0002EDCD10C990A9840186D1C0A9058
:104DD0001498854200DA7AE70DA8FBF793FE68E79E
:104DE00001460C9803AA029483C20120009001900E
:104DF000149B0F9A1E991D98FCF7A2FA59E7000020
:104E0000E06300081C000020FFB593B01F46154664
:104E10001398FBF767FE08210A90415E06910A216C
:104E2000415E0891C1680446019100681834006928
:104E30000E900AA8FBF766FE0E98CB4A40681090C9
:104E4000C8480068407C8100515809690F91096881
:104E50001191FBF783FF082801D8012604E01028F0
:104E600001D8022600E004260F990E98884210D13E
:104E70000020019905900120039101900090029774
:104E800004942946089B069A1498FCF759FA17B01F
:104E9000F0BD202F2FD0102FF9D106987043FBF7CB
:104EA00081FD0C900028F2D0FBF71CFE07901398B0
:104EB000FBF718FE0A900F99044609691834002977
:104EC00076D00E9949690029FAD00821415E880000
:104ED000FBF768FD119000286BD0FBF703FE0990EB
:104EE00000284AD0F0001290012E70D0022E6FD010
:104EF000042E6ED1DAE0069930464843FBF752FDA6
:104F00000C900028C3D0FBF7EDFD07901398FBF73A
:104F1000E9FD04460A900F9818340069002832D041
:104F2000F0001090012E04D0022E07D0042E0FD1D5
:104F300024E00F9807990123076903E00F98079968
:104F4000076902232046069AB8470698800004198C
:104F50000020109903900590079A0120029101907A
:104F600004920090294603466D1C069A1498FCF79B
:104F7000E7F90898401E0890D4D14CE00F980799A3
:104F800004230769DEE7069F012E04D0022E11D00C
:104F9000042E2BD11EE00798019001CC119988476F
:104FA000019908700198401C01907F1EF5D11DE009
:104FB0008BE03AE00798009001CC1199884700995E
:104FC00008800098801C00907F1EF5D10EE02FE035
:104FD0003DE04EE00798009001CC11998847009978
:104FE00008600098001D00907F1EF5D100200390FE
:104FF0000590079A0120F10002910190049200901F
:10500000294603466D1C069A1498FCF799F90898EE
:10501000401E0890B7D10AA8FBF774FD07A8FBF75C
:1050200071FD0C98FBF7DEFC31E700200990F2E7F8
:10503000079801900E98022347692046069A09991D
:10504000B8470F9801230769069A01990CE0079861
:1050500000900E98022347692046069A0999B8479E
:105060000F98022307692DE00998B8470698400079
:1050700004191299002003900590079A01200291CB
:10508000019004920090294603466D1C069A1498DC
:10509000FCF756F90898401E089000D024E709A8AC
:1050A000FBF730FD1198FBF79DFCB4E707980090E3
:1050B0000E98022347692046069A0999B8470F9827
:1050C00004230769069A0099CEE7069F012E04D0B3
:1050D000022E12D0042E2FD11FE0079801902088B5
:1050E0001099A41C88471199884701990870019864
:1050F000401C01907F1EF2D11EE00798009020888E
:105100001099A41C88471199884700990880009835
:10511000801C00907F1EF2D10EE00798009020883E
:105120001099A41C88471199884700990860009835
:10513000001D00907F1EF2D1002003900590079A79
:105140000120F1000291019004920090294603464B
:105150006D1C069A1498FCF7F3F80898401E089006
:10516000B3D158E71C0000203400002038B50546B4
:105170000C480C460068006EFBF7B4FC0622009059
:10518000825EC3680146A21A18315A4351186A0058
:1051900051180422825E50000C1A6846FBF7B2FCDC
:1051A000204638BD1C000020F8B516460F460546BF
:1051B0008468FEF7D9FE0090A36A32464340394620
:1051C0002846FFF7BBFAF8BDFEB50446134815465E
:1051D00000680E46006EFBF785FC019029463046BC
:1051E000FFF7C4FF0746206980688047014638887A
:1051F000484038800198406900280AD0FBF772FCCB
:10520000009081682A460B68314698476846FBF74C
:1052100079FC01A8FBF776FCFEBD00001C00002015
:1052200030B47446641E2578641CAB4200D21D461F
:10523000635D5B00E31830BC1847000010B50446FE
:1052400000680E2802D00F2815D107E0E0684168F9
:10525000012902D10068FBF7E7FE10BD6068FDF789
:105260001DFC8100064840580649884203D0FBF7E0
:10527000ADFEFBF789FC2046FCF764FF10BD000083
:10528000AC000020FFFFFF0F30B50546FBF72AF901
:10529000002308E0002403E0284600F085FA641C9F
:1052A000F02CF9D35B1CB3F5A07FF3D330BD000025
:1052B000F8B5FCF71DFBFCF777FA04003DD100259B
:1052C0002846FBF739FD0090002809D0C0680C2162
:1052D000426A68469047010008D000988847044316
:1052E0006D1C022DECDB002C02D026E00120F8BD65
:1052F000FCF776FA124E01252846FBF71DFD0090BB
:10530000002818D02846FBF749FE0420FCF716FBBE
:105310000021324633460846FCF77CF90020FCF7B2
:105320000DFB00980E21C068426A68469047010054
:1053300001D0009888476D1EDED52046F8BD0000DC
:10534000FF3F000030B5F021481EB0F1807F00D350
:105350001BE0481E4FF0E022506150170F2200283A
:1053600004DB13071C0E094B1C5406E013071D0E2B
:10537000074B00F00F04241F1D5500BF00204FF005
:10538000E02290610720106100BF30BD00E400E022
:1053900018ED00E000B59948006840F400309749E6
:1053A00008600846006840F002000860084600688F
:1053B00040F4003008600846006840F002000860D1
:1053C000112000F01DF942F2040000F0EDF9132065
:1053D00000F016F94FF44C4000F0E6F9152000F00B
:1053E0000FF94FF4185000F0DFF9142000F008F91D
:1053F00042F22A5000F0D8F9122000F001F93320CF
:1054000000F0D2F9132000F0FBF84CF6444000F015
:10541000CBF9132000F0F4F84CF6064000F0C4F984
:10542000132000F0EDF84CF64F4000F0BDF91320CA
:1054300000F0E6F846F24F7000F0B6F9112000F0E7
:10544000DFF842F2030000F0AFF9302000F0D8F8A6
:1054500042F2096000F0A8F9312000F0D1F842F2E0
:105460002C4000F0A1F9322000F0CAF841F6237078
:1054700000F09AF9332000F0C3F842F2254000F022
:1054800093F9342000F0BCF842F2262000F08CF9A9
:10549000352000F0B5F842F2235000F085F93620AF
:1054A00000F0AEF841F61A4000F07EF9372000F027
:1054B000A7F841F21D3000F077F9382000F0A0F88D
:1054C00040F6113000F070F9392000F099F841F2FF
:1054D000102000F069F93A2000F092F841F21530FE
:1054E00000F062F93B2000F08BF843F2196000F005
:1054F0005BF93C2000F084F84FF4506000F054F960
:105500003D2000F07DF80D2000F04EF9162000F04F
:1055100077F8072000F048F9022000F071F8132016
:1055200000F042F9032000F06BF8012000F03CF994
:10553000012000F065F840F2271000F035F908204E
:1055400000F05EF840F2033000F02EF90A2000F07F
:1055500057F80B2000F028F90B2000F051F8032039
:1055600000F022F90C2000F04BF8002000F01CF9AC
:105570004C2000F045F8002000F016F9502000F013
:105580003FF8002000F010F9602000F039F8052005
:1055900000F00AF9702000F033F80B2000F004F955
:1055A000712000F02DF8002000F0FEF8782000F0C7
:1055B00027F8002000F0F8F87A2000F021F8002009
:1055C00000F0F2F8792000F01BF8072000F0ECF86A
:1055D000072000F015F8512000F0E6F8072000F051
:1055E0000FF8532000F0E0F8792000F009F80020CF
:1055F00000F0DAF8222000F003F800BD10080140A6
:105600001A49096841F48011184A11601146096865
:1056100041F4001111600021154A11601349096815
:1056200041F40021114A11601146096841F0080156
:1056300011604FF4FF4101EAC0110D4A11600B499E
:10564000096841F40021094A11601146096841F0D6
:10565000080111601146096841F0100111601146FE
:10566000096841F0200111607047000010080140F6
:105670000C0C014000F01CF800F076F862B6FFF761
:1056800061FEFBF78FFBFFF785FE0FE046F2E0704F
:10569000FFF7FAFD4FF47A70FAF714FF4FF6640043
:1056A000FFF7F2FD4FF47A70FAF70CFFEEE7000017
:1056B0002748806940F01D002549886108464069F7
:1056C00040F0400048612348006800F0BB302149A9
:1056D00008600846006840F0333008601E480068E3
:1056E0001E4908401C490860084600681C490843D8
:1056F00019490860081F006820F08040091F0860F1
:105700000846006840F0405008601648406820F4A1
:105710008000144948600846406840F440104860E2
:105720000C481030006840F020000A491031086031
:105730000846006840F0100008600846006840F025
:10574000080008600846006840F0040008607047E0
:105750000010024000080140040C0140BBBBBBFB31
:1057600033333303001001400D48C06940F001009D
:105770000B49C8611720890408854FF47A70888521
:105780008810084908608000808940F00100890580
:1057900088810846008840F00100088070470000BA
:1057A0000010024000E100E01B49096841F01001CF
:1057B000194A11601146096841F4001111604FF453
:1057C000FF4101EA5001154A11601349096841F48B
:1057D0000021114A11601146096841F00801116069
:1057E0004FF4FF4101EAC0110C4A11600A490968EF
:1057F00041F40021084A11601146096841F008018E
:1058000011601146096841F01001116011460968E4
:1058100041F0200111607047100801400C0C01405C
:10582000B0FBF1F202FB1101104670475915000858
:10583000AD150008112A00087D170008253F000853
:10584000010000008D290008E53F0008000000006D
:10585000DD320008D5360008ED3600084D38000866
:10586000693F00083D470008A9510008314600087B
:10587000093D00083F3E0008EB3C00087F3F000860
:10588000ED410008FD410008F54100080D42000807
:10589000F141000805420008F941000815420008DE
:1058A0001D42000835420008254200083D4200081C
:1058B00021420008394200082D42000845420008F4
:1058C0000000000000000000202020202000200018
:1058D00048484800000000005050F850F850500070
:1058E0002078A07028F02000C0C810204098180030
:1058F0006090A040A8906800602040000000000078
:105900001020404040201000402010101020400087
:10591000005020F820500000002020F82020000037
:105920000000000000602040000000F800000000BF
:1059300000000000006060000008102040800000AF
:10594000708898A8C88870002060202020207000EF
:10595000708808304080F80070880830088870002F
:1059600010305090F8101000F880F008088870008F
:10597000304080F088887000F808102040404000D7
:105980007088887088887000708888780810600037
:105990000060600060600000000060600060204007
:1059A00010204080402010000000F800F8000000A7
:1059B00080402010204080007088081020002000C7
:1059C00070880868A8A87000708888F8888888009F
:1059D000F08888F08888F000708880808088700067
:1059E000E09088888890E000F88080F08080F8005F
:1059F000F88080F0808080007088808098887800AF
:105A0000888888F8888888007020202020207000EE
:105A100038101010109060008890A0C0A0908800EE
:105A2000808080808080F80088D8A8A88888880036
:105A30008888C8A8988888007088888888887000B6
:105A4000F08888F08080800070888888A89068003E
:105A5000F08888F0A09088007088807008887000B6
:105A6000F8202020202020008888888888887000DE
:105A70008888888888502000888888A8A8A850002E
:105A800088885020508888008888885020202000EE
:105A9000F80810204080F8007040404040407000FE
:105AA00000804020100800007010101010107000CE
:105AB000205088000000000000000000000000F8F6
:105AC0004020100000000000000070087888780076
:105AD0008080B0C88888F0000000708080887000E6
